{"abi":[{"type":"function","name":"auctionExists","inputs":[{"name":"","type":"bytes32","internalType":"bytes32"}],"outputs":[{"name":"","type":"bool","internalType":"bool"}],"stateMutability":"view"},{"type":"function","name":"auctionIds","inputs":[{"name":"","type":"uint256","internalType":"uint256"}],"outputs":[{"name":"","type":"bytes32","internalType":"bytes32"}],"stateMutability":"view"},{"type":"function","name":"computeAuction","inputs":[{"name":"auctionId","type":"bytes32","internalType":"bytes32"}],"outputs":[],"stateMutability":"nonpayable"},{"type":"function","name":"createAuction","inputs":[{"name":"auctionId","type":"bytes32","internalType":"bytes32"},{"name":"encFloor","type":"tuple","internalType":"struct InEuint64","components":[{"name":"ctHash","type":"uint256","internalType":"uint256"},{"name":"securityZone","type":"uint8","internalType":"uint8"},{"name":"utype","type":"uint8","internalType":"uint8"},{"name":"signature","type":"bytes","internalType":"bytes"}]},{"name":"nType","type":"uint8","internalType":"uint8"},{"name":"deadline","type":"uint256","internalType":"uint256"},{"name":"maxBidders","type":"uint8","internalType":"uint8"},{"name":"recipients","type":"address[]","internalType":"address[]"}],"outputs":[],"stateMutability":"nonpayable"},{"type":"function","name":"getAuctionCount","inputs":[],"outputs":[{"name":"","type":"uint256","internalType":"uint256"}],"stateMutability":"view"},{"type":"function","name":"getAuctionInfo","inputs":[{"name":"auctionId","type":"bytes32","internalType":"bytes32"}],"outputs":[{"name":"seller","type":"address","internalType":"address"},{"name":"status","type":"uint8","internalType":"enum MultiPartyAuction.AuctionStatus"},{"name":"createdAt","type":"uint256","internalType":"uint256"},{"name":"deadline","type":"uint256","internalType":"uint256"},{"name":"negotiationType","type":"uint8","internalType":"uint8"},{"name":"maxBidders","type":"uint8","internalType":"uint8"},{"name":"currentBids","type":"uint8","internalType":"uint8"},{"name":"isResultPublished","type":"bool","internalType":"bool"},{"name":"matched","type":"bool","internalType":"bool"},{"name":"agreedPrice","type":"uint64","internalType":"uint64"},{"name":"winner","type":"address","internalType":"address"}],"stateMutability":"view"},{"type":"function","name":"getBidCount","inputs":[{"name":"auctionId","type":"bytes32","internalType":"bytes32"}],"outputs":[{"name":"","type":"uint256","internalType":"uint256"}],"stateMutability":"view"},{"type":"function","name":"getBidder","inputs":[{"name":"auctionId","type":"bytes32","internalType":"bytes32"},{"name":"index","type":"uint256","internalType":"uint256"}],"outputs":[{"name":"","type":"address","internalType":"address"}],"stateMutability":"view"},{"type":"function","name":"getEncryptedResult","inputs":[{"name":"auctionId","type":"bytes32","internalType":"bytes32"}],"outputs":[{"name":"encAgreedPrice","type":"bytes32","internalType":"euint64"},{"name":"encHasWinner","type":"bytes32","internalType":"ebool"},{"name":"encWinnerIndex","type":"bytes32","internalType":"euint32"}],"stateMutability":"view"},{"type":"function","name":"getPublishedResult","inputs":[{"name":"auctionId","type":"bytes32","internalType":"bytes32"}],"outputs":[{"name":"isPublished","type":"bool","internalType":"bool"},{"name":"matched","type":"bool","internalType":"bool"},{"name":"agreedPrice","type":"uint64","internalType":"uint64"},{"name":"winner","type":"address","internalType":"address"}],"stateMutability":"view"},{"type":"function","name":"getReceivedInvites","inputs":[{"name":"recipient","type":"address","internalType":"address"}],"outputs":[{"name":"","type":"tuple[]","internalType":"struct MultiPartyAuction.Invite[]","components":[{"name":"auctionId","type":"bytes32","internalType":"bytes32"},{"name":"sender","type":"address","internalType":"address"},{"name":"timestamp","type":"uint256","internalType":"uint256"},{"name":"negotiationType","type":"uint8","internalType":"uint8"}]}],"stateMutability":"view"},{"type":"function","name":"getSentInvites","inputs":[{"name":"sender","type":"address","internalType":"address"}],"outputs":[{"name":"","type":"tuple[]","internalType":"struct MultiPartyAuction.Invite[]","components":[{"name":"auctionId","type":"bytes32","internalType":"bytes32"},{"name":"sender","type":"address","internalType":"address"},{"name":"timestamp","type":"uint256","internalType":"uint256"},{"name":"negotiationType","type":"uint8","internalType":"uint8"}]}],"stateMutability":"view"},{"type":"function","name":"matchResult","inputs":[{"name":"","type":"bytes32","internalType":"bytes32"}],"outputs":[{"name":"","type":"bool","internalType":"bool"}],"stateMutability":"view"},{"type":"function","name":"publishResult","inputs":[{"name":"auctionId","type":"bytes32","internalType":"bytes32"},{"name":"_matched","type":"bool","internalType":"bool"},{"name":"_agreedPrice","type":"uint64","internalType":"uint64"},{"name":"_winner","type":"address","internalType":"address"}],"outputs":[],"stateMutability":"nonpayable"},{"type":"function","name":"publishedPrice","inputs":[{"name":"","type":"bytes32","internalType":"bytes32"}],"outputs":[{"name":"","type":"uint64","internalType":"uint64"}],"stateMutability":"view"},{"type":"function","name":"publishedWinner","inputs":[{"name":"","type":"bytes32","internalType":"bytes32"}],"outputs":[{"name":"","type":"address","internalType":"address"}],"stateMutability":"view"},{"type":"function","name":"resultPublished","inputs":[{"name":"","type":"bytes32","internalType":"bytes32"}],"outputs":[{"name":"","type":"bool","internalType":"bool"}],"stateMutability":"view"},{"type":"function","name":"sendBatchInvites","inputs":[{"name":"auctionId","type":"bytes32","internalType":"bytes32"},{"name":"recipients","type":"address[]","internalType":"address[]"}],"outputs":[],"stateMutability":"nonpayable"},{"type":"function","name":"sendInvite","inputs":[{"name":"auctionId","type":"bytes32","internalType":"bytes32"},{"name":"recipient","type":"address","internalType":"address"}],"outputs":[],"stateMutability":"nonpayable"},{"type":"function","name":"submitBid","inputs":[{"name":"auctionId","type":"bytes32","internalType":"bytes32"},{"name":"encCeiling","type":"tuple","internalType":"struct InEuint64","components":[{"name":"ctHash","type":"uint256","internalType":"uint256"},{"name":"securityZone","type":"uint8","internalType":"uint8"},{"name":"utype","type":"uint8","internalType":"uint8"},{"name":"signature","type":"bytes","internalType":"bytes"}]}],"outputs":[],"stateMutability":"nonpayable"},{"type":"event","name":"AuctionComputed","inputs":[{"name":"auctionId","type":"bytes32","indexed":true,"internalType":"bytes32"},{"name":"totalBids","type":"uint8","indexed":false,"internalType":"uint8"},{"name":"timestamp","type":"uint256","indexed":false,"internalType":"uint256"}],"anonymous":false},{"type":"event","name":"AuctionCreated","inputs":[{"name":"auctionId","type":"bytes32","indexed":true,"internalType":"bytes32"},{"name":"seller","type":"address","indexed":true,"internalType":"address"},{"name":"nType","type":"uint8","indexed":false,"internalType":"uint8"},{"name":"deadline","type":"uint256","indexed":false,"internalType":"uint256"},{"name":"maxBidders","type":"uint8","indexed":false,"internalType":"uint8"},{"name":"timestamp","type":"uint256","indexed":false,"internalType":"uint256"}],"anonymous":false},{"type":"event","name":"AuctionInviteSent","inputs":[{"name":"auctionId","type":"bytes32","indexed":true,"internalType":"bytes32"},{"name":"sender","type":"address","indexed":true,"internalType":"address"},{"name":"recipient","type":"address","indexed":true,"internalType":"address"},{"name":"timestamp","type":"uint256","indexed":false,"internalType":"uint256"}],"anonymous":false},{"type":"event","name":"AuctionResultPublished","inputs":[{"name":"auctionId","type":"bytes32","indexed":true,"internalType":"bytes32"},{"name":"matched","type":"bool","indexed":false,"internalType":"bool"},{"name":"agreedPrice","type":"uint64","indexed":false,"internalType":"uint64"},{"name":"winner","type":"address","indexed":false,"internalType":"address"},{"name":"timestamp","type":"uint256","indexed":false,"internalType":"uint256"}],"anonymous":false},{"type":"event","name":"BidSubmitted","inputs":[{"name":"auctionId","type":"bytes32","indexed":true,"internalType":"bytes32"},{"name":"bidder","type":"address","indexed":true,"internalType":"address"},{"name":"bidIndex","type":"uint8","indexed":false,"internalType":"uint8"},{"name":"timestamp","type":"uint256","indexed":false,"internalType":"uint256"}],"anonymous":false},{"type":"error","name":"InvalidEncryptedInput","inputs":[{"name":"got","type":"uint8","internalType":"uint8"},{"name":"expected","type":"uint8","internalType":"uint8"}]},{"type":"error","name":"SecurityZoneOutOfBounds","inputs":[{"name":"value","type":"int32","internalType":"int32"}]}],"bytecode":{"object":"0x608080604052346015576127c9908161001a8239f35b5f80fdfe6080806040526004361015610012575f80fd5b5f3560e01c90816302acc40014611c1157508063043c55d114611b805780631053a3ab14611ac957806315659dde14611a9f57806324b52c4d146118bb578063299077e8146114b65780632a6433be1461147e5780632d2a25e114610b92578063377e89e214610a815780633c5535861461097f5780634b296c8b1461094d5780637a5a69e31461091e578063ad0ea07b1461071f578063bf9fc26c14610636578063c30998ee146102ae578063c44e664014610291578063d22932bb1461025e578063db5aabc5146101a3578063e3b5e0ff1461012b5763f3db82aa146100f8575f80fd5b34610127576020366003190112610127576004355f526005602052602060ff60405f2054166040519015158152f35b5f80fd5b3461012757602036600319011261012757600480355f908152602091825260408082205460058452818320546006855282842054600786529383902054835160ff93841615158152919092161515948101949094526001600160401b0392909216908301526001600160a01b03166060820152608090f35b34610127576020366003190112610127576001600160a01b036101c4611c3c565b165f52600860205260405f2080546101db81611d8b565b916101e96040519384611d6a565b81835260208301905f5260205f205f915b838310610213576040518061020f8782611c52565b0390f35b6004602060019260405161022681611d4f565b85548152848060a01b038587015416838201526002860154604082015260ff60038701541660608201528152019201920191906101fa565b34610127576020366003190112610127576004355f52600660205260206001600160401b0360405f205416604051908152f35b34610127575f366003190112610127576020600354604051908152f35b34610127576040366003190112610127576004356024356001600160401b038111610127576080600319823603011261012757815f5260026020526102f960ff60405f205416611da2565b815f525f60205260405f2060058101549060ff8260081c166005811015610622576001036105dd576004810154421161059857546001600160a01b0316331461055457825f52600160205260ff60405f205491161115610519575f8281526001602052604081208054915b8281106104b1578461038161037c3660048801611e21565b612040565b61038a81612182565b610393816121f3565b815f52600160205260405f2060405190606082018281106001600160401b0382111761049d576040523382526020820192835260408201904282528054600160401b81101561049d576103eb91600182018155611d36565b93909361048a5760029260018060a01b039060018060a01b03905116166001600160601b0360a01b85541617845551600184015551910155805f52600160205260405f2054905f198201918211610476576040805160ff93909316835242602084015233927f95d2990ec1db8f8ed40c6bcb5ee7ee3b823c247bab5c74b812815ad5baffa4b59190a3005b634e487b7160e01b5f52601160045260245ffd5b634e487b7160e01b5f525f60045260245ffd5b634e487b7160e01b5f52604160045260245ffd5b6104bb8183611d36565b50546001600160a01b031633146104d457600101610364565b60405162461bcd60e51b815260206004820152601760248201527f416c7265616479207375626d69747465642061206269640000000000000000006044820152606490fd5b60405162461bcd60e51b815260206004820152601360248201527213585e08189a5919195c9cc81c995858da1959606a1b6044820152606490fd5b606460405162461bcd60e51b815260206004820152602060248201527f53656c6c65722063616e6e6f7420626964206f6e206f776e2061756374696f6e6044820152fd5b60405162461bcd60e51b815260206004820152601860248201527f42696464696e6720706572696f642068617320656e64656400000000000000006044820152606490fd5b60405162461bcd60e51b815260206004820152601a60248201527f41756374696f6e206e6f7420616363657074696e6720626964730000000000006044820152606490fd5b634e487b7160e01b5f52602160045260245ffd5b3461012757602036600319011261012757600480355f908152602081815260408083208054600580830154600384015484890154600290950154600188528689205499885286892054848952878a205460068a52888b20546007909a52998890205497516001600160a01b039687168152929a929995909716976001600160401b03169660ff958616969086169592831694600885901c8416949390921691841015610622576101609a60ff9460208c015260408b015260608a015260808901521660a087015260c0860152151560e08501521515610100840152610120830152610140820152f35b34610127576040366003190112610127576004356024356001600160401b03811161012757610752903690600401611cc8565b91805f52600260205261076b60ff60405f205416611da2565b805f525f60205261078960018060a01b0360405f2054163314611ff4565b82156108e057600a83116108a557805f525f60205260ff600260405f2001541691604051926107b784611d4f565b82845233602085015242604085015260608401525f5b8481106107d657005b600190610800336001600160a01b036107f86107f3858b89611ece565b611ede565b161415611ef2565b61081f828060a01b036108176107f3848a88611ece565b161515611f37565b818060a01b036108336107f3838987611ece565b165f5260086020526108488560405f20611f77565b335f52600960205261085d8560405f20611f77565b818060a01b036108716107f3838987611ece565b16604051428152857ffd926112f0aa39375860ab312c3131f854e3cf605e336ee3cc868f94209b46ee60203393a4016107cd565b60405162461bcd60e51b8152602060048201526013602482015272546f6f206d616e7920726563697069656e747360681b6044820152606490fd5b60405162461bcd60e51b8152602060048201526016602482015275139bc81c9958da5c1a595b9d1cc81c1c9bdd9a59195960521b6044820152606490fd5b34610127576020366003190112610127576004355f526002602052602060ff60405f2054166040519015158152f35b34610127576020366003190112610127576004355f526007602052602060018060a01b0360405f205416604051908152f35b34610127576040366003190112610127576024356001600160a01b038116906004359082900361012757805f5260026020526109c160ff60405f205416611da2565b805f525f6020526109df60018060a01b0360405f2054163314611ff4565b6109eb33831415611ef2565b6109f6821515611f37565b805f525f602052610a5260ff600260405f2001541660405190610a1882611d4f565b8382523360208301524260408301526060820152835f526008602052610a418160405f20611f77565b335f52600960205260405f20611f77565b604051904282527ffd926112f0aa39375860ab312c3131f854e3cf605e336ee3cc868f94209b46ee60203393a4005b3461012757602036600319011261012757600435805f525f60205260018060a01b0360405f20541633148015610b40575b15610b07575f525f60205260405f2060ff600582015460081c1690600582101561062257610ae4600360609314611de7565b600781015490600860068201549101549060405192835260208301526040820152f35b60405162461bcd60e51b8152602060048201526011602482015270139bdd0818481c185c9d1a58da5c185b9d607a1b6044820152606490fd5b5f8281526001602052604081208054915b828110610b61575b505050610ab2565b610b6b8183611d36565b50546001600160a01b03163314610b8457600101610b51565b505050506001828080610b59565b3461012757602036600319011261012757600435805f525f60205260405f20600581015460ff8160081c166005811015610622576001036114425760048201544211908115611427575b50156113ed57815f52600160205260405f2080549182156113b45760058101805461ff0019166102001790556001610c1383611d24565b50015491610c336001610c2583611d24565b500154600184015490612235565b91610c3c61263d565b9060016040956080915b88811061104257506001830154818115611032575b1561101e575b875192610ccb92610c73606086611d6a565b6002855260409283366020880137610c8a86612610565b52610c948561261d565b52602080948a5190610ca68383611d6a565b5f82525f3681378b51631888debd60e01b8152958692839260086005600486016125e0565b03815f73ea30c4b8b44078bbf8a6ef5b9f1ec1626c7848d95af1928315610fe1579084915f94610feb575b5090610d68918a51610d088382611d6a565b5f81525f3681378b5191610d1c8184611d6a565b60038352601f190136848401376002610d3483612610565b526005610d408361261d565b525f610d4b8361262d565b528b51631888debd60e01b815293849283926005600485016125b9565b03815f73ea30c4b8b44078bbf8a6ef5b9f1ec1626c7848d95af1908115610fe157908492915f91610fae575b50610e0493818115610f9e575b15610f8e575b8a5192610db5606085611d6a565b600284523685850137610dc783612610565b52610dd18261261d565b52885190610ddf8383611d6a565b5f82525f3681378951631888debd60e01b81529384928392600d6005600486016125e0565b03815f73ea30c4b8b44078bbf8a6ef5b9f1ec1626c7848d95af1918215610f84575f92610f52575b50610ec191610e459150610e3e612720565b908761244a565b60068301868155600784019182556008840194855560058401805461ff00191661030017905583549096919391610e85916001600160a01b031690612502565b610e8f86546121f3565b610ea4835460018060a01b0383541690612502565b610eae83546121f3565b835490546001600160a01b031690612502565b610ecb82546121f3565b5f5b868110610f0c57855160ff8816815242602082015288907f0d554559f7b26f735203c770d2e7ac5d18d54fba70e316ea5dca4709ed583a2490604090a2005b600190610f2e8654610f1e8388611d36565b50848060a01b0390541690612502565b610f3d8354610f1e8388611d36565b610f4c8454610f1e8388611d36565b01610ecd565b90809250813d8311610f7d575b610f698183611d6a565b810103126101275751610e45610ec1610e2c565b503d610f5f565b87513d5f823e3d90fd5b9050610f98612720565b90610da7565b9050610fa8612720565b90610da1565b83819492503d8311610fda575b610fc58183611d6a565b81010312610127579051839190610e04610d94565b503d610fbb565b89513d5f823e3d90fd5b8281939295503d8311611017575b6110038183611d6a565b810103126101275751918390610d68610cf6565b503d610ff9565b610ccb915061102b612720565b9150610c61565b905061103c612720565b90610c5b565b95936110f661106460016110568a8a611d36565b500154600187015490612235565b9161107d8460016110758c8c611d36565b500154612235565b8a8889156113a5575b8151906110938383611d6a565b60018252601f1983013660208401376110ab82612610565b5260209485916111088451946110c18587611d6a565b5f86525f36813751631888debd60e01b81525f6004820152600c6024820152604481018c90529485938493608485019061254e565b8381036003190160648501529061254e565b03815f73ea30c4b8b44078bbf8a6ef5b9f1ec1626c7848d95af190811561136c575f91611376575b506111529061114c6111456111689488612316565b9187612316565b906123b0565b94600161115f8c8c611d36565b5001548661244a565b936111df838b8d80519061117c8483611d6a565b5f82525f36813763ffffffff8151936111958d86611d6a565b60038552601f198d013687870137166111ad84612610565b5260046111b98461261d565b525f6111c48461262d565b5251631888debd60e01b8152938492839260048085016125b9565b03815f73ea30c4b8b44078bbf8a6ef5b9f1ec1626c7848d95af190811561136c57908492915f91611339575b5061128e939081818415611328575b15611318575b15611308575b8d51926112338a85611d6a565b60038452601f198a01368686013761124a84612610565b526112548361261d565b5261125e8261262d565b528b519061126c8383611d6a565b5f82525f3681378c51631888debd60e01b815293849283926004808501612581565b03815f73ea30c4b8b44078bbf8a6ef5b9f1ec1626c7848d95af19182156112fe575f926112ce575b5050600191816112c79250966123b0565b9601610c46565b90809250813d83116112f7575b6112e58183611d6a565b810103126101275751816112c76112b6565b503d6112db565b8a513d5f823e3d90fd5b905061131261263d565b90611226565b905061132261263d565b90611220565b93506113335f6126af565b9361121a565b83819492503d8311611365575b6113508183611d6a565b8101031261012757905183919061128e61120b565b503d611346565b8c513d5f823e3d90fd5b90508381813d831161139e575b61138d8183611d6a565b810103126101275751611168611130565b503d611383565b506113af5f6126af565b611086565b60405162461bcd60e51b8152602060048201526011602482015270139bc8189a591cc81cdd589b5a5d1d1959607a1b6044820152606490fd5b60405162461bcd60e51b81526020600482015260126024820152712134b23234b7339039ba34b6361037b832b760711b6044820152606490fd5b9050825f52600160205260ff60405f20549116111583610bdc565b60405162461bcd60e51b81526020600482015260146024820152734e6f7420696e2062696464696e6720706861736560601b6044820152606490fd5b3461012757602036600319011261012757600435600354811015610127576114a7602091611cf8565b90549060031b1c604051908152f35b346101275760c0366003190112610127576024356004356001600160401b0382116101275760806003198336030112610127576044359060ff821680920361012757606435926084359360ff85168095036101275760a4356001600160401b0381116101275761152a903690600401611cc8565b959092845f52600260205260ff60405f20541661187d574283111561183857600386116117f3576001821015806117e8575b156117a35781871161175e575f85815260208190526040902080546001600160a01b031916331781556115e99160059061159e9061037c903690600401611e21565b6001830190815560028301805460ff19168a179055426003840155600483018690559101805461ff0019851661ffff199091161761010017905580546115e390612182565b546121f3565b600354600160401b81101561049d578060016116089201600355611cf8565b81549060031b9086821b915f19901b1916179055835f52600260205260405f20600160ff198254161790556040519185835260208301526040820152426060820152827f8390a1cc6e9511fdf043189e02ed11aed321a4e7058bb9508dd420f41656adab60803393a38361167857005b6040519261168584611d4f565b82845233602085015242604085015260608401525f5b8481106116a457005b6001906116c1336001600160a01b036107f86107f3858b89611ece565b6116d8828060a01b036108176107f3848a88611ece565b818060a01b036116ec6107f3838987611ece565b165f5260086020526117018560405f20611f77565b335f5260096020526117168560405f20611f77565b818060a01b0361172a6107f3838987611ece565b16604051428152857ffd926112f0aa39375860ab312c3131f854e3cf605e336ee3cc868f94209b46ee60203393a40161169b565b60405162461bcd60e51b815260206004820152601c60248201527f526563697069656e747320657863656564206d617842696464657273000000006044820152606490fd5b60405162461bcd60e51b815260206004820152601860248201527f4d61782062696464657273206d75737420626520312d313000000000000000006044820152606490fd5b50600a82111561155c565b60405162461bcd60e51b815260206004820152601860248201527f496e76616c6964206e65676f74696174696f6e207479706500000000000000006044820152606490fd5b60405162461bcd60e51b815260206004820152601e60248201527f446561646c696e65206d75737420626520696e207468652066757475726500006044820152606490fd5b60405162461bcd60e51b815260206004820152601660248201527541756374696f6e20616c72656164792065786973747360501b6044820152606490fd5b3461012757608036600319011261012757600435602435801515809103610127576044356001600160401b038116809103610127576064356001600160a01b038116929083900361012757835f52600260205261191e60ff60405f205416611da2565b5f848152602081905260409020546001600160a01b03163303611a5a57835f525f60205260ff600560405f20015460081c1660058110156106225760036119659114611de7565b835f52600460205260ff60405f205416611a21577fc145e6db0a57dd4480f8ae12c8ad01faa5900836674258af8a72db06e95596de92608092855f52600460205260405f20600160ff19825416179055855f52600560205260405f2060ff1981541660ff8516179055855f52600660205260405f20816001600160401b0319825416179055855f52600760205260405f20826001600160601b0360a01b82541617905560405192835260208301526040820152426060820152a2005b60405162461bcd60e51b8152602060048201526011602482015270105b1c9958591e481c1d589b1a5cda1959607a1b6044820152606490fd5b60405162461bcd60e51b815260206004820152601e60248201527f4f6e6c792073656c6c65722063616e207075626c69736820726573756c7400006044820152606490fd5b34610127576020366003190112610127576004355f526001602052602060405f2054604051908152f35b34610127576020366003190112610127576001600160a01b03611aea611c3c565b165f52600960205260405f208054611b0181611d8b565b91611b0f6040519384611d6a565b81835260208301905f5260205f205f915b838310611b35576040518061020f8782611c52565b60046020600192604051611b4881611d4f565b85548152848060a01b038587015416838201526002860154604082015260ff6003870154166060820152815201920192019190611b20565b346101275760403660031901126101275760043560243590805f52600160205260405f2054821015611bd657602091611bc2915f526001835260405f20611d36565b50546040516001600160a01b039091168152f35b60405162461bcd60e51b8152602060048201526013602482015272496e646578206f7574206f6620626f756e647360681b6044820152606490fd5b34610127576020366003190112610127576020906004355f526004825260ff60405f20541615158152f35b600435906001600160a01b038216820361012757565b60206040818301928281528451809452019201905f5b818110611c755750505090565b8251805185526020818101516001600160a01b0316818701526040808301519087015260609182015160ff169186019190915260809094019390920191600101611c68565b359060ff8216820361012757565b9181601f84011215610127578235916001600160401b038311610127576020808501948460051b01011161012757565b600354811015611d105760035f5260205f2001905f90565b634e487b7160e01b5f52603260045260245ffd5b805415611d10575f5260205f20905f90565b8054821015611d10575f52600360205f20910201905f90565b608081019081106001600160401b0382111761049d57604052565b90601f801991011681019081106001600160401b0382111761049d57604052565b6001600160401b03811161049d5760051b60200190565b15611da957565b60405162461bcd60e51b8152602060048201526016602482015275105d58dd1a5bdb88191bd95cc81b9bdd08195e1a5cdd60521b6044820152606490fd5b15611dee57565b60405162461bcd60e51b815260206004820152600b60248201526a139bdd081cd95d1d1b195960aa1b6044820152606490fd5b919060808382031261012757604051611e3981611d4f565b809380358252611e4b60208201611cba565b6020830152611e5c60408201611cba565b60408301526060810135906001600160401b03821161012757019082601f830112156101275781356001600160401b03811161049d5760405193611eaa601f8301601f191660200186611d6a565b81855260208285010111610127576020815f92826060960183880137850101520152565b9190811015611d105760051b0190565b356001600160a01b03811681036101275790565b15611ef957565b60405162461bcd60e51b815260206004820152601660248201527521b0b73737ba1034b73b34ba32903cb7bab939b2b63360511b6044820152606490fd5b15611f3e57565b60405162461bcd60e51b8152602060048201526011602482015270125b9d985b1a59081c9958da5c1a595b9d607a1b6044820152606490fd5b805490600160401b82101561049d5760018201808255821015611d105760ff606081936003935f5260205f209060021b01948051865560018060a01b03602082015116600187019060018060a01b03166001600160601b0360a01b825416179055604081015160028701550151169201911660ff19825416179055565b15611ffb57565b60405162461bcd60e51b815260206004820152601c60248201527f4f6e6c792073656c6c65722063616e2073656e6420696e7669746573000000006044820152606490fd5b60ff6040820151166005810361216b5750602060ff9160608060405161206581611d4f565b5f81525f858201525f6040820152015260e481518360608682860151169401516040519261209284611d4f565b83528183019485528660408401600581526060850192835260405198899788966313fce3b160e11b885260406004890152516044880152511660648601525116608484015251608060a484015280519182918260c4860152018484015e5f838284010152336024830152601f801991011681010301815f73ea30c4b8b44078bbf8a6ef5b9f1ec1626c7848d95af1908115612160575f91612131575090565b90506020813d602011612158575b8161214c60209383611d6a565b81010312610127575190565b3d915061213f565b6040513d5f823e3d90fd5b6367cf307160e01b5f52600452600560245260445ffd5b73ea30c4b8b44078bbf8a6ef5b9f1ec1626c7848d93b1561012757604051631974142760e21b815260048101919091523360248201525f8180604481015b03818373ea30c4b8b44078bbf8a6ef5b9f1ec1626c7848d95af18015612160576121e75750565b5f6121f191611d6a565b565b73ea30c4b8b44078bbf8a6ef5b9f1ec1626c7848d93b1561012757604051631974142760e21b815260048101919091523060248201525f8180604481016121c0565b908115612306575b80156122f8575b60405191612253606084611d6a565b60028352604036602085013761226883612610565b526122728261261d565b526122ae60208092604051906122888383611d6a565b5f82525f368137604051631888debd60e01b8152938492839260126005600486016125e0565b03815f73ea30c4b8b44078bbf8a6ef5b9f1ec1626c7848d95af1918215612160575f926122da57505090565b90809250813d83116122f1575b61214c8183611d6a565b503d6122e7565b50612301612720565b612244565b9050612310612720565b9061223d565b90811561239e575b801561238e575b60405191612334606084611d6a565b60028352604036602085013761234983612610565b526123538261261d565b526122ae60208092604051906123698383611d6a565b5f82525f368137604051631888debd60e01b81529384928392600a5f600486016125e0565b5061239960016126af565b612325565b90506123aa60016126af565b9061231e565b908115612438575b8015612428575b604051916123ce606084611d6a565b6002835260403660208501376123e383612610565b526123ed8261261d565b526122ae60208092604051906124038383611d6a565b5f82525f368137604051631888debd60e01b81529384928392600b5f600486016125e0565b5061243360016126af565b6123bf565b905061244460016126af565b906123b8565b919082156124f1575b80156124e3575b81156124d3575b60405192612470608085611d6a565b60038452606036602086013761248584612610565b5261248f8361261d565b526124998261262d565b526122ae60208092604051906124af8383611d6a565b5f82525f368137604051631888debd60e01b81529384928392600560048501612581565b90506124dd612720565b90612461565b506124ec612720565b61245a565b91506124fc5f6126af565b91612453565b73ea30c4b8b44078bbf8a6ef5b9f1ec1626c7848d93b1561012757604051631974142760e21b815260048101919091526001600160a01b0390911660248201525f8180604481016121c0565b90602080835192838152019201905f5b81811061256b5750505090565b825184526020938401939092019160010161255e565b916125a89060ff6125b695931684526004602085015260806040850152608084019061254e565b91606081840391015261254e565b90565b916125a89060ff6125b69593168452601a602085015260806040850152608084019061254e565b9293919060ff1683526020811015610622576125b6936125a891602085015260806040850152608084019061254e565b805115611d105760200190565b805160011015611d105760400190565b805160021015611d105760600190565b60206122ae816040516126508282611d6a565b5f81525f36813760405190612666608083611d6a565b60038252606036848401375f61267b83612610565b5260046126878361261d565b525f6126928361262d565b52604051631888debd60e01b8152938492839260048085016125b9565b6122ae602080926040516126c38382611d6a565b5f81525f368137604051916126d9608084611d6a565b60038352606036858501376126ed83612610565b525f6126f88361261d565b525f6127038361262d565b52604051631888debd60e01b815293849283925f600485016125b9565b60206122ae816040516127338282611d6a565b5f81525f36813760405190612749608083611d6a565b60038252606036848401375f61275e83612610565b52600561276a8361261d565b525f6127758361262d565b52604051631888debd60e01b815293849283926005600485016125b956fea26469706673582212200a99e0c7a90baeae4a227d654fe993e238fd158259af4050e27651c3497e652964736f6c634300081a0033","linkReferences":{}},"methodIdentifiers":{"auctionExists(bytes32)":"7a5a69e3","auctionIds(uint256)":"2a6433be","computeAuction(bytes32)":"2d2a25e1","createAuction(bytes32,(uint256,uint8,uint8,bytes),uint8,uint256,uint8,address[])":"299077e8","getAuctionCount()":"c44e6640","getAuctionInfo(bytes32)":"bf9fc26c","getBidCount(bytes32)":"15659dde","getBidder(bytes32,uint256)":"043c55d1","getEncryptedResult(bytes32)":"377e89e2","getPublishedResult(bytes32)":"e3b5e0ff","getReceivedInvites(address)":"db5aabc5","getSentInvites(address)":"1053a3ab","matchResult(bytes32)":"f3db82aa","publishResult(bytes32,bool,uint64,address)":"24b52c4d","publishedPrice(bytes32)":"d22932bb","publishedWinner(bytes32)":"4b296c8b","resultPublished(bytes32)":"02acc400","sendBatchInvites(bytes32,address[])":"ad0ea07b","sendInvite(bytes32,address)":"3c553586","submitBid(bytes32,(uint256,uint8,uint8,bytes))":"c30998ee"},"id":32}