{"abi":[{"type":"function","name":"auctionExists","inputs":[{"name":"","type":"bytes32","internalType":"bytes32"}],"outputs":[{"name":"","type":"bool","internalType":"bool"}],"stateMutability":"view"},{"type":"function","name":"auctionIds","inputs":[{"name":"","type":"uint256","internalType":"uint256"}],"outputs":[{"name":"","type":"bytes32","internalType":"bytes32"}],"stateMutability":"view"},{"type":"function","name":"computeAuction","inputs":[{"name":"auctionId","type":"bytes32","internalType":"bytes32"}],"outputs":[],"stateMutability":"nonpayable"},{"type":"function","name":"createAuction","inputs":[{"name":"auctionId","type":"bytes32","internalType":"bytes32"},{"name":"encFloor","type":"tuple","internalType":"struct InEuint64","components":[{"name":"ctHash","type":"uint256","internalType":"uint256"},{"name":"securityZone","type":"uint8","internalType":"uint8"},{"name":"utype","type":"uint8","internalType":"uint8"},{"name":"signature","type":"bytes","internalType":"bytes"}]},{"name":"nType","type":"uint8","internalType":"uint8"},{"name":"deadline","type":"uint256","internalType":"uint256"},{"name":"maxBidders","type":"uint8","internalType":"uint8"}],"outputs":[],"stateMutability":"nonpayable"},{"type":"function","name":"getAuctionCount","inputs":[],"outputs":[{"name":"","type":"uint256","internalType":"uint256"}],"stateMutability":"view"},{"type":"function","name":"getAuctionInfo","inputs":[{"name":"auctionId","type":"bytes32","internalType":"bytes32"}],"outputs":[{"name":"seller","type":"address","internalType":"address"},{"name":"status","type":"uint8","internalType":"enum MultiPartyAuction.AuctionStatus"},{"name":"createdAt","type":"uint256","internalType":"uint256"},{"name":"deadline","type":"uint256","internalType":"uint256"},{"name":"negotiationType","type":"uint8","internalType":"uint8"},{"name":"maxBidders","type":"uint8","internalType":"uint8"},{"name":"currentBids","type":"uint8","internalType":"uint8"},{"name":"isResultPublished","type":"bool","internalType":"bool"},{"name":"matched","type":"bool","internalType":"bool"},{"name":"agreedPrice","type":"uint64","internalType":"uint64"},{"name":"winner","type":"address","internalType":"address"}],"stateMutability":"view"},{"type":"function","name":"getBidCount","inputs":[{"name":"auctionId","type":"bytes32","internalType":"bytes32"}],"outputs":[{"name":"","type":"uint256","internalType":"uint256"}],"stateMutability":"view"},{"type":"function","name":"getBidder","inputs":[{"name":"auctionId","type":"bytes32","internalType":"bytes32"},{"name":"index","type":"uint256","internalType":"uint256"}],"outputs":[{"name":"","type":"address","internalType":"address"}],"stateMutability":"view"},{"type":"function","name":"getEncryptedResult","inputs":[{"name":"auctionId","type":"bytes32","internalType":"bytes32"}],"outputs":[{"name":"encAgreedPrice","type":"bytes32","internalType":"euint64"},{"name":"encHasWinner","type":"bytes32","internalType":"ebool"}],"stateMutability":"view"},{"type":"function","name":"getPublishedResult","inputs":[{"name":"auctionId","type":"bytes32","internalType":"bytes32"}],"outputs":[{"name":"isPublished","type":"bool","internalType":"bool"},{"name":"matched","type":"bool","internalType":"bool"},{"name":"agreedPrice","type":"uint64","internalType":"uint64"},{"name":"winner","type":"address","internalType":"address"}],"stateMutability":"view"},{"type":"function","name":"getReceivedInvites","inputs":[{"name":"recipient","type":"address","internalType":"address"}],"outputs":[{"name":"","type":"tuple[]","internalType":"struct MultiPartyAuction.Invite[]","components":[{"name":"auctionId","type":"bytes32","internalType":"bytes32"},{"name":"sender","type":"address","internalType":"address"},{"name":"timestamp","type":"uint256","internalType":"uint256"},{"name":"negotiationType","type":"uint8","internalType":"uint8"}]}],"stateMutability":"view"},{"type":"function","name":"getSentInvites","inputs":[{"name":"sender","type":"address","internalType":"address"}],"outputs":[{"name":"","type":"tuple[]","internalType":"struct MultiPartyAuction.Invite[]","components":[{"name":"auctionId","type":"bytes32","internalType":"bytes32"},{"name":"sender","type":"address","internalType":"address"},{"name":"timestamp","type":"uint256","internalType":"uint256"},{"name":"negotiationType","type":"uint8","internalType":"uint8"}]}],"stateMutability":"view"},{"type":"function","name":"matchResult","inputs":[{"name":"","type":"bytes32","internalType":"bytes32"}],"outputs":[{"name":"","type":"bool","internalType":"bool"}],"stateMutability":"view"},{"type":"function","name":"publishResult","inputs":[{"name":"auctionId","type":"bytes32","internalType":"bytes32"},{"name":"_matched","type":"bool","internalType":"bool"},{"name":"_agreedPrice","type":"uint64","internalType":"uint64"},{"name":"_winner","type":"address","internalType":"address"}],"outputs":[],"stateMutability":"nonpayable"},{"type":"function","name":"publishedPrice","inputs":[{"name":"","type":"bytes32","internalType":"bytes32"}],"outputs":[{"name":"","type":"uint64","internalType":"uint64"}],"stateMutability":"view"},{"type":"function","name":"publishedWinner","inputs":[{"name":"","type":"bytes32","internalType":"bytes32"}],"outputs":[{"name":"","type":"address","internalType":"address"}],"stateMutability":"view"},{"type":"function","name":"resultPublished","inputs":[{"name":"","type":"bytes32","internalType":"bytes32"}],"outputs":[{"name":"","type":"bool","internalType":"bool"}],"stateMutability":"view"},{"type":"function","name":"sendBatchInvites","inputs":[{"name":"auctionId","type":"bytes32","internalType":"bytes32"},{"name":"recipients","type":"address[]","internalType":"address[]"}],"outputs":[],"stateMutability":"nonpayable"},{"type":"function","name":"sendInvite","inputs":[{"name":"auctionId","type":"bytes32","internalType":"bytes32"},{"name":"recipient","type":"address","internalType":"address"}],"outputs":[],"stateMutability":"nonpayable"},{"type":"function","name":"submitBid","inputs":[{"name":"auctionId","type":"bytes32","internalType":"bytes32"},{"name":"encCeiling","type":"tuple","internalType":"struct InEuint64","components":[{"name":"ctHash","type":"uint256","internalType":"uint256"},{"name":"securityZone","type":"uint8","internalType":"uint8"},{"name":"utype","type":"uint8","internalType":"uint8"},{"name":"signature","type":"bytes","internalType":"bytes"}]}],"outputs":[],"stateMutability":"nonpayable"},{"type":"event","name":"AuctionComputed","inputs":[{"name":"auctionId","type":"bytes32","indexed":true,"internalType":"bytes32"},{"name":"totalBids","type":"uint8","indexed":false,"internalType":"uint8"},{"name":"timestamp","type":"uint256","indexed":false,"internalType":"uint256"}],"anonymous":false},{"type":"event","name":"AuctionCreated","inputs":[{"name":"auctionId","type":"bytes32","indexed":true,"internalType":"bytes32"},{"name":"seller","type":"address","indexed":true,"internalType":"address"},{"name":"nType","type":"uint8","indexed":false,"internalType":"uint8"},{"name":"deadline","type":"uint256","indexed":false,"internalType":"uint256"},{"name":"maxBidders","type":"uint8","indexed":false,"internalType":"uint8"},{"name":"timestamp","type":"uint256","indexed":false,"internalType":"uint256"}],"anonymous":false},{"type":"event","name":"AuctionInviteSent","inputs":[{"name":"auctionId","type":"bytes32","indexed":true,"internalType":"bytes32"},{"name":"sender","type":"address","indexed":true,"internalType":"address"},{"name":"recipient","type":"address","indexed":true,"internalType":"address"},{"name":"timestamp","type":"uint256","indexed":false,"internalType":"uint256"}],"anonymous":false},{"type":"event","name":"AuctionResultPublished","inputs":[{"name":"auctionId","type":"bytes32","indexed":true,"internalType":"bytes32"},{"name":"matched","type":"bool","indexed":false,"internalType":"bool"},{"name":"agreedPrice","type":"uint64","indexed":false,"internalType":"uint64"},{"name":"winner","type":"address","indexed":false,"internalType":"address"},{"name":"timestamp","type":"uint256","indexed":false,"internalType":"uint256"}],"anonymous":false},{"type":"event","name":"BidSubmitted","inputs":[{"name":"auctionId","type":"bytes32","indexed":true,"internalType":"bytes32"},{"name":"bidder","type":"address","indexed":true,"internalType":"address"},{"name":"bidIndex","type":"uint8","indexed":false,"internalType":"uint8"},{"name":"timestamp","type":"uint256","indexed":false,"internalType":"uint256"}],"anonymous":false},{"type":"error","name":"InvalidEncryptedInput","inputs":[{"name":"got","type":"uint8","internalType":"uint8"},{"name":"expected","type":"uint8","internalType":"uint8"}]},{"type":"error","name":"SecurityZoneOutOfBounds","inputs":[{"name":"value","type":"int32","internalType":"int32"}]}],"bytecode":{"object":"0x608080604052346015576123cc908161001a8239f35b5f80fdfe6080806040526004361015610012575f80fd5b5f3560e01c90816302acc4001461188657508063043c55d1146117f55780631053a3ab1461173e57806315659dde1461171457806324b52c4d146115245780632a6433be146114ec5780632d2a25e114610e21578063377e89e214610d4e5780633c55358614610c4c5780634b296c8b14610c1a57806361132217146109715780637a5a69e314610942578063ad0ea07b1461071f578063bf9fc26c14610636578063c30998ee146102ae578063c44e664014610291578063d22932bb1461025e578063db5aabc5146101a3578063e3b5e0ff1461012b5763f3db82aa146100f8575f80fd5b34610127576020366003190112610127576004355f526005602052602060ff60405f2054166040519015158152f35b5f80fd5b3461012757602036600319011261012757600480355f908152602091825260408082205460058452818320546006855282842054600786529383902054835160ff93841615158152919092161515948101949094526001600160401b0392909216908301526001600160a01b03166060820152608090f35b34610127576020366003190112610127576001600160a01b036101c46118b1565b165f52600860205260405f2080546101db816119d0565b916101e960405193846119af565b81835260208301905f5260205f205f915b838310610213576040518061020f87826118c7565b0390f35b6004602060019260405161022681611994565b85548152848060a01b038587015416838201526002860154604082015260ff60038701541660608201528152019201920191906101fa565b34610127576020366003190112610127576004355f52600660205260206001600160401b0360405f205416604051908152f35b34610127575f366003190112610127576020600354604051908152f35b34610127576040366003190112610127576004356024356001600160401b038111610127576080600319823603011261012757815f5260026020526102f960ff60405f205416611a61565b815f525f60205260405f2060058101549060ff8260081c166005811015610622576001036105dd576004810154421161059857546001600160a01b0316331461055457825f52600160205260ff60405f205491161115610519575f8281526001602052604081208054915b8281106104b1578461038161037c3660048801611bf4565b61207d565b61038a816121a8565b6103938161203b565b815f52600160205260405f2060405190606082018281106001600160401b0382111761049d576040523382526020820192835260408201904282528054600160401b81101561049d576103eb9160018201815561197b565b93909361048a5760029260018060a01b039060018060a01b03905116166001600160601b0360a01b85541617845551600184015551910155805f52600160205260405f2054905f198201918211610476576040805160ff93909316835242602084015233927f95d2990ec1db8f8ed40c6bcb5ee7ee3b823c247bab5c74b812815ad5baffa4b59190a3005b634e487b7160e01b5f52601160045260245ffd5b634e487b7160e01b5f525f60045260245ffd5b634e487b7160e01b5f52604160045260245ffd5b6104bb818361197b565b50546001600160a01b031633146104d457600101610364565b60405162461bcd60e51b815260206004820152601760248201527f416c7265616479207375626d69747465642061206269640000000000000000006044820152606490fd5b60405162461bcd60e51b815260206004820152601360248201527213585e08189a5919195c9cc81c995858da1959606a1b6044820152606490fd5b606460405162461bcd60e51b815260206004820152602060248201527f53656c6c65722063616e6e6f7420626964206f6e206f776e2061756374696f6e6044820152fd5b60405162461bcd60e51b815260206004820152601860248201527f42696464696e6720706572696f642068617320656e64656400000000000000006044820152606490fd5b60405162461bcd60e51b815260206004820152601a60248201527f41756374696f6e206e6f7420616363657074696e6720626964730000000000006044820152606490fd5b634e487b7160e01b5f52602160045260245ffd5b3461012757602036600319011261012757600480355f908152602081815260408083208054600580830154600384015484890154600290950154600188528689205499885286892054848952878a205460068a52888b20546007909a52998890205497516001600160a01b039687168152929a929995909716976001600160401b03169660ff958616969086169592831694600885901c8416949390921691841015610622576101609a60ff9460208c015260408b015260608a015260808901521660a087015260c0860152151560e08501521515610100840152610120830152610140820152f35b34610127576040366003190112610127576004356024356001600160401b0381116101275736602382011215610127578060040135916001600160401b038311610127576024820191602436918560051b01011161012757805f52600260205261078f60ff60405f205416611a61565b805f525f6020526107ad60018060a01b0360405f2054163314611aa6565b821561090457600a83116108c957805f525f60205260ff600260405f2001541691604051926107db84611994565b82845233602085015242604085015260608401525f5b8481106107fa57005b600190610824336001600160a01b0361081c610817858b89611ca1565b611cb1565b161415611af2565b610843828060a01b0361083b610817848a88611ca1565b161515611b37565b818060a01b03610857610817838987611ca1565b165f52600860205261086c8560405f20611b77565b335f5260096020526108818560405f20611b77565b818060a01b03610895610817838987611ca1565b16604051428152857ffd926112f0aa39375860ab312c3131f854e3cf605e336ee3cc868f94209b46ee60203393a4016107f1565b60405162461bcd60e51b8152602060048201526013602482015272546f6f206d616e7920726563697069656e747360681b6044820152606490fd5b60405162461bcd60e51b8152602060048201526016602482015275139bc81c9958da5c1a595b9d1cc81c1c9bdd9a59195960521b6044820152606490fd5b34610127576020366003190112610127576004355f526002602052602060ff60405f2054166040519015158152f35b346101275760a0366003190112610127576024356004356001600160401b0382116101275760806003198336030112610127576044359160ff8316809303610127576064356084359160ff831680930361012757835f52600260205260ff60405f205416610bdc5742821115610b975760038511610b5257600283101580610b47575b15610b02575f84815260208190526040902080546001600160a01b03191633178155610a7a91600590610a2f9061037c903690600401611bf4565b6001830190815560028301805460ff191689179055426003840155600483018590559101805461ff0019861661ffff19909116176101001790558054610a74906121a8565b5461203b565b600354600160401b81101561049d57806001610a99920160035561192f565b81549060031b9085821b915f19901b1916179055825f52600260205260405f20600160ff19825416179055604051938452602084015260408301524260608301527f8390a1cc6e9511fdf043189e02ed11aed321a4e7058bb9508dd420f41656adab60803393a3005b60405162461bcd60e51b815260206004820152601860248201527f4d61782062696464657273206d75737420626520322d313000000000000000006044820152606490fd5b50600a8311156109f4565b60405162461bcd60e51b815260206004820152601860248201527f496e76616c6964206e65676f74696174696f6e207479706500000000000000006044820152606490fd5b60405162461bcd60e51b815260206004820152601e60248201527f446561646c696e65206d75737420626520696e207468652066757475726500006044820152606490fd5b60405162461bcd60e51b815260206004820152601660248201527541756374696f6e20616c72656164792065786973747360501b6044820152606490fd5b34610127576020366003190112610127576004355f526007602052602060018060a01b0360405f205416604051908152f35b34610127576040366003190112610127576024356001600160a01b038116906004359082900361012757805f526002602052610c8e60ff60405f205416611a61565b805f525f602052610cac60018060a01b0360405f2054163314611aa6565b610cb833831415611af2565b610cc3821515611b37565b805f525f602052610d1f60ff600260405f2001541660405190610ce582611994565b8382523360208301524260408301526060820152835f526008602052610d0e8160405f20611b77565b335f52600960205260405f20611b77565b604051904282527ffd926112f0aa39375860ab312c3131f854e3cf605e336ee3cc868f94209b46ee60203393a4005b3461012757602036600319011261012757600435805f525f60205260018060a01b0360405f20541633148015610dcb575b610d88906119e7565b5f525f60205260405f2060ff600582015460081c1690600582101561062257610db5600360409314611a27565b6006600782015491015482519182526020820152f35b5f828152600160205260408120805492915b838110610dee575b50509050610d7f565b610df8818361197b565b50546001600160a01b03163314610e1157600101610ddd565b50505050610d8860018380610de5565b3461012757602036600319011261012757600435805f525f60205260405f2060058101805460ff8160081c166005811015610622576001036114b05760048301544211908115611495575b501561145b57825f52600160205260405f2091825492831561142257825461ff0019166102001783556001610ea082611969565b500154926001610eaf83611969565b50015493610ec36001850195865490611cc5565b604095909490600160205b89821061129357505054828115611283575b1561126e575b610f5090875193610ef86060866119af565b6002855260409182366020880137610f0f86612285565b52610f1985612292565b5260208094895190610f2b83836119af565b5f82525f3681378a51631888debd60e01b815294859283926008600560048601612255565b03815f73ea30c4b8b44078bbf8a6ef5b9f1ec1626c7848d95af1918215611264575f92611235575b50610fe8848951610f8982826119af565b5f81525f3681378a5190610f9e6080836119af565b60038252606036848401376002610fb483612285565b526005610fc083612292565b525f610fcb836122a2565b528b51631888debd60e01b8152938492839260056004850161221d565b03815f73ea30c4b8b44078bbf8a6ef5b9f1ec1626c7848d95af190811561122b57908592915f916111f8575b50611084938181156111e8575b156111d8575b8a51926110356060856119af565b60028452368585013761104783612285565b5261105182612292565b5288519061105f83836119af565b5f82525f3681378951631888debd60e01b81529384928392600d600560048601612255565b03815f73ea30c4b8b44078bbf8a6ef5b9f1ec1626c7848d95af19283156111ce575f9361119a575b50611118926110c591506110be612323565b9087611ef1565b6006820195865560078201908155835461ff00191661030017909355845481546110fb916001600160a01b039190911690611fc0565b611105855461203b565b825490546001600160a01b031690611fc0565b611122815461203b565b5f5b85811061116357845160ff8716815242602082015287907f0d554559f7b26f735203c770d2e7ac5d18d54fba70e316ea5dca4709ed583a2490604090a2005b6001906111858554611175838761197b565b50848060a01b0390541690611fc0565b6111948354611175838761197b565b01611124565b90809350813d83116111c7575b6111b181836119af565b81010312610127576110c56111189251926110ac565b503d6111a7565b87513d5f823e3d90fd5b90506111e2612323565b90611027565b90506111f2612323565b90611021565b83819492503d8311611224575b61120f81836119af565b81010312610127579051849190611084611014565b503d611205565b89513d5f823e3d90fd5b9091508381813d831161125d575b61124d81836119af565b810103126101275751908a610f78565b503d611243565b88513d5f823e3d90fd5b9150610f5061127b612323565b929050610ee6565b905061128d612323565b90610ee0565b9096936112b060016112a58a8a61197b565b500154845490611cc5565b6113406112cb8360016112c38d8d61197b565b500154611cc5565b8b888915611413575b8151906112e183836119af565b60018252873660208401376112f582612285565b52602093849161135284519461130b85876119af565b5f86525f36813751631888debd60e01b81525f6004820152600c602482015260806044820152948593849360848501906121ea565b838103600319016064850152906121ea565b03815f73ea30c4b8b44078bbf8a6ef5b9f1ec1626c7848d95af192831561140957918b93918d935f936113cd575b50509260016113b66113bf946113b08399956113aa6113a38b9a6113c59c611dbd565b918a611dbd565b90611e57565b9361197b565b50015490611ef1565b96611e57565b970190610ece565b9250949350915083813d8311611402575b6113e881836119af565b81010312610127579151909189918b9160016113b6611380565b503d6113de565b8d513d5f823e3d90fd5b5061141d5f6122b2565b6112d4565b60405162461bcd60e51b8152602060048201526011602482015270139bc8189a591cc81cdd589b5a5d1d1959607a1b6044820152606490fd5b60405162461bcd60e51b81526020600482015260126024820152712134b23234b7339039ba34b6361037b832b760711b6044820152606490fd5b9050835f52600160205260ff60405f20549116111584610e6c565b60405162461bcd60e51b81526020600482015260146024820152734e6f7420696e2062696464696e6720706861736560601b6044820152606490fd5b34610127576020366003190112610127576004356003548110156101275761151560209161192f565b90549060031b1c604051908152f35b3461012757608036600319011261012757600435602435801515809103610127576044356001600160401b038116809103610127576064356001600160a01b038116929083900361012757835f525f60205260018060a01b0360405f205416331480156116b4575b611595906119e7565b835f525f60205260ff600560405f20015460081c1660058110156106225760036115bf9114611a27565b835f52600460205260ff60405f20541661167b577fc145e6db0a57dd4480f8ae12c8ad01faa5900836674258af8a72db06e95596de92608092855f52600460205260405f20600160ff19825416179055855f52600560205260405f2060ff1981541660ff8516179055855f52600660205260405f20816001600160401b0319825416179055855f52600760205260405f20826001600160601b0360a01b82541617905560405192835260208301526040820152426060820152a2005b60405162461bcd60e51b8152602060048201526011602482015270105b1c9958591e481c1d589b1a5cda1959607a1b6044820152606490fd5b5f858152600160205260408120805495949392915b8681106116dd575b5050909192935061158c565b6116e7818361197b565b50546001600160a01b03163314611700576001016116c9565b5093945084935060019050611595876116d1565b34610127576020366003190112610127576004355f526001602052602060405f2054604051908152f35b34610127576020366003190112610127576001600160a01b0361175f6118b1565b165f52600960205260405f208054611776816119d0565b9161178460405193846119af565b81835260208301905f5260205f205f915b8383106117aa576040518061020f87826118c7565b600460206001926040516117bd81611994565b85548152848060a01b038587015416838201526002860154604082015260ff6003870154166060820152815201920192019190611795565b346101275760403660031901126101275760043560243590805f52600160205260405f205482101561184b57602091611837915f526001835260405f2061197b565b50546040516001600160a01b039091168152f35b60405162461bcd60e51b8152602060048201526013602482015272496e646578206f7574206f6620626f756e647360681b6044820152606490fd5b34610127576020366003190112610127576020906004355f526004825260ff60405f20541615158152f35b600435906001600160a01b038216820361012757565b60206040818301928281528451809452019201905f5b8181106118ea5750505090565b8251805185526020818101516001600160a01b0316818701526040808301519087015260609182015160ff1691860191909152608090940193909201916001016118dd565b6003548110156119475760035f5260205f2001905f90565b634e487b7160e01b5f52603260045260245ffd5b359060ff8216820361012757565b805415611947575f5260205f20905f90565b8054821015611947575f52600360205f20910201905f90565b608081019081106001600160401b0382111761049d57604052565b90601f801991011681019081106001600160401b0382111761049d57604052565b6001600160401b03811161049d5760051b60200190565b156119ee57565b60405162461bcd60e51b8152602060048201526011602482015270139bdd0818481c185c9d1a58da5c185b9d607a1b6044820152606490fd5b15611a2e57565b60405162461bcd60e51b815260206004820152600b60248201526a139bdd081cd95d1d1b195960aa1b6044820152606490fd5b15611a6857565b60405162461bcd60e51b8152602060048201526016602482015275105d58dd1a5bdb88191bd95cc81b9bdd08195e1a5cdd60521b6044820152606490fd5b15611aad57565b60405162461bcd60e51b815260206004820152601c60248201527f4f6e6c792073656c6c65722063616e2073656e6420696e7669746573000000006044820152606490fd5b15611af957565b60405162461bcd60e51b815260206004820152601660248201527521b0b73737ba1034b73b34ba32903cb7bab939b2b63360511b6044820152606490fd5b15611b3e57565b60405162461bcd60e51b8152602060048201526011602482015270125b9d985b1a59081c9958da5c1a595b9d607a1b6044820152606490fd5b805490600160401b82101561049d57600182018082558210156119475760ff606081936003935f5260205f209060021b01948051865560018060a01b03602082015116600187019060018060a01b03166001600160601b0360a01b825416179055604081015160028701550151169201911660ff19825416179055565b919060808382031261012757604051611c0c81611994565b809380358252611c1e6020820161195b565b6020830152611c2f6040820161195b565b60408301526060810135906001600160401b03821161012757019082601f830112156101275781356001600160401b03811161049d5760405193611c7d601f8301601f1916602001866119af565b81855260208285010111610127576020815f92826060960183880137850101520152565b91908110156119475760051b0190565b356001600160a01b03811681036101275790565b908115611dad575b8015611d9f575b60405191611ce36060846119af565b600283526040366020850137611cf883612285565b52611d0282612292565b52611d3e6020809260405190611d1883836119af565b5f82525f368137604051631888debd60e01b815293849283926012600560048601612255565b03815f73ea30c4b8b44078bbf8a6ef5b9f1ec1626c7848d95af1918215611d94575f92611d6a57505090565b90809250813d8311611d8d575b611d8181836119af565b81010312610127575190565b503d611d77565b6040513d5f823e3d90fd5b50611da8612323565b611cd4565b9050611db7612323565b90611ccd565b908115611e45575b8015611e35575b60405191611ddb6060846119af565b600283526040366020850137611df083612285565b52611dfa82612292565b52611d3e6020809260405190611e1083836119af565b5f82525f368137604051631888debd60e01b81529384928392600a5f60048601612255565b50611e4060016122b2565b611dcc565b9050611e5160016122b2565b90611dc5565b908115611edf575b8015611ecf575b60405191611e756060846119af565b600283526040366020850137611e8a83612285565b52611e9482612292565b52611d3e6020809260405190611eaa83836119af565b5f82525f368137604051631888debd60e01b81529384928392600b5f60048601612255565b50611eda60016122b2565b611e66565b9050611eeb60016122b2565b90611e5f565b91908215611faf575b8015611fa1575b8115611f91575b60405192611f176080856119af565b600384526060366020860137611f2c84612285565b52611f3683612292565b52611f40826122a2565b526020908161134060405192611f5683856119af565b5f84525f368137611d3e6040519485938493631888debd60e01b855260056004860152600460248601526080604486015260848501906121ea565b9050611f9b612323565b90611f08565b50611faa612323565b611f01565b9150611fba5f6122b2565b91611efa565b73ea30c4b8b44078bbf8a6ef5b9f1ec1626c7848d93b1561012757604051631974142760e21b815260048101919091526001600160a01b0390911660248201525f8180604481015b03818373ea30c4b8b44078bbf8a6ef5b9f1ec1626c7848d95af18015611d945761202f5750565b5f612039916119af565b565b73ea30c4b8b44078bbf8a6ef5b9f1ec1626c7848d93b1561012757604051631974142760e21b815260048101919091523060248201525f818060448101612008565b60ff604082015116600581036121915750602060ff916060806040516120a281611994565b5f81525f858201525f6040820152015260e48151836060868286015116940151604051926120cf84611994565b83528183019485528660408401600581526060850192835260405198899788966313fce3b160e11b885260406004890152516044880152511660648601525116608484015251608060a484015280519182918260c4860152018484015e5f838284010152336024830152601f801991011681010301815f73ea30c4b8b44078bbf8a6ef5b9f1ec1626c7848d95af1908115611d94575f9161216e575090565b90506020813d602011612189575b81611d81602093836119af565b3d915061217c565b6367cf307160e01b5f52600452600560245260445ffd5b73ea30c4b8b44078bbf8a6ef5b9f1ec1626c7848d93b1561012757604051631974142760e21b815260048101919091523360248201525f818060448101612008565b90602080835192838152019201905f5b8181106122075750505090565b82518452602093840193909201916001016121fa565b916122449060ff6122529593168452601a60208501526080604085015260808401906121ea565b9160608184039101526121ea565b90565b9293919060ff168352602081101561062257612252936122449160208501526080604085015260808401906121ea565b8051156119475760200190565b8051600110156119475760400190565b8051600210156119475760600190565b611d3e602080926040516122c683826119af565b5f81525f368137604051916122dc6080846119af565b60038352606036858501376122f083612285565b525f6122fb83612292565b525f612306836122a2565b52604051631888debd60e01b815293849283925f6004850161221d565b6020611d3e8160405161233682826119af565b5f81525f3681376040519061234c6080836119af565b60038252606036848401375f61236183612285565b52600561236d83612292565b525f612378836122a2565b52604051631888debd60e01b8152938492839260056004850161221d56fea2646970667358221220b4e9ed78437381b5604630b583b38ff64157dfea9220a15e32b139a39d39d5a764736f6c634300081a0033","linkReferences":{}},"methodIdentifiers":{"auctionExists(bytes32)":"7a5a69e3","auctionIds(uint256)":"2a6433be","computeAuction(bytes32)":"2d2a25e1","createAuction(bytes32,(uint256,uint8,uint8,bytes),uint8,uint256,uint8)":"61132217","getAuctionCount()":"c44e6640","getAuctionInfo(bytes32)":"bf9fc26c","getBidCount(bytes32)":"15659dde","getBidder(bytes32,uint256)":"043c55d1","getEncryptedResult(bytes32)":"377e89e2","getPublishedResult(bytes32)":"e3b5e0ff","getReceivedInvites(address)":"db5aabc5","getSentInvites(address)":"1053a3ab","matchResult(bytes32)":"f3db82aa","publishResult(bytes32,bool,uint64,address)":"24b52c4d","publishedPrice(bytes32)":"d22932bb","publishedWinner(bytes32)":"4b296c8b","resultPublished(bytes32)":"02acc400","sendBatchInvites(bytes32,address[])":"ad0ea07b","sendInvite(bytes32,address)":"3c553586","submitBid(bytes32,(uint256,uint8,uint8,bytes))":"c30998ee"},"id":8}