{"abi":[{"type":"function","name":"auctionExists","inputs":[{"name":"","type":"bytes32","internalType":"bytes32"}],"outputs":[{"name":"","type":"bool","internalType":"bool"}],"stateMutability":"view"},{"type":"function","name":"auctionIds","inputs":[{"name":"","type":"uint256","internalType":"uint256"}],"outputs":[{"name":"","type":"bytes32","internalType":"bytes32"}],"stateMutability":"view"},{"type":"function","name":"computeAuction","inputs":[{"name":"auctionId","type":"bytes32","internalType":"bytes32"}],"outputs":[],"stateMutability":"nonpayable"},{"type":"function","name":"createAuction","inputs":[{"name":"auctionId","type":"bytes32","internalType":"bytes32"},{"name":"encFloor","type":"tuple","internalType":"struct InEuint64","components":[{"name":"ctHash","type":"uint256","internalType":"uint256"},{"name":"securityZone","type":"uint8","internalType":"uint8"},{"name":"utype","type":"uint8","internalType":"uint8"},{"name":"signature","type":"bytes","internalType":"bytes"}]},{"name":"nType","type":"uint8","internalType":"uint8"},{"name":"deadline","type":"uint256","internalType":"uint256"},{"name":"maxBidders","type":"uint8","internalType":"uint8"}],"outputs":[],"stateMutability":"nonpayable"},{"type":"function","name":"getAuctionCount","inputs":[],"outputs":[{"name":"","type":"uint256","internalType":"uint256"}],"stateMutability":"view"},{"type":"function","name":"getAuctionInfo","inputs":[{"name":"auctionId","type":"bytes32","internalType":"bytes32"}],"outputs":[{"name":"seller","type":"address","internalType":"address"},{"name":"status","type":"uint8","internalType":"enum MultiPartyAuction.AuctionStatus"},{"name":"createdAt","type":"uint256","internalType":"uint256"},{"name":"deadline","type":"uint256","internalType":"uint256"},{"name":"negotiationType","type":"uint8","internalType":"uint8"},{"name":"maxBidders","type":"uint8","internalType":"uint8"},{"name":"currentBids","type":"uint8","internalType":"uint8"},{"name":"isResultPublished","type":"bool","internalType":"bool"},{"name":"matched","type":"bool","internalType":"bool"},{"name":"agreedPrice","type":"uint64","internalType":"uint64"},{"name":"winner","type":"address","internalType":"address"}],"stateMutability":"view"},{"type":"function","name":"getBidCount","inputs":[{"name":"auctionId","type":"bytes32","internalType":"bytes32"}],"outputs":[{"name":"","type":"uint256","internalType":"uint256"}],"stateMutability":"view"},{"type":"function","name":"getBidder","inputs":[{"name":"auctionId","type":"bytes32","internalType":"bytes32"},{"name":"index","type":"uint256","internalType":"uint256"}],"outputs":[{"name":"","type":"address","internalType":"address"}],"stateMutability":"view"},{"type":"function","name":"getEncryptedResult","inputs":[{"name":"auctionId","type":"bytes32","internalType":"bytes32"}],"outputs":[{"name":"encAgreedPrice","type":"bytes32","internalType":"euint64"},{"name":"encHasWinner","type":"bytes32","internalType":"ebool"},{"name":"encWinnerIndex","type":"bytes32","internalType":"euint32"}],"stateMutability":"view"},{"type":"function","name":"getPublishedResult","inputs":[{"name":"auctionId","type":"bytes32","internalType":"bytes32"}],"outputs":[{"name":"isPublished","type":"bool","internalType":"bool"},{"name":"matched","type":"bool","internalType":"bool"},{"name":"agreedPrice","type":"uint64","internalType":"uint64"},{"name":"winner","type":"address","internalType":"address"}],"stateMutability":"view"},{"type":"function","name":"getReceivedInvites","inputs":[{"name":"recipient","type":"address","internalType":"address"}],"outputs":[{"name":"","type":"tuple[]","internalType":"struct MultiPartyAuction.Invite[]","components":[{"name":"auctionId","type":"bytes32","internalType":"bytes32"},{"name":"sender","type":"address","internalType":"address"},{"name":"timestamp","type":"uint256","internalType":"uint256"},{"name":"negotiationType","type":"uint8","internalType":"uint8"}]}],"stateMutability":"view"},{"type":"function","name":"getSentInvites","inputs":[{"name":"sender","type":"address","internalType":"address"}],"outputs":[{"name":"","type":"tuple[]","internalType":"struct MultiPartyAuction.Invite[]","components":[{"name":"auctionId","type":"bytes32","internalType":"bytes32"},{"name":"sender","type":"address","internalType":"address"},{"name":"timestamp","type":"uint256","internalType":"uint256"},{"name":"negotiationType","type":"uint8","internalType":"uint8"}]}],"stateMutability":"view"},{"type":"function","name":"matchResult","inputs":[{"name":"","type":"bytes32","internalType":"bytes32"}],"outputs":[{"name":"","type":"bool","internalType":"bool"}],"stateMutability":"view"},{"type":"function","name":"publishResult","inputs":[{"name":"auctionId","type":"bytes32","internalType":"bytes32"},{"name":"_matched","type":"bool","internalType":"bool"},{"name":"_agreedPrice","type":"uint64","internalType":"uint64"},{"name":"_winner","type":"address","internalType":"address"}],"outputs":[],"stateMutability":"nonpayable"},{"type":"function","name":"publishedPrice","inputs":[{"name":"","type":"bytes32","internalType":"bytes32"}],"outputs":[{"name":"","type":"uint64","internalType":"uint64"}],"stateMutability":"view"},{"type":"function","name":"publishedWinner","inputs":[{"name":"","type":"bytes32","internalType":"bytes32"}],"outputs":[{"name":"","type":"address","internalType":"address"}],"stateMutability":"view"},{"type":"function","name":"resultPublished","inputs":[{"name":"","type":"bytes32","internalType":"bytes32"}],"outputs":[{"name":"","type":"bool","internalType":"bool"}],"stateMutability":"view"},{"type":"function","name":"sendBatchInvites","inputs":[{"name":"auctionId","type":"bytes32","internalType":"bytes32"},{"name":"recipients","type":"address[]","internalType":"address[]"}],"outputs":[],"stateMutability":"nonpayable"},{"type":"function","name":"sendInvite","inputs":[{"name":"auctionId","type":"bytes32","internalType":"bytes32"},{"name":"recipient","type":"address","internalType":"address"}],"outputs":[],"stateMutability":"nonpayable"},{"type":"function","name":"submitBid","inputs":[{"name":"auctionId","type":"bytes32","internalType":"bytes32"},{"name":"encCeiling","type":"tuple","internalType":"struct InEuint64","components":[{"name":"ctHash","type":"uint256","internalType":"uint256"},{"name":"securityZone","type":"uint8","internalType":"uint8"},{"name":"utype","type":"uint8","internalType":"uint8"},{"name":"signature","type":"bytes","internalType":"bytes"}]}],"outputs":[],"stateMutability":"nonpayable"},{"type":"event","name":"AuctionComputed","inputs":[{"name":"auctionId","type":"bytes32","indexed":true,"internalType":"bytes32"},{"name":"totalBids","type":"uint8","indexed":false,"internalType":"uint8"},{"name":"timestamp","type":"uint256","indexed":false,"internalType":"uint256"}],"anonymous":false},{"type":"event","name":"AuctionCreated","inputs":[{"name":"auctionId","type":"bytes32","indexed":true,"internalType":"bytes32"},{"name":"seller","type":"address","indexed":true,"internalType":"address"},{"name":"nType","type":"uint8","indexed":false,"internalType":"uint8"},{"name":"deadline","type":"uint256","indexed":false,"internalType":"uint256"},{"name":"maxBidders","type":"uint8","indexed":false,"internalType":"uint8"},{"name":"timestamp","type":"uint256","indexed":false,"internalType":"uint256"}],"anonymous":false},{"type":"event","name":"AuctionInviteSent","inputs":[{"name":"auctionId","type":"bytes32","indexed":true,"internalType":"bytes32"},{"name":"sender","type":"address","indexed":true,"internalType":"address"},{"name":"recipient","type":"address","indexed":true,"internalType":"address"},{"name":"timestamp","type":"uint256","indexed":false,"internalType":"uint256"}],"anonymous":false},{"type":"event","name":"AuctionResultPublished","inputs":[{"name":"auctionId","type":"bytes32","indexed":true,"internalType":"bytes32"},{"name":"matched","type":"bool","indexed":false,"internalType":"bool"},{"name":"agreedPrice","type":"uint64","indexed":false,"internalType":"uint64"},{"name":"winner","type":"address","indexed":false,"internalType":"address"},{"name":"timestamp","type":"uint256","indexed":false,"internalType":"uint256"}],"anonymous":false},{"type":"event","name":"BidSubmitted","inputs":[{"name":"auctionId","type":"bytes32","indexed":true,"internalType":"bytes32"},{"name":"bidder","type":"address","indexed":true,"internalType":"address"},{"name":"bidIndex","type":"uint8","indexed":false,"internalType":"uint8"},{"name":"timestamp","type":"uint256","indexed":false,"internalType":"uint256"}],"anonymous":false},{"type":"error","name":"InvalidEncryptedInput","inputs":[{"name":"got","type":"uint8","internalType":"uint8"},{"name":"expected","type":"uint8","internalType":"uint8"}]},{"type":"error","name":"SecurityZoneOutOfBounds","inputs":[{"name":"value","type":"int32","internalType":"int32"}]}],"bytecode":{"object":"0x6080806040523460155761267c908161001a8239f35b5f80fdfe6080806040526004361015610012575f80fd5b5f3560e01c90816302acc40014611ab457508063043c55d114611a235780631053a3ab1461196c57806315659dde1461194257806324b52c4d146117525780632a6433be1461171a5780632d2a25e114610e2e578063377e89e214610d4e5780633c55358614610c4c5780634b296c8b14610c1a57806361132217146109715780637a5a69e314610942578063ad0ea07b1461071f578063bf9fc26c14610636578063c30998ee146102ae578063c44e664014610291578063d22932bb1461025e578063db5aabc5146101a3578063e3b5e0ff1461012b5763f3db82aa146100f8575f80fd5b34610127576020366003190112610127576004355f526005602052602060ff60405f2054166040519015158152f35b5f80fd5b3461012757602036600319011261012757600480355f908152602091825260408082205460058452818320546006855282842054600786529383902054835160ff93841615158152919092161515948101949094526001600160401b0392909216908301526001600160a01b03166060820152608090f35b34610127576020366003190112610127576001600160a01b036101c4611adf565b165f52600860205260405f2080546101db81611bfe565b916101e96040519384611bdd565b81835260208301905f5260205f205f915b838310610213576040518061020f8782611af5565b0390f35b6004602060019260405161022681611bc2565b85548152848060a01b038587015416838201526002860154604082015260ff60038701541660608201528152019201920191906101fa565b34610127576020366003190112610127576004355f52600660205260206001600160401b0360405f205416604051908152f35b34610127575f366003190112610127576020600354604051908152f35b34610127576040366003190112610127576004356024356001600160401b038111610127576080600319823603011261012757815f5260026020526102f960ff60405f205416611c8f565b815f525f60205260405f2060058101549060ff8260081c166005811015610622576001036105dd576004810154421161059857546001600160a01b0316331461055457825f52600160205260ff60405f205491161115610519575f8281526001602052604081208054915b8281106104b1578461038161037c3660048801611e22565b612294565b61038a816123bf565b61039381612252565b815f52600160205260405f2060405190606082018281106001600160401b0382111761049d576040523382526020820192835260408201904282528054600160401b81101561049d576103eb91600182018155611ba9565b93909361048a5760029260018060a01b039060018060a01b03905116166001600160601b0360a01b85541617845551600184015551910155805f52600160205260405f2054905f198201918211610476576040805160ff93909316835242602084015233927f95d2990ec1db8f8ed40c6bcb5ee7ee3b823c247bab5c74b812815ad5baffa4b59190a3005b634e487b7160e01b5f52601160045260245ffd5b634e487b7160e01b5f525f60045260245ffd5b634e487b7160e01b5f52604160045260245ffd5b6104bb8183611ba9565b50546001600160a01b031633146104d457600101610364565b60405162461bcd60e51b815260206004820152601760248201527f416c7265616479207375626d69747465642061206269640000000000000000006044820152606490fd5b60405162461bcd60e51b815260206004820152601360248201527213585e08189a5919195c9cc81c995858da1959606a1b6044820152606490fd5b606460405162461bcd60e51b815260206004820152602060248201527f53656c6c65722063616e6e6f7420626964206f6e206f776e2061756374696f6e6044820152fd5b60405162461bcd60e51b815260206004820152601860248201527f42696464696e6720706572696f642068617320656e64656400000000000000006044820152606490fd5b60405162461bcd60e51b815260206004820152601a60248201527f41756374696f6e206e6f7420616363657074696e6720626964730000000000006044820152606490fd5b634e487b7160e01b5f52602160045260245ffd5b3461012757602036600319011261012757600480355f908152602081815260408083208054600580830154600384015484890154600290950154600188528689205499885286892054848952878a205460068a52888b20546007909a52998890205497516001600160a01b039687168152929a929995909716976001600160401b03169660ff958616969086169592831694600885901c8416949390921691841015610622576101609a60ff9460208c015260408b015260608a015260808901521660a087015260c0860152151560e08501521515610100840152610120830152610140820152f35b34610127576040366003190112610127576004356024356001600160401b0381116101275736602382011215610127578060040135916001600160401b038311610127576024820191602436918560051b01011161012757805f52600260205261078f60ff60405f205416611c8f565b805f525f6020526107ad60018060a01b0360405f2054163314611cd4565b821561090457600a83116108c957805f525f60205260ff600260405f2001541691604051926107db84611bc2565b82845233602085015242604085015260608401525f5b8481106107fa57005b600190610824336001600160a01b0361081c610817858b89611ecf565b611edf565b161415611d20565b610843828060a01b0361083b610817848a88611ecf565b161515611d65565b818060a01b03610857610817838987611ecf565b165f52600860205261086c8560405f20611da5565b335f5260096020526108818560405f20611da5565b818060a01b03610895610817838987611ecf565b16604051428152857ffd926112f0aa39375860ab312c3131f854e3cf605e336ee3cc868f94209b46ee60203393a4016107f1565b60405162461bcd60e51b8152602060048201526013602482015272546f6f206d616e7920726563697069656e747360681b6044820152606490fd5b60405162461bcd60e51b8152602060048201526016602482015275139bc81c9958da5c1a595b9d1cc81c1c9bdd9a59195960521b6044820152606490fd5b34610127576020366003190112610127576004355f526002602052602060ff60405f2054166040519015158152f35b346101275760a0366003190112610127576024356004356001600160401b0382116101275760806003198336030112610127576044359160ff8316809303610127576064356084359160ff831680930361012757835f52600260205260ff60405f205416610bdc5742821115610b975760038511610b5257600183101580610b47575b15610b02575f84815260208190526040902080546001600160a01b03191633178155610a7a91600590610a2f9061037c903690600401611e22565b6001830190815560028301805460ff191689179055426003840155600483018590559101805461ff0019861661ffff19909116176101001790558054610a74906123bf565b54612252565b600354600160401b81101561049d57806001610a999201600355611b5d565b81549060031b9085821b915f19901b1916179055825f52600260205260405f20600160ff19825416179055604051938452602084015260408301524260608301527f8390a1cc6e9511fdf043189e02ed11aed321a4e7058bb9508dd420f41656adab60803393a3005b60405162461bcd60e51b815260206004820152601860248201527f4d61782062696464657273206d75737420626520312d313000000000000000006044820152606490fd5b50600a8311156109f4565b60405162461bcd60e51b815260206004820152601860248201527f496e76616c6964206e65676f74696174696f6e207479706500000000000000006044820152606490fd5b60405162461bcd60e51b815260206004820152601e60248201527f446561646c696e65206d75737420626520696e207468652066757475726500006044820152606490fd5b60405162461bcd60e51b815260206004820152601660248201527541756374696f6e20616c72656164792065786973747360501b6044820152606490fd5b34610127576020366003190112610127576004355f526007602052602060018060a01b0360405f205416604051908152f35b34610127576040366003190112610127576024356001600160a01b038116906004359082900361012757805f526002602052610c8e60ff60405f205416611c8f565b805f525f602052610cac60018060a01b0360405f2054163314611cd4565b610cb833831415611d20565b610cc3821515611d65565b805f525f602052610d1f60ff600260405f2001541660405190610ce582611bc2565b8382523360208301524260408301526060820152835f526008602052610d0e8160405f20611da5565b335f52600960205260405f20611da5565b604051904282527ffd926112f0aa39375860ab312c3131f854e3cf605e336ee3cc868f94209b46ee60203393a4005b3461012757602036600319011261012757600435805f525f60205260018060a01b0360405f20541633148015610dd8575b610d8890611c15565b5f525f60205260405f2060ff600582015460081c1690600582101561062257610db5600360609314611c55565b600781015490600860068201549101549060405192835260208301526040820152f35b5f828152600160205260408120805492915b838110610dfb575b50509050610d7f565b610e058183611ba9565b50546001600160a01b03163314610e1e57600101610dea565b50505050610d8860018380610df2565b3461012757602036600319011261012757600435805f525f60205260405f20600581015460ff8160081c166005811015610622576001036116de57600482015442119081156116c3575b501561168957815f52600160205260405f2080549182156116505760058101805461ff0019166102001790556001610eaf83611b97565b50015491610ecf6001610ec183611b97565b500154600184015490611ef3565b91610ed86124f0565b9060016040956080915b8881106112de575060018301548181156112ce575b156112ba575b875192610f6792610f0f606086611bdd565b6002855260409283366020880137610f26866124c3565b52610f30856124d0565b52602080948a5190610f428383611bdd565b5f82525f3681378b51631888debd60e01b815295869283926008600560048601612493565b03815f73ea30c4b8b44078bbf8a6ef5b9f1ec1626c7848d95af192831561127d579084915f94611287575b5090611004918a51610fa48382611bdd565b5f81525f3681378b5191610fb88184611bdd565b60038352601f190136848401376002610fd0836124c3565b526005610fdc836124d0565b525f610fe7836124e0565b528b51631888debd60e01b8152938492839260056004850161246c565b03815f73ea30c4b8b44078bbf8a6ef5b9f1ec1626c7848d95af190811561127d57908492915f9161124a575b506110a09381811561123a575b1561122a575b8a5192611051606085611bdd565b600284523685850137611063836124c3565b5261106d826124d0565b5288519061107b8383611bdd565b5f82525f3681378951631888debd60e01b81529384928392600d600560048601612493565b03815f73ea30c4b8b44078bbf8a6ef5b9f1ec1626c7848d95af1918215611220575f926111ee575b5061115d916110e191506110da6125d3565b908761211f565b60068301868155600784019182556008840194855560058401805461ff00191661030017905583549096919391611121916001600160a01b0316906121d7565b61112b8654612252565b611140835460018060a01b03835416906121d7565b61114a8354612252565b835490546001600160a01b0316906121d7565b6111678254612252565b5f5b8681106111a857855160ff8816815242602082015288907f0d554559f7b26f735203c770d2e7ac5d18d54fba70e316ea5dca4709ed583a2490604090a2005b6001906111ca86546111ba8388611ba9565b50848060a01b03905416906121d7565b6111d983546111ba8388611ba9565b6111e884546111ba8388611ba9565b01611169565b90809250813d8311611219575b6112058183611bdd565b8101031261012757516110e161115d6110c8565b503d6111fb565b87513d5f823e3d90fd5b90506112346125d3565b90611043565b90506112446125d3565b9061103d565b83819492503d8311611276575b6112618183611bdd565b810103126101275790518391906110a0611030565b503d611257565b89513d5f823e3d90fd5b8281939295503d83116112b3575b61129f8183611bdd565b810103126101275751918390611004610f92565b503d611295565b610f6791506112c76125d3565b9150610efd565b90506112d86125d3565b90610ef7565b959361139261130060016112f28a8a611ba9565b500154600187015490611ef3565b916113198460016113118c8c611ba9565b500154611ef3565b8a888915611641575b81519061132f8383611bdd565b60018252601f198301366020840137611347826124c3565b5260209485916113a484519461135d8587611bdd565b5f86525f36813751631888debd60e01b81525f6004820152600c6024820152604481018c905294859384936084850190612401565b83810360031901606485015290612401565b03815f73ea30c4b8b44078bbf8a6ef5b9f1ec1626c7848d95af1908115611608575f91611612575b506113ee906113e86113e16114049488611feb565b9187611feb565b90612085565b9460016113fb8c8c611ba9565b5001548661211f565b9361147b838b8d8051906114188483611bdd565b5f82525f36813763ffffffff8151936114318d86611bdd565b60038552601f198d01368787013716611449846124c3565b526004611455846124d0565b525f611460846124e0565b5251631888debd60e01b81529384928392600480850161246c565b03815f73ea30c4b8b44078bbf8a6ef5b9f1ec1626c7848d95af190811561160857908492915f916115d5575b5061152a9390818184156115c4575b156115b4575b156115a4575b8d51926114cf8a85611bdd565b60038452601f198a0136868601376114e6846124c3565b526114f0836124d0565b526114fa826124e0565b528b51906115088383611bdd565b5f82525f3681378c51631888debd60e01b815293849283926004808501612434565b03815f73ea30c4b8b44078bbf8a6ef5b9f1ec1626c7848d95af191821561159a575f9261156a575b505060019181611563925096612085565b9601610ee2565b90809250813d8311611593575b6115818183611bdd565b81010312610127575181611563611552565b503d611577565b8a513d5f823e3d90fd5b90506115ae6124f0565b906114c2565b90506115be6124f0565b906114bc565b93506115cf5f612562565b936114b6565b83819492503d8311611601575b6115ec8183611bdd565b8101031261012757905183919061152a6114a7565b503d6115e2565b8c513d5f823e3d90fd5b90508381813d831161163a575b6116298183611bdd565b8101031261012757516114046113cc565b503d61161f565b5061164b5f612562565b611322565b60405162461bcd60e51b8152602060048201526011602482015270139bc8189a591cc81cdd589b5a5d1d1959607a1b6044820152606490fd5b60405162461bcd60e51b81526020600482015260126024820152712134b23234b7339039ba34b6361037b832b760711b6044820152606490fd5b9050825f52600160205260ff60405f20549116111583610e78565b60405162461bcd60e51b81526020600482015260146024820152734e6f7420696e2062696464696e6720706861736560601b6044820152606490fd5b346101275760203660031901126101275760043560035481101561012757611743602091611b5d565b90549060031b1c604051908152f35b3461012757608036600319011261012757600435602435801515809103610127576044356001600160401b038116809103610127576064356001600160a01b038116929083900361012757835f525f60205260018060a01b0360405f205416331480156118e2575b6117c390611c15565b835f525f60205260ff600560405f20015460081c1660058110156106225760036117ed9114611c55565b835f52600460205260ff60405f2054166118a9577fc145e6db0a57dd4480f8ae12c8ad01faa5900836674258af8a72db06e95596de92608092855f52600460205260405f20600160ff19825416179055855f52600560205260405f2060ff1981541660ff8516179055855f52600660205260405f20816001600160401b0319825416179055855f52600760205260405f20826001600160601b0360a01b82541617905560405192835260208301526040820152426060820152a2005b60405162461bcd60e51b8152602060048201526011602482015270105b1c9958591e481c1d589b1a5cda1959607a1b6044820152606490fd5b5f858152600160205260408120805495949392915b86811061190b575b505090919293506117ba565b6119158183611ba9565b50546001600160a01b0316331461192e576001016118f7565b50939450849350600190506117c3876118ff565b34610127576020366003190112610127576004355f526001602052602060405f2054604051908152f35b34610127576020366003190112610127576001600160a01b0361198d611adf565b165f52600960205260405f2080546119a481611bfe565b916119b26040519384611bdd565b81835260208301905f5260205f205f915b8383106119d8576040518061020f8782611af5565b600460206001926040516119eb81611bc2565b85548152848060a01b038587015416838201526002860154604082015260ff60038701541660608201528152019201920191906119c3565b346101275760403660031901126101275760043560243590805f52600160205260405f2054821015611a7957602091611a65915f526001835260405f20611ba9565b50546040516001600160a01b039091168152f35b60405162461bcd60e51b8152602060048201526013602482015272496e646578206f7574206f6620626f756e647360681b6044820152606490fd5b34610127576020366003190112610127576020906004355f526004825260ff60405f20541615158152f35b600435906001600160a01b038216820361012757565b60206040818301928281528451809452019201905f5b818110611b185750505090565b8251805185526020818101516001600160a01b0316818701526040808301519087015260609182015160ff169186019190915260809094019390920191600101611b0b565b600354811015611b755760035f5260205f2001905f90565b634e487b7160e01b5f52603260045260245ffd5b359060ff8216820361012757565b805415611b75575f5260205f20905f90565b8054821015611b75575f52600360205f20910201905f90565b608081019081106001600160401b0382111761049d57604052565b90601f801991011681019081106001600160401b0382111761049d57604052565b6001600160401b03811161049d5760051b60200190565b15611c1c57565b60405162461bcd60e51b8152602060048201526011602482015270139bdd0818481c185c9d1a58da5c185b9d607a1b6044820152606490fd5b15611c5c57565b60405162461bcd60e51b815260206004820152600b60248201526a139bdd081cd95d1d1b195960aa1b6044820152606490fd5b15611c9657565b60405162461bcd60e51b8152602060048201526016602482015275105d58dd1a5bdb88191bd95cc81b9bdd08195e1a5cdd60521b6044820152606490fd5b15611cdb57565b60405162461bcd60e51b815260206004820152601c60248201527f4f6e6c792073656c6c65722063616e2073656e6420696e7669746573000000006044820152606490fd5b15611d2757565b60405162461bcd60e51b815260206004820152601660248201527521b0b73737ba1034b73b34ba32903cb7bab939b2b63360511b6044820152606490fd5b15611d6c57565b60405162461bcd60e51b8152602060048201526011602482015270125b9d985b1a59081c9958da5c1a595b9d607a1b6044820152606490fd5b805490600160401b82101561049d5760018201808255821015611b755760ff606081936003935f5260205f209060021b01948051865560018060a01b03602082015116600187019060018060a01b03166001600160601b0360a01b825416179055604081015160028701550151169201911660ff19825416179055565b919060808382031261012757604051611e3a81611bc2565b809380358252611e4c60208201611b89565b6020830152611e5d60408201611b89565b60408301526060810135906001600160401b03821161012757019082601f830112156101275781356001600160401b03811161049d5760405193611eab601f8301601f191660200186611bdd565b81855260208285010111610127576020815f92826060960183880137850101520152565b9190811015611b755760051b0190565b356001600160a01b03811681036101275790565b908115611fdb575b8015611fcd575b60405191611f11606084611bdd565b600283526040366020850137611f26836124c3565b52611f30826124d0565b52611f6c6020809260405190611f468383611bdd565b5f82525f368137604051631888debd60e01b815293849283926012600560048601612493565b03815f73ea30c4b8b44078bbf8a6ef5b9f1ec1626c7848d95af1918215611fc2575f92611f9857505090565b90809250813d8311611fbb575b611faf8183611bdd565b81010312610127575190565b503d611fa5565b6040513d5f823e3d90fd5b50611fd66125d3565b611f02565b9050611fe56125d3565b90611efb565b908115612073575b8015612063575b60405191612009606084611bdd565b60028352604036602085013761201e836124c3565b52612028826124d0565b52611f6c602080926040519061203e8383611bdd565b5f82525f368137604051631888debd60e01b81529384928392600a5f60048601612493565b5061206e6001612562565b611ffa565b905061207f6001612562565b90611ff3565b90811561210d575b80156120fd575b604051916120a3606084611bdd565b6002835260403660208501376120b8836124c3565b526120c2826124d0565b52611f6c60208092604051906120d88383611bdd565b5f82525f368137604051631888debd60e01b81529384928392600b5f60048601612493565b506121086001612562565b612094565b90506121196001612562565b9061208d565b919082156121c6575b80156121b8575b81156121a8575b60405192612145608085611bdd565b60038452606036602086013761215a846124c3565b52612164836124d0565b5261216e826124e0565b52611f6c60208092604051906121848383611bdd565b5f82525f368137604051631888debd60e01b81529384928392600560048501612434565b90506121b26125d3565b90612136565b506121c16125d3565b61212f565b91506121d15f612562565b91612128565b73ea30c4b8b44078bbf8a6ef5b9f1ec1626c7848d93b1561012757604051631974142760e21b815260048101919091526001600160a01b0390911660248201525f8180604481015b03818373ea30c4b8b44078bbf8a6ef5b9f1ec1626c7848d95af18015611fc2576122465750565b5f61225091611bdd565b565b73ea30c4b8b44078bbf8a6ef5b9f1ec1626c7848d93b1561012757604051631974142760e21b815260048101919091523060248201525f81806044810161221f565b60ff604082015116600581036123a85750602060ff916060806040516122b981611bc2565b5f81525f858201525f6040820152015260e48151836060868286015116940151604051926122e684611bc2565b83528183019485528660408401600581526060850192835260405198899788966313fce3b160e11b885260406004890152516044880152511660648601525116608484015251608060a484015280519182918260c4860152018484015e5f838284010152336024830152601f801991011681010301815f73ea30c4b8b44078bbf8a6ef5b9f1ec1626c7848d95af1908115611fc2575f91612385575090565b90506020813d6020116123a0575b81611faf60209383611bdd565b3d9150612393565b6367cf307160e01b5f52600452600560245260445ffd5b73ea30c4b8b44078bbf8a6ef5b9f1ec1626c7848d93b1561012757604051631974142760e21b815260048101919091523360248201525f81806044810161221f565b90602080835192838152019201905f5b81811061241e5750505090565b8251845260209384019390920191600101612411565b9161245b9060ff612469959316845260046020850152608060408501526080840190612401565b916060818403910152612401565b90565b9161245b9060ff6124699593168452601a6020850152608060408501526080840190612401565b9293919060ff1683526020811015610622576124699361245b916020850152608060408501526080840190612401565b805115611b755760200190565b805160011015611b755760400190565b805160021015611b755760600190565b6020611f6c816040516125038282611bdd565b5f81525f36813760405190612519608083611bdd565b60038252606036848401375f61252e836124c3565b52600461253a836124d0565b525f612545836124e0565b52604051631888debd60e01b81529384928392600480850161246c565b611f6c602080926040516125768382611bdd565b5f81525f3681376040519161258c608084611bdd565b60038352606036858501376125a0836124c3565b525f6125ab836124d0565b525f6125b6836124e0565b52604051631888debd60e01b815293849283925f6004850161246c565b6020611f6c816040516125e68282611bdd565b5f81525f368137604051906125fc608083611bdd565b60038252606036848401375f612611836124c3565b52600561261d836124d0565b525f612628836124e0565b52604051631888debd60e01b8152938492839260056004850161246c56fea264697066735822122016bdd1c149da9d104575998dd2b5fb3703da0c1217f20faa583de85ac487637b64736f6c634300081a0033","linkReferences":{}},"methodIdentifiers":{"auctionExists(bytes32)":"7a5a69e3","auctionIds(uint256)":"2a6433be","computeAuction(bytes32)":"2d2a25e1","createAuction(bytes32,(uint256,uint8,uint8,bytes),uint8,uint256,uint8)":"61132217","getAuctionCount()":"c44e6640","getAuctionInfo(bytes32)":"bf9fc26c","getBidCount(bytes32)":"15659dde","getBidder(bytes32,uint256)":"043c55d1","getEncryptedResult(bytes32)":"377e89e2","getPublishedResult(bytes32)":"e3b5e0ff","getReceivedInvites(address)":"db5aabc5","getSentInvites(address)":"1053a3ab","matchResult(bytes32)":"f3db82aa","publishResult(bytes32,bool,uint64,address)":"24b52c4d","publishedPrice(bytes32)":"d22932bb","publishedWinner(bytes32)":"4b296c8b","resultPublished(bytes32)":"02acc400","sendBatchInvites(bytes32,address[])":"ad0ea07b","sendInvite(bytes32,address)":"3c553586","submitBid(bytes32,(uint256,uint8,uint8,bytes))":"c30998ee"},"id":8}