{"abi":[{"type":"function","name":"auctionExists","inputs":[{"name":"","type":"bytes32","internalType":"bytes32"}],"outputs":[{"name":"","type":"bool","internalType":"bool"}],"stateMutability":"view"},{"type":"function","name":"auctionIds","inputs":[{"name":"","type":"uint256","internalType":"uint256"}],"outputs":[{"name":"","type":"bytes32","internalType":"bytes32"}],"stateMutability":"view"},{"type":"function","name":"computeAuction","inputs":[{"name":"auctionId","type":"bytes32","internalType":"bytes32"}],"outputs":[],"stateMutability":"nonpayable"},{"type":"function","name":"createAuction","inputs":[{"name":"auctionId","type":"bytes32","internalType":"bytes32"},{"name":"encFloor","type":"tuple","internalType":"struct InEuint64","components":[{"name":"ctHash","type":"uint256","internalType":"uint256"},{"name":"securityZone","type":"uint8","internalType":"uint8"},{"name":"utype","type":"uint8","internalType":"uint8"},{"name":"signature","type":"bytes","internalType":"bytes"}]},{"name":"nType","type":"uint8","internalType":"uint8"},{"name":"deadline","type":"uint256","internalType":"uint256"},{"name":"maxBidders","type":"uint8","internalType":"uint8"}],"outputs":[],"stateMutability":"nonpayable"},{"type":"function","name":"getAuctionCount","inputs":[],"outputs":[{"name":"","type":"uint256","internalType":"uint256"}],"stateMutability":"view"},{"type":"function","name":"getAuctionInfo","inputs":[{"name":"auctionId","type":"bytes32","internalType":"bytes32"}],"outputs":[{"name":"seller","type":"address","internalType":"address"},{"name":"status","type":"uint8","internalType":"enum MultiPartyAuction.AuctionStatus"},{"name":"createdAt","type":"uint256","internalType":"uint256"},{"name":"deadline","type":"uint256","internalType":"uint256"},{"name":"negotiationType","type":"uint8","internalType":"uint8"},{"name":"maxBidders","type":"uint8","internalType":"uint8"},{"name":"currentBids","type":"uint8","internalType":"uint8"},{"name":"isResultPublished","type":"bool","internalType":"bool"},{"name":"matched","type":"bool","internalType":"bool"},{"name":"agreedPrice","type":"uint64","internalType":"uint64"},{"name":"winner","type":"address","internalType":"address"}],"stateMutability":"view"},{"type":"function","name":"getBidCount","inputs":[{"name":"auctionId","type":"bytes32","internalType":"bytes32"}],"outputs":[{"name":"","type":"uint256","internalType":"uint256"}],"stateMutability":"view"},{"type":"function","name":"getBidder","inputs":[{"name":"auctionId","type":"bytes32","internalType":"bytes32"},{"name":"index","type":"uint256","internalType":"uint256"}],"outputs":[{"name":"","type":"address","internalType":"address"}],"stateMutability":"view"},{"type":"function","name":"getEncryptedResult","inputs":[{"name":"auctionId","type":"bytes32","internalType":"bytes32"}],"outputs":[{"name":"encAgreedPrice","type":"bytes32","internalType":"euint64"},{"name":"encHasWinner","type":"bytes32","internalType":"ebool"}],"stateMutability":"view"},{"type":"function","name":"getPublishedResult","inputs":[{"name":"auctionId","type":"bytes32","internalType":"bytes32"}],"outputs":[{"name":"isPublished","type":"bool","internalType":"bool"},{"name":"matched","type":"bool","internalType":"bool"},{"name":"agreedPrice","type":"uint64","internalType":"uint64"},{"name":"winner","type":"address","internalType":"address"}],"stateMutability":"view"},{"type":"function","name":"getReceivedInvites","inputs":[{"name":"recipient","type":"address","internalType":"address"}],"outputs":[{"name":"","type":"tuple[]","internalType":"struct MultiPartyAuction.Invite[]","components":[{"name":"auctionId","type":"bytes32","internalType":"bytes32"},{"name":"sender","type":"address","internalType":"address"},{"name":"timestamp","type":"uint256","internalType":"uint256"},{"name":"negotiationType","type":"uint8","internalType":"uint8"}]}],"stateMutability":"view"},{"type":"function","name":"getSentInvites","inputs":[{"name":"sender","type":"address","internalType":"address"}],"outputs":[{"name":"","type":"tuple[]","internalType":"struct MultiPartyAuction.Invite[]","components":[{"name":"auctionId","type":"bytes32","internalType":"bytes32"},{"name":"sender","type":"address","internalType":"address"},{"name":"timestamp","type":"uint256","internalType":"uint256"},{"name":"negotiationType","type":"uint8","internalType":"uint8"}]}],"stateMutability":"view"},{"type":"function","name":"matchResult","inputs":[{"name":"","type":"bytes32","internalType":"bytes32"}],"outputs":[{"name":"","type":"bool","internalType":"bool"}],"stateMutability":"view"},{"type":"function","name":"publishResult","inputs":[{"name":"auctionId","type":"bytes32","internalType":"bytes32"},{"name":"_matched","type":"bool","internalType":"bool"},{"name":"_agreedPrice","type":"uint64","internalType":"uint64"},{"name":"_winner","type":"address","internalType":"address"}],"outputs":[],"stateMutability":"nonpayable"},{"type":"function","name":"publishedPrice","inputs":[{"name":"","type":"bytes32","internalType":"bytes32"}],"outputs":[{"name":"","type":"uint64","internalType":"uint64"}],"stateMutability":"view"},{"type":"function","name":"publishedWinner","inputs":[{"name":"","type":"bytes32","internalType":"bytes32"}],"outputs":[{"name":"","type":"address","internalType":"address"}],"stateMutability":"view"},{"type":"function","name":"resultPublished","inputs":[{"name":"","type":"bytes32","internalType":"bytes32"}],"outputs":[{"name":"","type":"bool","internalType":"bool"}],"stateMutability":"view"},{"type":"function","name":"sendInvite","inputs":[{"name":"auctionId","type":"bytes32","internalType":"bytes32"},{"name":"recipient","type":"address","internalType":"address"}],"outputs":[],"stateMutability":"nonpayable"},{"type":"function","name":"submitBid","inputs":[{"name":"auctionId","type":"bytes32","internalType":"bytes32"},{"name":"encCeiling","type":"tuple","internalType":"struct InEuint64","components":[{"name":"ctHash","type":"uint256","internalType":"uint256"},{"name":"securityZone","type":"uint8","internalType":"uint8"},{"name":"utype","type":"uint8","internalType":"uint8"},{"name":"signature","type":"bytes","internalType":"bytes"}]}],"outputs":[],"stateMutability":"nonpayable"},{"type":"event","name":"AuctionComputed","inputs":[{"name":"auctionId","type":"bytes32","indexed":true,"internalType":"bytes32"},{"name":"totalBids","type":"uint8","indexed":false,"internalType":"uint8"},{"name":"timestamp","type":"uint256","indexed":false,"internalType":"uint256"}],"anonymous":false},{"type":"event","name":"AuctionCreated","inputs":[{"name":"auctionId","type":"bytes32","indexed":true,"internalType":"bytes32"},{"name":"seller","type":"address","indexed":true,"internalType":"address"},{"name":"nType","type":"uint8","indexed":false,"internalType":"uint8"},{"name":"deadline","type":"uint256","indexed":false,"internalType":"uint256"},{"name":"maxBidders","type":"uint8","indexed":false,"internalType":"uint8"},{"name":"timestamp","type":"uint256","indexed":false,"internalType":"uint256"}],"anonymous":false},{"type":"event","name":"AuctionInviteSent","inputs":[{"name":"auctionId","type":"bytes32","indexed":true,"internalType":"bytes32"},{"name":"sender","type":"address","indexed":true,"internalType":"address"},{"name":"recipient","type":"address","indexed":true,"internalType":"address"},{"name":"timestamp","type":"uint256","indexed":false,"internalType":"uint256"}],"anonymous":false},{"type":"event","name":"AuctionResultPublished","inputs":[{"name":"auctionId","type":"bytes32","indexed":true,"internalType":"bytes32"},{"name":"matched","type":"bool","indexed":false,"internalType":"bool"},{"name":"agreedPrice","type":"uint64","indexed":false,"internalType":"uint64"},{"name":"winner","type":"address","indexed":false,"internalType":"address"},{"name":"timestamp","type":"uint256","indexed":false,"internalType":"uint256"}],"anonymous":false},{"type":"event","name":"BidSubmitted","inputs":[{"name":"auctionId","type":"bytes32","indexed":true,"internalType":"bytes32"},{"name":"bidder","type":"address","indexed":true,"internalType":"address"},{"name":"bidIndex","type":"uint8","indexed":false,"internalType":"uint8"},{"name":"timestamp","type":"uint256","indexed":false,"internalType":"uint256"}],"anonymous":false},{"type":"error","name":"InvalidEncryptedInput","inputs":[{"name":"got","type":"uint8","internalType":"uint8"},{"name":"expected","type":"uint8","internalType":"uint8"}]},{"type":"error","name":"SecurityZoneOutOfBounds","inputs":[{"name":"value","type":"int32","internalType":"int32"}]}],"bytecode":{"object":"0x6080806040523460155761215a908161001a8239f35b5f80fdfe6080806040526004361015610012575f80fd5b5f3560e01c90816302acc4001461170957508063043c55d1146116785780631053a3ab146115c157806315659dde1461159757806324b52c4d146113a75780632a6433be1461136f5780632d2a25e114610ca4578063377e89e214610bd15780633c55358614610a1e5780634b296c8b146109ec57806361132217146107435780637a5a69e314610714578063bf9fc26c1461062b578063c30998ee146102a3578063c44e664014610286578063d22932bb14610253578063db5aabc514610198578063e3b5e0ff146101205763f3db82aa146100ed575f80fd5b3461011c57602036600319011261011c576004355f526005602052602060ff60405f2054166040519015158152f35b5f80fd5b3461011c57602036600319011261011c57600480355f908152602091825260408082205460058452818320546006855282842054600786529383902054835160ff93841615158152919092161515948101949094526001600160401b0392909216908301526001600160a01b03166060820152608090f35b3461011c57602036600319011261011c576001600160a01b036101b9611734565b165f52600860205260405f2080546101d081611853565b916101de6040519384611832565b81835260208301905f5260205f205f915b8383106102085760405180610204878261174a565b0390f35b6004602060019260405161021b81611817565b85548152848060a01b038587015416838201526002860154604082015260ff60038701541660608201528152019201920191906101ef565b3461011c57602036600319011261011c576004355f52600660205260206001600160401b0360405f205416604051908152f35b3461011c575f36600319011261011c576020600354604051908152f35b3461011c57604036600319011261011c576004356024356001600160401b03811161011c576080600319823603011261011c57815f5260026020526102ee60ff60405f2054166118e4565b815f525f60205260405f2060058101549060ff8260081c166005811015610617576001036105d2576004810154421161058d57546001600160a01b0316331461054957825f52600160205260ff60405f20549116111561050e575f8281526001602052604081208054915b8281106104a6578461037661037136600488016119a6565b611e0b565b61037f81611f36565b61038881611dc9565b815f52600160205260405f2060405190606082018281106001600160401b03821117610492576040523382526020820192835260408201904282528054600160401b811015610492576103e0916001820181556117fe565b93909361047f5760029260018060a01b039060018060a01b03905116166001600160601b0360a01b85541617845551600184015551910155805f52600160205260405f2054905f19820191821161046b576040805160ff93909316835242602084015233927f95d2990ec1db8f8ed40c6bcb5ee7ee3b823c247bab5c74b812815ad5baffa4b59190a3005b634e487b7160e01b5f52601160045260245ffd5b634e487b7160e01b5f525f60045260245ffd5b634e487b7160e01b5f52604160045260245ffd5b6104b081836117fe565b50546001600160a01b031633146104c957600101610359565b60405162461bcd60e51b815260206004820152601760248201527f416c7265616479207375626d69747465642061206269640000000000000000006044820152606490fd5b60405162461bcd60e51b815260206004820152601360248201527213585e08189a5919195c9cc81c995858da1959606a1b6044820152606490fd5b606460405162461bcd60e51b815260206004820152602060248201527f53656c6c65722063616e6e6f7420626964206f6e206f776e2061756374696f6e6044820152fd5b60405162461bcd60e51b815260206004820152601860248201527f42696464696e6720706572696f642068617320656e64656400000000000000006044820152606490fd5b60405162461bcd60e51b815260206004820152601a60248201527f41756374696f6e206e6f7420616363657074696e6720626964730000000000006044820152606490fd5b634e487b7160e01b5f52602160045260245ffd5b3461011c57602036600319011261011c57600480355f908152602081815260408083208054600580830154600384015484890154600290950154600188528689205499885286892054848952878a205460068a52888b20546007909a52998890205497516001600160a01b039687168152929a929995909716976001600160401b03169660ff958616969086169592831694600885901c8416949390921691841015610617576101609a60ff9460208c015260408b015260608a015260808901521660a087015260c0860152151560e08501521515610100840152610120830152610140820152f35b3461011c57602036600319011261011c576004355f526002602052602060ff60405f2054166040519015158152f35b3461011c5760a036600319011261011c576024356004356001600160401b03821161011c576080600319833603011261011c576044359160ff831680930361011c576064356084359160ff831680930361011c57835f52600260205260ff60405f2054166109ae5742821115610969576003851161092457600283101580610919575b156108d4575f84815260208190526040902080546001600160a01b0319163317815561084c91600590610801906103719036906004016119a6565b6001830190815560028301805460ff191689179055426003840155600483018590559101805461ff0019861661ffff1990911617610100179055805461084690611f36565b54611dc9565b600354600160401b8110156104925780600161086b92016003556117b2565b81549060031b9085821b915f19901b1916179055825f52600260205260405f20600160ff19825416179055604051938452602084015260408301524260608301527f8390a1cc6e9511fdf043189e02ed11aed321a4e7058bb9508dd420f41656adab60803393a3005b60405162461bcd60e51b815260206004820152601860248201527f4d61782062696464657273206d75737420626520322d313000000000000000006044820152606490fd5b50600a8311156107c6565b60405162461bcd60e51b815260206004820152601860248201527f496e76616c6964206e65676f74696174696f6e207479706500000000000000006044820152606490fd5b60405162461bcd60e51b815260206004820152601e60248201527f446561646c696e65206d75737420626520696e207468652066757475726500006044820152606490fd5b60405162461bcd60e51b815260206004820152601660248201527541756374696f6e20616c72656164792065786973747360501b6044820152606490fd5b3461011c57602036600319011261011c576004355f526007602052602060018060a01b0360405f205416604051908152f35b3461011c57604036600319011261011c576024356001600160a01b038116906004359082900361011c57805f526002602052610a6060ff60405f2054166118e4565b5f818152602081905260409020546001600160a01b03163303610b8c57338214610b4e578115610b1557805f525f602052610ae660ff600260405f2001541660405190610aac82611817565b8382523360208301524260408301526060820152835f526008602052610ad58160405f20611929565b335f52600960205260405f20611929565b604051904282527ffd926112f0aa39375860ab312c3131f854e3cf605e336ee3cc868f94209b46ee60203393a4005b60405162461bcd60e51b8152602060048201526011602482015270125b9d985b1a59081c9958da5c1a595b9d607a1b6044820152606490fd5b60405162461bcd60e51b815260206004820152601660248201527521b0b73737ba1034b73b34ba32903cb7bab939b2b63360511b6044820152606490fd5b60405162461bcd60e51b815260206004820152601c60248201527f4f6e6c792073656c6c65722063616e2073656e6420696e7669746573000000006044820152606490fd5b3461011c57602036600319011261011c57600435805f525f60205260018060a01b0360405f20541633148015610c4e575b610c0b9061186a565b5f525f60205260405f2060ff600582015460081c1690600582101561061757610c386003604093146118aa565b6006600782015491015482519182526020820152f35b5f828152600160205260408120805492915b838110610c71575b50509050610c02565b610c7b81836117fe565b50546001600160a01b03163314610c9457600101610c60565b50505050610c0b60018380610c68565b3461011c57602036600319011261011c57600435805f525f60205260405f2060058101805460ff8160081c166005811015610617576001036113335760048301544211908115611318575b50156112de57825f52600160205260405f209182549283156112a557825461ff0019166102001783556001610d23826117ec565b500154926001610d32836117ec565b50015493610d466001850195865490611a53565b604095909490600160205b89821061111657505054828115611106575b156110f1575b610dd390875193610d7b606086611832565b6002855260409182366020880137610d9286612013565b52610d9c85612020565b5260208094895190610dae8383611832565b5f82525f3681378a51631888debd60e01b815294859283926008600560048601611fe3565b03815f73ea30c4b8b44078bbf8a6ef5b9f1ec1626c7848d95af19182156110e7575f926110b8575b50610e6b848951610e0c8282611832565b5f81525f3681378a5190610e21608083611832565b60038252606036848401376002610e3783612013565b526005610e4383612020565b525f610e4e83612030565b528b51631888debd60e01b81529384928392600560048501611fab565b03815f73ea30c4b8b44078bbf8a6ef5b9f1ec1626c7848d95af19081156110ae57908592915f9161107b575b50610f079381811561106b575b1561105b575b8a5192610eb8606085611832565b600284523685850137610eca83612013565b52610ed482612020565b52885190610ee28383611832565b5f82525f3681378951631888debd60e01b81529384928392600d600560048601611fe3565b03815f73ea30c4b8b44078bbf8a6ef5b9f1ec1626c7848d95af1928315611051575f9361101d575b50610f9b92610f489150610f416120b1565b9087611c7f565b6006820195865560078201908155835461ff0019166103001790935584548154610f7e916001600160a01b039190911690611d4e565b610f888554611dc9565b825490546001600160a01b031690611d4e565b610fa58154611dc9565b5f5b858110610fe657845160ff8716815242602082015287907f0d554559f7b26f735203c770d2e7ac5d18d54fba70e316ea5dca4709ed583a2490604090a2005b6001906110088554610ff883876117fe565b50848060a01b0390541690611d4e565b6110178354610ff883876117fe565b01610fa7565b90809350813d831161104a575b6110348183611832565b8101031261011c57610f48610f9b925192610f2f565b503d61102a565b87513d5f823e3d90fd5b90506110656120b1565b90610eaa565b90506110756120b1565b90610ea4565b83819492503d83116110a7575b6110928183611832565b8101031261011c579051849190610f07610e97565b503d611088565b89513d5f823e3d90fd5b9091508381813d83116110e0575b6110d08183611832565b8101031261011c5751908a610dfb565b503d6110c6565b88513d5f823e3d90fd5b9150610dd36110fe6120b1565b929050610d69565b90506111106120b1565b90610d63565b90969361113360016111288a8a6117fe565b500154845490611a53565b6111c361114e8360016111468d8d6117fe565b500154611a53565b8b888915611296575b8151906111648383611832565b600182528736602084013761117882612013565b5260209384916111d584519461118e8587611832565b5f86525f36813751631888debd60e01b81525f6004820152600c60248201526080604482015294859384936084850190611f78565b83810360031901606485015290611f78565b03815f73ea30c4b8b44078bbf8a6ef5b9f1ec1626c7848d95af192831561128c57918b93918d935f93611250575b50509260016112396112429461123383999561122d6112268b9a6112489c611b4b565b918a611b4b565b90611be5565b936117fe565b50015490611c7f565b96611be5565b970190610d51565b9250949350915083813d8311611285575b61126b8183611832565b8101031261011c579151909189918b916001611239611203565b503d611261565b8d513d5f823e3d90fd5b506112a05f612040565b611157565b60405162461bcd60e51b8152602060048201526011602482015270139bc8189a591cc81cdd589b5a5d1d1959607a1b6044820152606490fd5b60405162461bcd60e51b81526020600482015260126024820152712134b23234b7339039ba34b6361037b832b760711b6044820152606490fd5b9050835f52600160205260ff60405f20549116111584610cef565b60405162461bcd60e51b81526020600482015260146024820152734e6f7420696e2062696464696e6720706861736560601b6044820152606490fd5b3461011c57602036600319011261011c5760043560035481101561011c576113986020916117b2565b90549060031b1c604051908152f35b3461011c57608036600319011261011c5760043560243580151580910361011c576044356001600160401b03811680910361011c576064356001600160a01b038116929083900361011c57835f525f60205260018060a01b0360405f20541633148015611537575b6114189061186a565b835f525f60205260ff600560405f20015460081c16600581101561061757600361144291146118aa565b835f52600460205260ff60405f2054166114fe577fc145e6db0a57dd4480f8ae12c8ad01faa5900836674258af8a72db06e95596de92608092855f52600460205260405f20600160ff19825416179055855f52600560205260405f2060ff1981541660ff8516179055855f52600660205260405f20816001600160401b0319825416179055855f52600760205260405f20826001600160601b0360a01b82541617905560405192835260208301526040820152426060820152a2005b60405162461bcd60e51b8152602060048201526011602482015270105b1c9958591e481c1d589b1a5cda1959607a1b6044820152606490fd5b5f858152600160205260408120805495949392915b868110611560575b5050909192935061140f565b61156a81836117fe565b50546001600160a01b031633146115835760010161154c565b509394508493506001905061141887611554565b3461011c57602036600319011261011c576004355f526001602052602060405f2054604051908152f35b3461011c57602036600319011261011c576001600160a01b036115e2611734565b165f52600960205260405f2080546115f981611853565b916116076040519384611832565b81835260208301905f5260205f205f915b83831061162d5760405180610204878261174a565b6004602060019260405161164081611817565b85548152848060a01b038587015416838201526002860154604082015260ff6003870154166060820152815201920192019190611618565b3461011c57604036600319011261011c5760043560243590805f52600160205260405f20548210156116ce576020916116ba915f526001835260405f206117fe565b50546040516001600160a01b039091168152f35b60405162461bcd60e51b8152602060048201526013602482015272496e646578206f7574206f6620626f756e647360681b6044820152606490fd5b3461011c57602036600319011261011c576020906004355f526004825260ff60405f20541615158152f35b600435906001600160a01b038216820361011c57565b60206040818301928281528451809452019201905f5b81811061176d5750505090565b8251805185526020818101516001600160a01b0316818701526040808301519087015260609182015160ff169186019190915260809094019390920191600101611760565b6003548110156117ca5760035f5260205f2001905f90565b634e487b7160e01b5f52603260045260245ffd5b359060ff8216820361011c57565b8054156117ca575f5260205f20905f90565b80548210156117ca575f52600360205f20910201905f90565b608081019081106001600160401b0382111761049257604052565b90601f801991011681019081106001600160401b0382111761049257604052565b6001600160401b0381116104925760051b60200190565b1561187157565b60405162461bcd60e51b8152602060048201526011602482015270139bdd0818481c185c9d1a58da5c185b9d607a1b6044820152606490fd5b156118b157565b60405162461bcd60e51b815260206004820152600b60248201526a139bdd081cd95d1d1b195960aa1b6044820152606490fd5b156118eb57565b60405162461bcd60e51b8152602060048201526016602482015275105d58dd1a5bdb88191bd95cc81b9bdd08195e1a5cdd60521b6044820152606490fd5b805490600160401b82101561049257600182018082558210156117ca5760ff606081936003935f5260205f209060021b01948051865560018060a01b03602082015116600187019060018060a01b03166001600160601b0360a01b825416179055604081015160028701550151169201911660ff19825416179055565b919060808382031261011c576040516119be81611817565b8093803582526119d0602082016117de565b60208301526119e1604082016117de565b60408301526060810135906001600160401b03821161011c57019082601f8301121561011c5781356001600160401b0381116104925760405193611a2f601f8301601f191660200186611832565b8185526020828501011161011c576020815f92826060960183880137850101520152565b908115611b3b575b8015611b2d575b60405191611a71606084611832565b600283526040366020850137611a8683612013565b52611a9082612020565b52611acc6020809260405190611aa68383611832565b5f82525f368137604051631888debd60e01b815293849283926012600560048601611fe3565b03815f73ea30c4b8b44078bbf8a6ef5b9f1ec1626c7848d95af1918215611b22575f92611af857505090565b90809250813d8311611b1b575b611b0f8183611832565b8101031261011c575190565b503d611b05565b6040513d5f823e3d90fd5b50611b366120b1565b611a62565b9050611b456120b1565b90611a5b565b908115611bd3575b8015611bc3575b60405191611b69606084611832565b600283526040366020850137611b7e83612013565b52611b8882612020565b52611acc6020809260405190611b9e8383611832565b5f82525f368137604051631888debd60e01b81529384928392600a5f60048601611fe3565b50611bce6001612040565b611b5a565b9050611bdf6001612040565b90611b53565b908115611c6d575b8015611c5d575b60405191611c03606084611832565b600283526040366020850137611c1883612013565b52611c2282612020565b52611acc6020809260405190611c388383611832565b5f82525f368137604051631888debd60e01b81529384928392600b5f60048601611fe3565b50611c686001612040565b611bf4565b9050611c796001612040565b90611bed565b91908215611d3d575b8015611d2f575b8115611d1f575b60405192611ca5608085611832565b600384526060366020860137611cba84612013565b52611cc483612020565b52611cce82612030565b52602090816111c360405192611ce48385611832565b5f84525f368137611acc6040519485938493631888debd60e01b85526005600486015260046024860152608060448601526084850190611f78565b9050611d296120b1565b90611c96565b50611d386120b1565b611c8f565b9150611d485f612040565b91611c88565b73ea30c4b8b44078bbf8a6ef5b9f1ec1626c7848d93b1561011c57604051631974142760e21b815260048101919091526001600160a01b0390911660248201525f8180604481015b03818373ea30c4b8b44078bbf8a6ef5b9f1ec1626c7848d95af18015611b2257611dbd5750565b5f611dc791611832565b565b73ea30c4b8b44078bbf8a6ef5b9f1ec1626c7848d93b1561011c57604051631974142760e21b815260048101919091523060248201525f818060448101611d96565b60ff60408201511660058103611f1f5750602060ff91606080604051611e3081611817565b5f81525f858201525f6040820152015260e4815183606086828601511694015160405192611e5d84611817565b83528183019485528660408401600581526060850192835260405198899788966313fce3b160e11b885260406004890152516044880152511660648601525116608484015251608060a484015280519182918260c4860152018484015e5f838284010152336024830152601f801991011681010301815f73ea30c4b8b44078bbf8a6ef5b9f1ec1626c7848d95af1908115611b22575f91611efc575090565b90506020813d602011611f17575b81611b0f60209383611832565b3d9150611f0a565b6367cf307160e01b5f52600452600560245260445ffd5b73ea30c4b8b44078bbf8a6ef5b9f1ec1626c7848d93b1561011c57604051631974142760e21b815260048101919091523360248201525f818060448101611d96565b90602080835192838152019201905f5b818110611f955750505090565b8251845260209384019390920191600101611f88565b91611fd29060ff611fe09593168452601a6020850152608060408501526080840190611f78565b916060818403910152611f78565b90565b9293919060ff168352602081101561061757611fe093611fd2916020850152608060408501526080840190611f78565b8051156117ca5760200190565b8051600110156117ca5760400190565b8051600210156117ca5760600190565b611acc602080926040516120548382611832565b5f81525f3681376040519161206a608084611832565b600383526060368585013761207e83612013565b525f61208983612020565b525f61209483612030565b52604051631888debd60e01b815293849283925f60048501611fab565b6020611acc816040516120c48282611832565b5f81525f368137604051906120da608083611832565b60038252606036848401375f6120ef83612013565b5260056120fb83612020565b525f61210683612030565b52604051631888debd60e01b81529384928392600560048501611fab56fea264697066735822122074ca357cacd7997e77dc056f6804b793330e4a4ed27af411cf8c6baa979de0b664736f6c634300081a0033","linkReferences":{}},"methodIdentifiers":{"auctionExists(bytes32)":"7a5a69e3","auctionIds(uint256)":"2a6433be","computeAuction(bytes32)":"2d2a25e1","createAuction(bytes32,(uint256,uint8,uint8,bytes),uint8,uint256,uint8)":"61132217","getAuctionCount()":"c44e6640","getAuctionInfo(bytes32)":"bf9fc26c","getBidCount(bytes32)":"15659dde","getBidder(bytes32,uint256)":"043c55d1","getEncryptedResult(bytes32)":"377e89e2","getPublishedResult(bytes32)":"e3b5e0ff","getReceivedInvites(address)":"db5aabc5","getSentInvites(address)":"1053a3ab","matchResult(bytes32)":"f3db82aa","publishResult(bytes32,bool,uint64,address)":"24b52c4d","publishedPrice(bytes32)":"d22932bb","publishedWinner(bytes32)":"4b296c8b","resultPublished(bytes32)":"02acc400","sendInvite(bytes32,address)":"3c553586","submitBid(bytes32,(uint256,uint8,uint8,bytes))":"c30998ee"},"id":8}