{"abi":[{"type":"function","name":"createRoom","inputs":[{"name":"roomId","type":"bytes32","internalType":"bytes32"},{"name":"encFloor","type":"tuple","internalType":"struct InEuint64","components":[{"name":"ctHash","type":"uint256","internalType":"uint256"},{"name":"securityZone","type":"uint8","internalType":"uint8"},{"name":"utype","type":"uint8","internalType":"uint8"},{"name":"signature","type":"bytes","internalType":"bytes"}]},{"name":"nType","type":"uint8","internalType":"uint8"},{"name":"deadline","type":"uint256","internalType":"uint256"}],"outputs":[],"stateMutability":"nonpayable"},{"type":"function","name":"getEncryptedResult","inputs":[{"name":"roomId","type":"bytes32","internalType":"bytes32"}],"outputs":[{"name":"encAgreedPrice","type":"bytes32","internalType":"euint64"},{"name":"encMatched","type":"bytes32","internalType":"ebool"}],"stateMutability":"view"},{"type":"function","name":"getReceivedInviteCount","inputs":[{"name":"recipient","type":"address","internalType":"address"}],"outputs":[{"name":"","type":"uint256","internalType":"uint256"}],"stateMutability":"view"},{"type":"function","name":"getReceivedInvites","inputs":[{"name":"recipient","type":"address","internalType":"address"}],"outputs":[{"name":"","type":"tuple[]","internalType":"struct BlindNegotiation.Invite[]","components":[{"name":"roomId","type":"bytes32","internalType":"bytes32"},{"name":"sender","type":"address","internalType":"address"},{"name":"timestamp","type":"uint256","internalType":"uint256"},{"name":"negotiationType","type":"uint8","internalType":"uint8"}]}],"stateMutability":"view"},{"type":"function","name":"getRoomCount","inputs":[],"outputs":[{"name":"","type":"uint256","internalType":"uint256"}],"stateMutability":"view"},{"type":"function","name":"getRoomIdAt","inputs":[{"name":"index","type":"uint256","internalType":"uint256"}],"outputs":[{"name":"","type":"bytes32","internalType":"bytes32"}],"stateMutability":"view"},{"type":"function","name":"getRoomInfo","inputs":[{"name":"roomId","type":"bytes32","internalType":"bytes32"}],"outputs":[{"name":"partyA","type":"address","internalType":"address"},{"name":"partyB","type":"address","internalType":"address"},{"name":"status","type":"uint8","internalType":"enum BlindNegotiation.RoomStatus"},{"name":"createdAt","type":"uint256","internalType":"uint256"},{"name":"deadline","type":"uint256","internalType":"uint256"},{"name":"negotiationType","type":"uint8","internalType":"uint8"},{"name":"isResultPublished","type":"bool","internalType":"bool"},{"name":"matched","type":"bool","internalType":"bool"},{"name":"agreedPrice","type":"uint64","internalType":"uint64"}],"stateMutability":"view"},{"type":"function","name":"getRoomStatus","inputs":[{"name":"roomId","type":"bytes32","internalType":"bytes32"}],"outputs":[{"name":"","type":"uint8","internalType":"enum BlindNegotiation.RoomStatus"}],"stateMutability":"view"},{"type":"function","name":"getSentInviteCount","inputs":[{"name":"sender","type":"address","internalType":"address"}],"outputs":[{"name":"","type":"uint256","internalType":"uint256"}],"stateMutability":"view"},{"type":"function","name":"getSentInvites","inputs":[{"name":"sender","type":"address","internalType":"address"}],"outputs":[{"name":"","type":"tuple[]","internalType":"struct BlindNegotiation.Invite[]","components":[{"name":"roomId","type":"bytes32","internalType":"bytes32"},{"name":"sender","type":"address","internalType":"address"},{"name":"timestamp","type":"uint256","internalType":"uint256"},{"name":"negotiationType","type":"uint8","internalType":"uint8"}]}],"stateMutability":"view"},{"type":"function","name":"joinAndCompute","inputs":[{"name":"roomId","type":"bytes32","internalType":"bytes32"},{"name":"encCeiling","type":"tuple","internalType":"struct InEuint64","components":[{"name":"ctHash","type":"uint256","internalType":"uint256"},{"name":"securityZone","type":"uint8","internalType":"uint8"},{"name":"utype","type":"uint8","internalType":"uint8"},{"name":"signature","type":"bytes","internalType":"bytes"}]}],"outputs":[],"stateMutability":"nonpayable"},{"type":"function","name":"matchResult","inputs":[{"name":"","type":"bytes32","internalType":"bytes32"}],"outputs":[{"name":"","type":"bool","internalType":"bool"}],"stateMutability":"view"},{"type":"function","name":"publishResult","inputs":[{"name":"roomId","type":"bytes32","internalType":"bytes32"},{"name":"_matched","type":"bool","internalType":"bool"},{"name":"_agreedPrice","type":"uint64","internalType":"uint64"}],"outputs":[],"stateMutability":"nonpayable"},{"type":"function","name":"publishedPrice","inputs":[{"name":"","type":"bytes32","internalType":"bytes32"}],"outputs":[{"name":"","type":"uint64","internalType":"uint64"}],"stateMutability":"view"},{"type":"function","name":"resultPublished","inputs":[{"name":"","type":"bytes32","internalType":"bytes32"}],"outputs":[{"name":"","type":"bool","internalType":"bool"}],"stateMutability":"view"},{"type":"function","name":"roomExists","inputs":[{"name":"","type":"bytes32","internalType":"bytes32"}],"outputs":[{"name":"","type":"bool","internalType":"bool"}],"stateMutability":"view"},{"type":"function","name":"roomIds","inputs":[{"name":"","type":"uint256","internalType":"uint256"}],"outputs":[{"name":"","type":"bytes32","internalType":"bytes32"}],"stateMutability":"view"},{"type":"function","name":"sendInvite","inputs":[{"name":"roomId","type":"bytes32","internalType":"bytes32"},{"name":"recipient","type":"address","internalType":"address"}],"outputs":[],"stateMutability":"nonpayable"},{"type":"event","name":"InviteSent","inputs":[{"name":"roomId","type":"bytes32","indexed":true,"internalType":"bytes32"},{"name":"sender","type":"address","indexed":true,"internalType":"address"},{"name":"recipient","type":"address","indexed":true,"internalType":"address"},{"name":"timestamp","type":"uint256","indexed":false,"internalType":"uint256"}],"anonymous":false},{"type":"event","name":"MatchComputed","inputs":[{"name":"roomId","type":"bytes32","indexed":true,"internalType":"bytes32"},{"name":"timestamp","type":"uint256","indexed":false,"internalType":"uint256"}],"anonymous":false},{"type":"event","name":"ResultPublished","inputs":[{"name":"roomId","type":"bytes32","indexed":true,"internalType":"bytes32"},{"name":"matched","type":"bool","indexed":false,"internalType":"bool"},{"name":"agreedPrice","type":"uint64","indexed":false,"internalType":"uint64"},{"name":"timestamp","type":"uint256","indexed":false,"internalType":"uint256"}],"anonymous":false},{"type":"event","name":"RoomCreated","inputs":[{"name":"roomId","type":"bytes32","indexed":true,"internalType":"bytes32"},{"name":"partyA","type":"address","indexed":true,"internalType":"address"},{"name":"nType","type":"uint8","indexed":false,"internalType":"uint8"},{"name":"deadline","type":"uint256","indexed":false,"internalType":"uint256"},{"name":"timestamp","type":"uint256","indexed":false,"internalType":"uint256"}],"anonymous":false},{"type":"event","name":"RoomJoined","inputs":[{"name":"roomId","type":"bytes32","indexed":true,"internalType":"bytes32"},{"name":"partyB","type":"address","indexed":true,"internalType":"address"},{"name":"timestamp","type":"uint256","indexed":false,"internalType":"uint256"}],"anonymous":false},{"type":"error","name":"InvalidEncryptedInput","inputs":[{"name":"got","type":"uint8","internalType":"uint8"},{"name":"expected","type":"uint8","internalType":"uint8"}]},{"type":"error","name":"SecurityZoneOutOfBounds","inputs":[{"name":"value","type":"int32","internalType":"int32"}]}],"bytecode":{"object":"0x60808060405234601557611a59908161001a8239f35b5f80fdfe6080806040526004361015610012575f80fd5b5f3560e01c90816302acc4001461137d5750806308aede14146112af5780631053a3ab146111f85780632f0fc53d146111c2578063377e89e2146111265780633c55358614610f30578063490d98e614610ef85780635226ea9914610ec057806390045a6a14610c905780639f51b33914610c2c578063a7be8e2014610414578063ad7708cf146103dc578063d22932bb146103a8578063da2dd7891461021c578063db5aabc514610161578063e88724fd14610132578063eadddb3c146101155763f3db82aa146100e2575f80fd5b34610111576020366003190112610111576004355f526004602052602060ff60405f2054166040519015158152f35b5f80fd5b34610111575f366003190112610111576020600154604051908152f35b34610111576020366003190112610111576004355f526002602052602060ff60405f2054166040519015158152f35b34610111576020366003190112610111576001600160a01b036101826113b5565b165f52600660205260405f208054610199816114ab565b916101a76040519384611489565b81835260208301905f5260205f205f915b8383106101d157604051806101cd87826113cb565b0390f35b600460206001926040516101e48161146d565b85548152848060a01b038587015416838201526002860154604082015260ff60038701541660608201528152019201920191906101b8565b34610111576060366003190112610111576004356024358015158091036101115760443567ffffffffffffffff811680910361011157825f525f60205260018060a01b0360405f20541633148015610386575b610278906114c3565b825f525f60205260ff600660405f20015416600581101561037257600361029f91146114fd565b825f52600360205260ff60405f205416610339577f4e60cc513e2f54d161d3b39c428223c2426084d90a99d0fb838463da61e32e7891606091845f52600360205260405f20600160ff19825416179055845f52600460205260405f2060ff1981541660ff8416179055845f52600560205260405f208167ffffffffffffffff198254161790556040519182526020820152426040820152a2005b60405162461bcd60e51b8152602060048201526011602482015270105b1c9958591e481c1d589b1a5cda1959607a1b6044820152606490fd5b634e487b7160e01b5f52602160045260245ffd5b505f838152602081905260409020600101546001600160a01b0316331461026f565b34610111576020366003190112610111576004355f526005602052602067ffffffffffffffff60405f205416604051908152f35b346101115760203660031901126101115760043560015481101561011157610405602091611441565b90549060031b1c604051908152f35b346101115760403660031901126101115760243560043567ffffffffffffffff8211610111576080600319833603011261011157805f525f60205260405f20600681019060ff825416600581101561037257600103610be75760088101544211610baf5780546001600160a01b03163314610b6a576001810180546001600160a01b03191633178155936104b5906104b09036906004016115b9565b611668565b936104c6600383019580875561179f565b6104d08554611810565b600260ff19845416178355845491600281018054968415610b5a575b8715610b4a575b6040519761050260608a611489565b60028952604095863660208c01376105198a611939565b5261052389611946565b5261055f60208099604051906105398383611489565b5f82525f368137604051631888debd60e01b815293849283926012600560048601611909565b03815f73ea30c4b8b44078bbf8a6ef5b9f1ec1626c7848d95af191821561094b5789915f93610b17575b50829361060393505490548115610b07575b8015610af9575b604051916105b1606084611489565b600283528836858501376105c483611939565b526105ce82611946565b52604051906105dd8383611489565b5f82525f368137604051631888debd60e01b815293849283926008600560048601611909565b03815f73ea30c4b8b44078bbf8a6ef5b9f1ec1626c7848d95af190811561094b575f91610acc575b506040516106398982611489565b5f81525f3681376106a46080968a6040516106548a82611489565b60038152601f198a0194853684840137600261066f83611939565b52600561067b83611946565b525f61068683611956565b52604051631888debd60e01b815294859283926005600485016118d1565b03815f73ea30c4b8b44078bbf8a6ef5b9f1ec1626c7848d95af1801561094b578b925f91610a99575b5061074094818115610a89575b15610a79575b604051926106ef606085611489565b60028452368585013761070183611939565b5261070b82611946565b526040519061071a8383611489565b5f82525f368137604051631888debd60e01b81529485928392600d600560048601611909565b03815f73ea30c4b8b44078bbf8a6ef5b9f1ec1626c7848d95af195861561094b5789925f97610a48575b50610773611966565b87858615610976575b6108089915610966575b8215610956575b6040519461079b8587611489565b6003865236878701376107ad85611939565b526107b784611946565b526107c183611956565b5261081a6040516107d28582611489565b5f81525f3681376040519889948594631888debd60e01b865260056004870152600460248701526044860152608485019061189e565b8381036003190160648501529061189e565b03815f73ea30c4b8b44078bbf8a6ef5b9f1ec1626c7848d95af193841561094b575f94610918575b50916108a3826108906108b69695610875600461088a9701918083556005850198895560018060a01b0385541690611852565b61088a815460018060a01b0387541690611852565b54611810565b845490546001600160a01b031690611852565b825490546001600160a01b031690611852565b600360ff19825416179055807f2217f4f84668660fcda807d2e4735f11a3e25faae11b6dbc5fa478eba177478f83604051428152a27f7fb92d9ef81fb1a14948efd516a9cd1343209038f191b7901ad2625166085a7c604051924284523393a3005b9350918684813d8311610944575b6109308183611489565b8101031261011157925192916108a3610842565b503d610926565b6040513d5f823e3d90fd5b9150610960611966565b9161078d565b9050610970611966565b90610786565b506109e694508b60405161098a8282611489565b5f81525f3681376040519061099f8683611489565b600382528636848401375f6109b383611939565b525f6109be83611946565b525f6109c983611956565b52604051631888debd60e01b815297889283925f600485016118d1565b03815f73ea30c4b8b44078bbf8a6ef5b9f1ec1626c7848d95af1801561094b578c955f91610a15575b5061077c565b86819792503d8311610a41575b610a2c8183611489565b810103126101115793518b9490610808610a0f565b503d610a22565b8381949298503d8311610a72575b610a608183611489565b8101031261011157889151958a61076a565b503d610a56565b9050610a83611966565b906106e0565b9050610a93611966565b906106da565b83819492503d8311610ac5575b610ab08183611489565b810103126101115790518a91906107406106cd565b503d610aa6565b90508781813d8311610af2575b610ae38183611489565b8101031261011157518861062b565b503d610ad9565b50610b02611966565b6105a2565b9050610b11611966565b9061059b565b8281939294503d8311610b43575b610b2f8183611489565b810103126101115751908890610603610589565b503d610b25565b9650610b54611966565b966104f3565b9350610b64611966565b936104ec565b60405162461bcd60e51b815260206004820152601960248201527f43616e6e6f74206a6f696e20796f7572206f776e20726f6f6d000000000000006044820152606490fd5b60405162461bcd60e51b815260206004820152601060248201526f149bdbdb481a185cc8195e1c1a5c995960821b6044820152606490fd5b60405162461bcd60e51b815260206004820152601860248201527f526f6f6d206e6f7420616363657074696e67206a6f696e7300000000000000006044820152606490fd5b3461011157602036600319011261011157600435600154811015610c5557610405602091611441565b60405162461bcd60e51b8152602060048201526013602482015272496e646578206f7574206f6620626f756e647360681b6044820152606490fd5b346101115760803660031901126101115760243560043567ffffffffffffffff82116101115760806003198336030112610111576044359160ff83168093036101115760643590825f52600260205260ff60405f205416610e855742821115610e405760038411610dfb57600990835f525f602052610d3e610d1d6104b060405f209336906004016115b9565b6002830181815583546001600160a01b031916331784559061088a9061179f565b60068101600160ff19825416179055426007820155826008820155018360ff19825416179055600154600160401b811015610de757806001610d839201600155611441565b81549060031b9084821b915f19901b1916179055815f52600260205260405f20600160ff1982541617905560405192835260208301524260408301527f73b455edf7ada135cc3fb97b1de1ccee09399cb89c4bc91dfdd0ea61d26229c060603393a3005b634e487b7160e01b5f52604160045260245ffd5b60405162461bcd60e51b815260206004820152601860248201527f496e76616c6964206e65676f74696174696f6e207479706500000000000000006044820152606490fd5b60405162461bcd60e51b815260206004820152601e60248201527f446561646c696e65206d75737420626520696e207468652066757475726500006044820152606490fd5b60405162461bcd60e51b8152602060048201526013602482015272526f6f6d20616c72656164792065786973747360681b6044820152606490fd5b34610111576020366003190112610111576001600160a01b03610ee16113b5565b165f526007602052602060405f2054604051908152f35b34610111576020366003190112610111576001600160a01b03610f196113b5565b165f526006602052602060405f2054604051908152f35b34610111576040366003190112610111576024356001600160a01b038116906004359082900361011157805f52600260205260ff60405f205416156110eb575f818152602081905260409020546001600160a01b0316330361109b5733821461105d57811561102457805f525f602052610ff560ff600960405f2001541660405190610fbb8261146d565b8382523360208301524260408301526060820152835f526006602052610fe48160405f20611537565b335f52600760205260405f20611537565b604051904282527f2884407fcdc275a371cea04d9f60a046e5a783e64ee7861ecd5eeb2513bc848a60203393a4005b60405162461bcd60e51b8152602060048201526011602482015270125b9d985b1a59081c9958da5c1a595b9d607a1b6044820152606490fd5b60405162461bcd60e51b815260206004820152601660248201527521b0b73737ba1034b73b34ba32903cb7bab939b2b63360511b6044820152606490fd5b60405162461bcd60e51b815260206004820152602260248201527f4f6e6c7920726f6f6d2063726561746f722063616e2073656e6420696e766974604482015261657360f01b6064820152608490fd5b60405162461bcd60e51b8152602060048201526013602482015272149bdbdb48191bd95cc81b9bdd08195e1a5cdd606a1b6044820152606490fd5b3461011157602036600319011261011157600435805f525f60205260018060a01b0360405f205416331480156111a0575b611160906114c3565b5f525f60205260405f2060ff6006820154169060058210156103725761118a6003604093146114fd565b6004600582015491015482519182526020820152f35b505f818152602081905260409020600101546001600160a01b03163314611157565b34610111576020366003190112610111576004355f525f602052602060ff600660405f200154166111f660405180926113a8565bf35b34610111576020366003190112610111576001600160a01b036112196113b5565b165f52600760205260405f208054611230816114ab565b9161123e6040519384611489565b81835260208301905f5260205f205f915b83831061126457604051806101cd87826113cb565b600460206001926040516112778161146d565b85548152848060a01b038587015416838201526002860154604082015260ff600387015416606082015281520192019201919061124f565b3461011157602036600319011261011157610120600435805f525f60205260405f2060018060a01b038154169160018060a01b036001830154169160ff6006820154169060078101549060ff600960088301549201541691845f52600360205261135860ff60405f20541694865f52600460205260ff60405f205416965f52600560205267ffffffffffffffff60405f20541697604051998a5260208a015260408901906113a8565b6060870152608086015260a0850152151560c0840152151560e0830152610100820152f35b34610111576020366003190112610111576020906004355f526003825260ff60405f20541615158152f35b9060058210156103725752565b600435906001600160a01b038216820361011157565b60206040818301928281528451809452019201905f5b8181106113ee5750505090565b8251805185526020818101516001600160a01b0316818701526040808301519087015260609182015160ff1691860191909152608090940193909201916001016113e1565b359060ff8216820361011157565b6001548110156114595760015f5260205f2001905f90565b634e487b7160e01b5f52603260045260245ffd5b6080810190811067ffffffffffffffff821117610de757604052565b90601f8019910116810190811067ffffffffffffffff821117610de757604052565b67ffffffffffffffff8111610de75760051b60200190565b156114ca57565b60405162461bcd60e51b815260206004820152600b60248201526a4e6f74206120706172747960a81b6044820152606490fd5b1561150457565b60405162461bcd60e51b815260206004820152600b60248201526a139bdd081cd95d1d1b195960aa1b6044820152606490fd5b805490600160401b821015610de757600182018082558210156114595760ff606081936003935f5260205f209060021b01948051865560018060a01b03602082015116600187019060018060a01b03166bffffffffffffffffffffffff60a01b825416179055604081015160028701550151169201911660ff19825416179055565b9190608083820312610111576040516115d18161146d565b8093803582526115e360208201611433565b60208301526115f460408201611433565b604083015260608101359067ffffffffffffffff821161011157019082601f8301121561011157813567ffffffffffffffff8111610de75760405193611644601f8301601f191660200186611489565b81855260208285010111610111576020815f92826060960183880137850101520152565b60ff604082015116600581036117885750602060ff9160608060405161168d8161146d565b5f81525f858201525f6040820152015260e48151836060868286015116940151604051926116ba8461146d565b83528183019485528660408401600581526060850192835260405198899788966313fce3b160e11b885260406004890152516044880152511660648601525116608484015251608060a484015280519182918260c4860152018484015e5f838284010152336024830152601f801991011681010301815f73ea30c4b8b44078bbf8a6ef5b9f1ec1626c7848d95af190811561094b575f91611759575090565b90506020813d602011611780575b8161177460209383611489565b81010312610111575190565b3d9150611767565b6367cf307160e01b5f52600452600560245260445ffd5b73ea30c4b8b44078bbf8a6ef5b9f1ec1626c7848d93b1561011157604051631974142760e21b815260048101919091523360248201525f8180604481015b03818373ea30c4b8b44078bbf8a6ef5b9f1ec1626c7848d95af1801561094b576118045750565b5f61180e91611489565b565b73ea30c4b8b44078bbf8a6ef5b9f1ec1626c7848d93b1561011157604051631974142760e21b815260048101919091523060248201525f8180604481016117dd565b73ea30c4b8b44078bbf8a6ef5b9f1ec1626c7848d93b1561011157604051631974142760e21b815260048101919091526001600160a01b0390911660248201525f8180604481016117dd565b90602080835192838152019201905f5b8181106118bb5750505090565b82518452602093840193909201916001016118ae565b916118f89060ff6119069593168452601a602085015260806040850152608084019061189e565b91606081840391015261189e565b90565b9293919060ff168352602081101561037257611906936118f891602085015260806040850152608084019061189e565b8051156114595760200190565b8051600110156114595760400190565b8051600210156114595760600190565b60206119d9816040516119798282611489565b5f81525f3681376040519061198f608083611489565b60038252606036848401375f6119a483611939565b5260056119b083611946565b525f6119bb83611956565b52604051631888debd60e01b815293849283926005600485016118d1565b03815f73ea30c4b8b44078bbf8a6ef5b9f1ec1626c7848d95af191821561094b575f92611a0557505090565b90809250813d8311611a1c575b6117748183611489565b503d611a1256fea264697066735822122065b45721ebf758c946c8c33d772947e7724d52af2da8571acde296de127e18f764736f6c634300081a0033","linkReferences":{}},"methodIdentifiers":{"createRoom(bytes32,(uint256,uint8,uint8,bytes),uint8,uint256)":"90045a6a","getEncryptedResult(bytes32)":"377e89e2","getReceivedInviteCount(address)":"490d98e6","getReceivedInvites(address)":"db5aabc5","getRoomCount()":"eadddb3c","getRoomIdAt(uint256)":"9f51b339","getRoomInfo(bytes32)":"08aede14","getRoomStatus(bytes32)":"2f0fc53d","getSentInviteCount(address)":"5226ea99","getSentInvites(address)":"1053a3ab","joinAndCompute(bytes32,(uint256,uint8,uint8,bytes))":"a7be8e20","matchResult(bytes32)":"f3db82aa","publishResult(bytes32,bool,uint64)":"da2dd789","publishedPrice(bytes32)":"d22932bb","resultPublished(bytes32)":"02acc400","roomExists(bytes32)":"e88724fd","roomIds(uint256)":"ad7708cf","sendInvite(bytes32,address)":"3c553586"},"id":24}