{"abi":[{"type":"function","name":"createRoom","inputs":[{"name":"roomId","type":"bytes32","internalType":"bytes32"},{"name":"encFloor","type":"tuple","internalType":"struct InEuint64","components":[{"name":"ctHash","type":"uint256","internalType":"uint256"},{"name":"securityZone","type":"uint8","internalType":"uint8"},{"name":"utype","type":"uint8","internalType":"uint8"},{"name":"signature","type":"bytes","internalType":"bytes"}]},{"name":"nType","type":"uint8","internalType":"uint8"},{"name":"deadline","type":"uint256","internalType":"uint256"}],"outputs":[],"stateMutability":"nonpayable"},{"type":"function","name":"getEncryptedResult","inputs":[{"name":"roomId","type":"bytes32","internalType":"bytes32"}],"outputs":[{"name":"encAgreedPrice","type":"bytes32","internalType":"euint64"},{"name":"encMatched","type":"bytes32","internalType":"ebool"}],"stateMutability":"view"},{"type":"function","name":"getPublishedResult","inputs":[{"name":"roomId","type":"bytes32","internalType":"bytes32"}],"outputs":[{"name":"isPublished","type":"bool","internalType":"bool"},{"name":"matched","type":"bool","internalType":"bool"},{"name":"agreedPrice","type":"uint64","internalType":"uint64"}],"stateMutability":"view"},{"type":"function","name":"getReceivedInviteCount","inputs":[{"name":"recipient","type":"address","internalType":"address"}],"outputs":[{"name":"","type":"uint256","internalType":"uint256"}],"stateMutability":"view"},{"type":"function","name":"getReceivedInvites","inputs":[{"name":"recipient","type":"address","internalType":"address"}],"outputs":[{"name":"","type":"tuple[]","internalType":"struct BlindNegotiation.Invite[]","components":[{"name":"roomId","type":"bytes32","internalType":"bytes32"},{"name":"sender","type":"address","internalType":"address"},{"name":"timestamp","type":"uint256","internalType":"uint256"},{"name":"negotiationType","type":"uint8","internalType":"uint8"}]}],"stateMutability":"view"},{"type":"function","name":"getRoomCount","inputs":[],"outputs":[{"name":"","type":"uint256","internalType":"uint256"}],"stateMutability":"view"},{"type":"function","name":"getRoomIdAt","inputs":[{"name":"index","type":"uint256","internalType":"uint256"}],"outputs":[{"name":"","type":"bytes32","internalType":"bytes32"}],"stateMutability":"view"},{"type":"function","name":"getRoomInfo","inputs":[{"name":"roomId","type":"bytes32","internalType":"bytes32"}],"outputs":[{"name":"partyA","type":"address","internalType":"address"},{"name":"partyB","type":"address","internalType":"address"},{"name":"status","type":"uint8","internalType":"enum BlindNegotiation.RoomStatus"},{"name":"createdAt","type":"uint256","internalType":"uint256"},{"name":"deadline","type":"uint256","internalType":"uint256"},{"name":"negotiationType","type":"uint8","internalType":"uint8"},{"name":"isResultPublished","type":"bool","internalType":"bool"},{"name":"matched","type":"bool","internalType":"bool"},{"name":"agreedPrice","type":"uint64","internalType":"uint64"}],"stateMutability":"view"},{"type":"function","name":"getRoomStatus","inputs":[{"name":"roomId","type":"bytes32","internalType":"bytes32"}],"outputs":[{"name":"","type":"uint8","internalType":"enum BlindNegotiation.RoomStatus"}],"stateMutability":"view"},{"type":"function","name":"getSentInviteCount","inputs":[{"name":"sender","type":"address","internalType":"address"}],"outputs":[{"name":"","type":"uint256","internalType":"uint256"}],"stateMutability":"view"},{"type":"function","name":"getSentInvites","inputs":[{"name":"sender","type":"address","internalType":"address"}],"outputs":[{"name":"","type":"tuple[]","internalType":"struct BlindNegotiation.Invite[]","components":[{"name":"roomId","type":"bytes32","internalType":"bytes32"},{"name":"sender","type":"address","internalType":"address"},{"name":"timestamp","type":"uint256","internalType":"uint256"},{"name":"negotiationType","type":"uint8","internalType":"uint8"}]}],"stateMutability":"view"},{"type":"function","name":"joinAndCompute","inputs":[{"name":"roomId","type":"bytes32","internalType":"bytes32"},{"name":"encCeiling","type":"tuple","internalType":"struct InEuint64","components":[{"name":"ctHash","type":"uint256","internalType":"uint256"},{"name":"securityZone","type":"uint8","internalType":"uint8"},{"name":"utype","type":"uint8","internalType":"uint8"},{"name":"signature","type":"bytes","internalType":"bytes"}]}],"outputs":[],"stateMutability":"nonpayable"},{"type":"function","name":"matchResult","inputs":[{"name":"","type":"bytes32","internalType":"bytes32"}],"outputs":[{"name":"","type":"bool","internalType":"bool"}],"stateMutability":"view"},{"type":"function","name":"publishResult","inputs":[{"name":"roomId","type":"bytes32","internalType":"bytes32"},{"name":"_matched","type":"bool","internalType":"bool"},{"name":"_agreedPrice","type":"uint64","internalType":"uint64"}],"outputs":[],"stateMutability":"nonpayable"},{"type":"function","name":"publishedPrice","inputs":[{"name":"","type":"bytes32","internalType":"bytes32"}],"outputs":[{"name":"","type":"uint64","internalType":"uint64"}],"stateMutability":"view"},{"type":"function","name":"resultPublished","inputs":[{"name":"","type":"bytes32","internalType":"bytes32"}],"outputs":[{"name":"","type":"bool","internalType":"bool"}],"stateMutability":"view"},{"type":"function","name":"roomExists","inputs":[{"name":"","type":"bytes32","internalType":"bytes32"}],"outputs":[{"name":"","type":"bool","internalType":"bool"}],"stateMutability":"view"},{"type":"function","name":"roomIds","inputs":[{"name":"","type":"uint256","internalType":"uint256"}],"outputs":[{"name":"","type":"bytes32","internalType":"bytes32"}],"stateMutability":"view"},{"type":"function","name":"sendInvite","inputs":[{"name":"roomId","type":"bytes32","internalType":"bytes32"},{"name":"recipient","type":"address","internalType":"address"}],"outputs":[],"stateMutability":"nonpayable"},{"type":"event","name":"InviteSent","inputs":[{"name":"roomId","type":"bytes32","indexed":true,"internalType":"bytes32"},{"name":"sender","type":"address","indexed":true,"internalType":"address"},{"name":"recipient","type":"address","indexed":true,"internalType":"address"},{"name":"timestamp","type":"uint256","indexed":false,"internalType":"uint256"}],"anonymous":false},{"type":"event","name":"MatchComputed","inputs":[{"name":"roomId","type":"bytes32","indexed":true,"internalType":"bytes32"},{"name":"timestamp","type":"uint256","indexed":false,"internalType":"uint256"}],"anonymous":false},{"type":"event","name":"ResultPublished","inputs":[{"name":"roomId","type":"bytes32","indexed":true,"internalType":"bytes32"},{"name":"matched","type":"bool","indexed":false,"internalType":"bool"},{"name":"agreedPrice","type":"uint64","indexed":false,"internalType":"uint64"},{"name":"timestamp","type":"uint256","indexed":false,"internalType":"uint256"}],"anonymous":false},{"type":"event","name":"RoomCreated","inputs":[{"name":"roomId","type":"bytes32","indexed":true,"internalType":"bytes32"},{"name":"partyA","type":"address","indexed":true,"internalType":"address"},{"name":"nType","type":"uint8","indexed":false,"internalType":"uint8"},{"name":"deadline","type":"uint256","indexed":false,"internalType":"uint256"},{"name":"timestamp","type":"uint256","indexed":false,"internalType":"uint256"}],"anonymous":false},{"type":"event","name":"RoomJoined","inputs":[{"name":"roomId","type":"bytes32","indexed":true,"internalType":"bytes32"},{"name":"partyB","type":"address","indexed":true,"internalType":"address"},{"name":"timestamp","type":"uint256","indexed":false,"internalType":"uint256"}],"anonymous":false},{"type":"error","name":"InvalidEncryptedInput","inputs":[{"name":"got","type":"uint8","internalType":"uint8"},{"name":"expected","type":"uint8","internalType":"uint8"}]},{"type":"error","name":"SecurityZoneOutOfBounds","inputs":[{"name":"value","type":"int32","internalType":"int32"}]}],"bytecode":{"object":"0x60808060405234601557611ac3908161001a8239f35b5f80fdfe6080806040526004361015610012575f80fd5b5f3560e01c90816302acc400146113505750806308aede14146112825780631053a3ab146111cb5780632f0fc53d14611195578063377e89e2146110f95780633c55358614610f03578063490d98e614610ecb5780635226ea9914610e9357806390045a6a14610c435780639f51b33914610bdf578063a7be8e2014610484578063ad7708cf1461044c578063d22932bb14610418578063da2dd7891461028c578063db5aabc5146101d1578063e3b5e0ff1461016c578063e88724fd1461013d578063eadddb3c146101205763f3db82aa146100ed575f80fd5b3461011c57602036600319011261011c576004355f526004602052602060ff60405f2054166040519015158152f35b5f80fd5b3461011c575f36600319011261011c576020600154604051908152f35b3461011c57602036600319011261011c576004355f526002602052602060ff60405f2054166040519015158152f35b3461011c57602036600319011261011c576060600435805f52600360205260ff60405f20541690805f52600460205260ff60405f205416905f52600560205267ffffffffffffffff60405f205416906040519215158352151560208301526040820152f35b3461011c57602036600319011261011c576001600160a01b036101f2611388565b165f52600660205260405f2080546102098161147e565b91610217604051938461145c565b81835260208301905f5260205f205f915b838310610241576040518061023d878261139e565b0390f35b6004602060019260405161025481611440565b85548152848060a01b038587015416838201526002860154604082015260ff6003870154166060820152815201920192019190610228565b3461011c57606036600319011261011c5760043560243580151580910361011c5760443567ffffffffffffffff811680910361011c57825f525f60205260018060a01b0360405f205416331480156103f6575b6102e890611496565b825f525f60205260ff600660405f2001541660058110156103e257600361030f91146114d0565b825f52600360205260ff60405f2054166103a9577f4e60cc513e2f54d161d3b39c428223c2426084d90a99d0fb838463da61e32e7891606091845f52600360205260405f20600160ff19825416179055845f52600460205260405f2060ff1981541660ff8416179055845f52600560205260405f208167ffffffffffffffff198254161790556040519182526020820152426040820152a2005b60405162461bcd60e51b8152602060048201526011602482015270105b1c9958591e481c1d589b1a5cda1959607a1b6044820152606490fd5b634e487b7160e01b5f52602160045260245ffd5b505f838152602081905260409020600101546001600160a01b031633146102df565b3461011c57602036600319011261011c576004355f526005602052602067ffffffffffffffff60405f205416604051908152f35b3461011c57602036600319011261011c5760043560015481101561011c57610475602091611414565b90549060031b1c604051908152f35b3461011c57604036600319011261011c5760243560043567ffffffffffffffff821161011c576080600319833603011261011c57805f525f60205260405f2091600683019060ff82541660058110156103e257600103610b9a5760088401544211610b625783546001600160a01b03163314610b1d576001840180546001600160a01b03191633178155906105269061052190369060040161158c565b61163b565b906105376003860192808455611772565b61054182546117e3565b600260ff19845416178355600a60ff600987015416105f14610b075761056d8254600287015490611825565b945b60028101549254958315610af7575b8615610ae7575b6040519661059460608961145c565b60028852604094853660208b01376105ab896119ed565b526105b5886119fa565b526105f160208098604051906105cb838361145c565b5f82525f368137604051631888debd60e01b8152938492839260086005600486016119bd565b03815f73ea30c4b8b44078bbf8a6ef5b9f1ec1626c7848d95af1908115610939575f91610aba575b50604051610627898261145c565b5f81525f3681376106926080968a6040516106428a8261145c565b60038152601f198a0194853684840137600261065d836119ed565b526005610669836119fa565b525f61067483611a0a565b52604051631888debd60e01b81529485928392600560048501611985565b03815f73ea30c4b8b44078bbf8a6ef5b9f1ec1626c7848d95af18015610939578b925f91610a87575b5061072e94818115610a77575b15610a67575b604051926106dd60608561145c565b6002845236858501376106ef836119ed565b526106f9826119fa565b5260405190610708838361145c565b5f82525f368137604051631888debd60e01b81529485928392600d6005600486016119bd565b03815f73ea30c4b8b44078bbf8a6ef5b9f1ec1626c7848d95af19586156109395789925f97610a36575b50610761611a1a565b87858615610964575b6107f69915610954575b8215610944575b60405194610789858761145c565b60038652368787013761079b856119ed565b526107a5846119fa565b526107af83611a0a565b526108086040516107c0858261145c565b5f81525f3681376040519889948594631888debd60e01b8652600560048701526004602487015260448601526084850190611952565b83810360031901606485015290611952565b03815f73ea30c4b8b44078bbf8a6ef5b9f1ec1626c7848d95af1938415610939575f94610906575b50916108918261087e6108a4969561086360046108789701918083556005850198895560018060a01b0385541690611906565b610878815460018060a01b0387541690611906565b546117e3565b845490546001600160a01b031690611906565b825490546001600160a01b031690611906565b600360ff19825416179055807f2217f4f84668660fcda807d2e4735f11a3e25faae11b6dbc5fa478eba177478f83604051428152a27f7fb92d9ef81fb1a14948efd516a9cd1343209038f191b7901ad2625166085a7c604051924284523393a3005b9350918684813d8311610932575b61091e818361145c565b8101031261011c5792519291610891610830565b503d610914565b6040513d5f823e3d90fd5b915061094e611a1a565b9161077b565b905061095e611a1a565b90610774565b506109d494508b604051610978828261145c565b5f81525f3681376040519061098d868361145c565b600382528636848401375f6109a1836119ed565b525f6109ac836119fa565b525f6109b783611a0a565b52604051631888debd60e01b815297889283925f60048501611985565b03815f73ea30c4b8b44078bbf8a6ef5b9f1ec1626c7848d95af18015610939578c955f91610a03575b5061076a565b86819792503d8311610a2f575b610a1a818361145c565b8101031261011c5793518b94906107f66109fd565b503d610a10565b8381949298503d8311610a60575b610a4e818361145c565b8101031261011c57889151958a610758565b503d610a44565b9050610a71611a1a565b906106ce565b9050610a81611a1a565b906106c8565b83819492503d8311610ab3575b610a9e818361145c565b8101031261011c5790518a919061072e6106bb565b503d610a94565b90508781813d8311610ae0575b610ad1818361145c565b8101031261011c575188610619565b503d610ac7565b9550610af1611a1a565b95610585565b9250610b01611a1a565b9261057e565b610b176002860154835490611825565b9461056f565b60405162461bcd60e51b815260206004820152601960248201527f43616e6e6f74206a6f696e20796f7572206f776e20726f6f6d000000000000006044820152606490fd5b60405162461bcd60e51b815260206004820152601060248201526f149bdbdb481a185cc8195e1c1a5c995960821b6044820152606490fd5b60405162461bcd60e51b815260206004820152601860248201527f526f6f6d206e6f7420616363657074696e67206a6f696e7300000000000000006044820152606490fd5b3461011c57602036600319011261011c57600435600154811015610c0857610475602091611414565b60405162461bcd60e51b8152602060048201526013602482015272496e646578206f7574206f6620626f756e647360681b6044820152606490fd5b3461011c57608036600319011261011c5760243560043567ffffffffffffffff821161011c576080600319833603011261011c576044359160ff831680930361011c5760643590825f52600260205260ff60405f205416610e585742821115610e135760038411801590610dfc575b15610db757600990835f525f602052610cfa610cd961052160405f2093369060040161158c565b6002830181815583546001600160a01b031916331784559061087890611772565b60068101600160ff19825416179055426007820155826008820155018360ff19825416179055600154600160401b811015610da357806001610d3f9201600155611414565b81549060031b9084821b915f19901b1916179055815f52600260205260405f20600160ff1982541617905560405192835260208301524260408301527f73b455edf7ada135cc3fb97b1de1ccee09399cb89c4bc91dfdd0ea61d26229c060603393a3005b634e487b7160e01b5f52604160045260245ffd5b60405162461bcd60e51b815260206004820152601860248201527f496e76616c6964206e65676f74696174696f6e207479706500000000000000006044820152606490fd5b50600a8410158015610cb25750600d841115610cb2565b60405162461bcd60e51b815260206004820152601e60248201527f446561646c696e65206d75737420626520696e207468652066757475726500006044820152606490fd5b60405162461bcd60e51b8152602060048201526013602482015272526f6f6d20616c72656164792065786973747360681b6044820152606490fd5b3461011c57602036600319011261011c576001600160a01b03610eb4611388565b165f526007602052602060405f2054604051908152f35b3461011c57602036600319011261011c576001600160a01b03610eec611388565b165f526006602052602060405f2054604051908152f35b3461011c57604036600319011261011c576024356001600160a01b038116906004359082900361011c57805f52600260205260ff60405f205416156110be575f818152602081905260409020546001600160a01b0316330361106e57338214611030578115610ff757805f525f602052610fc860ff600960405f2001541660405190610f8e82611440565b8382523360208301524260408301526060820152835f526006602052610fb78160405f2061150a565b335f52600760205260405f2061150a565b604051904282527f2884407fcdc275a371cea04d9f60a046e5a783e64ee7861ecd5eeb2513bc848a60203393a4005b60405162461bcd60e51b8152602060048201526011602482015270125b9d985b1a59081c9958da5c1a595b9d607a1b6044820152606490fd5b60405162461bcd60e51b815260206004820152601660248201527521b0b73737ba1034b73b34ba32903cb7bab939b2b63360511b6044820152606490fd5b60405162461bcd60e51b815260206004820152602260248201527f4f6e6c7920726f6f6d2063726561746f722063616e2073656e6420696e766974604482015261657360f01b6064820152608490fd5b60405162461bcd60e51b8152602060048201526013602482015272149bdbdb48191bd95cc81b9bdd08195e1a5cdd606a1b6044820152606490fd5b3461011c57602036600319011261011c57600435805f525f60205260018060a01b0360405f20541633148015611173575b61113390611496565b5f525f60205260405f2060ff6006820154169060058210156103e25761115d6003604093146114d0565b6004600582015491015482519182526020820152f35b505f818152602081905260409020600101546001600160a01b0316331461112a565b3461011c57602036600319011261011c576004355f525f602052602060ff600660405f200154166111c9604051809261137b565bf35b3461011c57602036600319011261011c576001600160a01b036111ec611388565b165f52600760205260405f2080546112038161147e565b91611211604051938461145c565b81835260208301905f5260205f205f915b838310611237576040518061023d878261139e565b6004602060019260405161124a81611440565b85548152848060a01b038587015416838201526002860154604082015260ff6003870154166060820152815201920192019190611222565b3461011c57602036600319011261011c57610120600435805f525f60205260405f2060018060a01b038154169160018060a01b036001830154169160ff6006820154169060078101549060ff600960088301549201541691845f52600360205261132b60ff60405f20541694865f52600460205260ff60405f205416965f52600560205267ffffffffffffffff60405f20541697604051998a5260208a0152604089019061137b565b6060870152608086015260a0850152151560c0840152151560e0830152610100820152f35b3461011c57602036600319011261011c576020906004355f526003825260ff60405f20541615158152f35b9060058210156103e25752565b600435906001600160a01b038216820361011c57565b60206040818301928281528451809452019201905f5b8181106113c15750505090565b8251805185526020818101516001600160a01b0316818701526040808301519087015260609182015160ff1691860191909152608090940193909201916001016113b4565b359060ff8216820361011c57565b60015481101561142c5760015f5260205f2001905f90565b634e487b7160e01b5f52603260045260245ffd5b6080810190811067ffffffffffffffff821117610da357604052565b90601f8019910116810190811067ffffffffffffffff821117610da357604052565b67ffffffffffffffff8111610da35760051b60200190565b1561149d57565b60405162461bcd60e51b815260206004820152600b60248201526a4e6f74206120706172747960a81b6044820152606490fd5b156114d757565b60405162461bcd60e51b815260206004820152600b60248201526a139bdd081cd95d1d1b195960aa1b6044820152606490fd5b805490600160401b821015610da3576001820180825582101561142c5760ff606081936003935f5260205f209060021b01948051865560018060a01b03602082015116600187019060018060a01b03166bffffffffffffffffffffffff60a01b825416179055604081015160028701550151169201911660ff19825416179055565b919060808382031261011c576040516115a481611440565b8093803582526115b660208201611406565b60208301526115c760408201611406565b604083015260608101359067ffffffffffffffff821161011c57019082601f8301121561011c57813567ffffffffffffffff8111610da35760405193611617601f8301601f19166020018661145c565b8185526020828501011161011c576020815f92826060960183880137850101520152565b60ff6040820151166005810361175b5750602060ff9160608060405161166081611440565b5f81525f858201525f6040820152015260e481518360608682860151169401516040519261168d84611440565b83528183019485528660408401600581526060850192835260405198899788966313fce3b160e11b885260406004890152516044880152511660648601525116608484015251608060a484015280519182918260c4860152018484015e5f838284010152336024830152601f801991011681010301815f73ea30c4b8b44078bbf8a6ef5b9f1ec1626c7848d95af1908115610939575f9161172c575090565b90506020813d602011611753575b816117476020938361145c565b8101031261011c575190565b3d915061173a565b6367cf307160e01b5f52600452600560245260445ffd5b73ea30c4b8b44078bbf8a6ef5b9f1ec1626c7848d93b1561011c57604051631974142760e21b815260048101919091523360248201525f8180604481015b03818373ea30c4b8b44078bbf8a6ef5b9f1ec1626c7848d95af18015610939576117d75750565b5f6117e19161145c565b565b73ea30c4b8b44078bbf8a6ef5b9f1ec1626c7848d93b1561011c57604051631974142760e21b815260048101919091523060248201525f8180604481016117b0565b9081156118f6575b80156118e8575b6040519161184360608461145c565b600283526040366020850137611858836119ed565b52611862826119fa565b5261189e6020809260405190611878838361145c565b5f82525f368137604051631888debd60e01b8152938492839260126005600486016119bd565b03815f73ea30c4b8b44078bbf8a6ef5b9f1ec1626c7848d95af1918215610939575f926118ca57505090565b90809250813d83116118e1575b611747818361145c565b503d6118d7565b506118f1611a1a565b611834565b9050611900611a1a565b9061182d565b73ea30c4b8b44078bbf8a6ef5b9f1ec1626c7848d93b1561011c57604051631974142760e21b815260048101919091526001600160a01b0390911660248201525f8180604481016117b0565b90602080835192838152019201905f5b81811061196f5750505090565b8251845260209384019390920191600101611962565b916119ac9060ff6119ba9593168452601a6020850152608060408501526080840190611952565b916060818403910152611952565b90565b9293919060ff16835260208110156103e2576119ba936119ac916020850152608060408501526080840190611952565b80511561142c5760200190565b80516001101561142c5760400190565b80516002101561142c5760600190565b602061189e81604051611a2d828261145c565b5f81525f36813760405190611a4360808361145c565b60038252606036848401375f611a58836119ed565b526005611a64836119fa565b525f611a6f83611a0a565b52604051631888debd60e01b8152938492839260056004850161198556fea26469706673582212201e3f9541d9e5a97de40c0181d703beae202b48707984306b732511dbc395b2b064736f6c634300081a0033","linkReferences":{}},"methodIdentifiers":{"createRoom(bytes32,(uint256,uint8,uint8,bytes),uint8,uint256)":"90045a6a","getEncryptedResult(bytes32)":"377e89e2","getPublishedResult(bytes32)":"e3b5e0ff","getReceivedInviteCount(address)":"490d98e6","getReceivedInvites(address)":"db5aabc5","getRoomCount()":"eadddb3c","getRoomIdAt(uint256)":"9f51b339","getRoomInfo(bytes32)":"08aede14","getRoomStatus(bytes32)":"2f0fc53d","getSentInviteCount(address)":"5226ea99","getSentInvites(address)":"1053a3ab","joinAndCompute(bytes32,(uint256,uint8,uint8,bytes))":"a7be8e20","matchResult(bytes32)":"f3db82aa","publishResult(bytes32,bool,uint64)":"da2dd789","publishedPrice(bytes32)":"d22932bb","resultPublished(bytes32)":"02acc400","roomExists(bytes32)":"e88724fd","roomIds(uint256)":"ad7708cf","sendInvite(bytes32,address)":"3c553586"},"id":30}