{"abi":[{"type":"function","name":"createRoom","inputs":[{"name":"roomId","type":"bytes32","internalType":"bytes32"},{"name":"encFloor","type":"tuple","internalType":"struct InEuint64","components":[{"name":"ctHash","type":"uint256","internalType":"uint256"},{"name":"securityZone","type":"uint8","internalType":"uint8"},{"name":"utype","type":"uint8","internalType":"uint8"},{"name":"signature","type":"bytes","internalType":"bytes"}]},{"name":"nType","type":"uint8","internalType":"uint8"},{"name":"deadline","type":"uint256","internalType":"uint256"}],"outputs":[],"stateMutability":"nonpayable"},{"type":"function","name":"getEncryptedResult","inputs":[{"name":"roomId","type":"bytes32","internalType":"bytes32"}],"outputs":[{"name":"encAgreedPrice","type":"bytes32","internalType":"euint64"},{"name":"encMatched","type":"bytes32","internalType":"ebool"}],"stateMutability":"view"},{"type":"function","name":"getPublishedResult","inputs":[{"name":"roomId","type":"bytes32","internalType":"bytes32"}],"outputs":[{"name":"isPublished","type":"bool","internalType":"bool"},{"name":"matched","type":"bool","internalType":"bool"},{"name":"agreedPrice","type":"uint64","internalType":"uint64"}],"stateMutability":"view"},{"type":"function","name":"getReceivedInviteCount","inputs":[{"name":"recipient","type":"address","internalType":"address"}],"outputs":[{"name":"","type":"uint256","internalType":"uint256"}],"stateMutability":"view"},{"type":"function","name":"getReceivedInvites","inputs":[{"name":"recipient","type":"address","internalType":"address"}],"outputs":[{"name":"","type":"tuple[]","internalType":"struct BlindNegotiation.Invite[]","components":[{"name":"roomId","type":"bytes32","internalType":"bytes32"},{"name":"sender","type":"address","internalType":"address"},{"name":"timestamp","type":"uint256","internalType":"uint256"},{"name":"negotiationType","type":"uint8","internalType":"uint8"}]}],"stateMutability":"view"},{"type":"function","name":"getRoomCount","inputs":[],"outputs":[{"name":"","type":"uint256","internalType":"uint256"}],"stateMutability":"view"},{"type":"function","name":"getRoomIdAt","inputs":[{"name":"index","type":"uint256","internalType":"uint256"}],"outputs":[{"name":"","type":"bytes32","internalType":"bytes32"}],"stateMutability":"view"},{"type":"function","name":"getRoomInfo","inputs":[{"name":"roomId","type":"bytes32","internalType":"bytes32"}],"outputs":[{"name":"partyA","type":"address","internalType":"address"},{"name":"partyB","type":"address","internalType":"address"},{"name":"status","type":"uint8","internalType":"enum BlindNegotiation.RoomStatus"},{"name":"createdAt","type":"uint256","internalType":"uint256"},{"name":"deadline","type":"uint256","internalType":"uint256"},{"name":"negotiationType","type":"uint8","internalType":"uint8"},{"name":"isResultPublished","type":"bool","internalType":"bool"},{"name":"matched","type":"bool","internalType":"bool"},{"name":"agreedPrice","type":"uint64","internalType":"uint64"}],"stateMutability":"view"},{"type":"function","name":"getRoomStatus","inputs":[{"name":"roomId","type":"bytes32","internalType":"bytes32"}],"outputs":[{"name":"","type":"uint8","internalType":"enum BlindNegotiation.RoomStatus"}],"stateMutability":"view"},{"type":"function","name":"getSentInviteCount","inputs":[{"name":"sender","type":"address","internalType":"address"}],"outputs":[{"name":"","type":"uint256","internalType":"uint256"}],"stateMutability":"view"},{"type":"function","name":"getSentInvites","inputs":[{"name":"sender","type":"address","internalType":"address"}],"outputs":[{"name":"","type":"tuple[]","internalType":"struct BlindNegotiation.Invite[]","components":[{"name":"roomId","type":"bytes32","internalType":"bytes32"},{"name":"sender","type":"address","internalType":"address"},{"name":"timestamp","type":"uint256","internalType":"uint256"},{"name":"negotiationType","type":"uint8","internalType":"uint8"}]}],"stateMutability":"view"},{"type":"function","name":"joinAndCompute","inputs":[{"name":"roomId","type":"bytes32","internalType":"bytes32"},{"name":"encCeiling","type":"tuple","internalType":"struct InEuint64","components":[{"name":"ctHash","type":"uint256","internalType":"uint256"},{"name":"securityZone","type":"uint8","internalType":"uint8"},{"name":"utype","type":"uint8","internalType":"uint8"},{"name":"signature","type":"bytes","internalType":"bytes"}]}],"outputs":[],"stateMutability":"nonpayable"},{"type":"function","name":"matchResult","inputs":[{"name":"","type":"bytes32","internalType":"bytes32"}],"outputs":[{"name":"","type":"bool","internalType":"bool"}],"stateMutability":"view"},{"type":"function","name":"publishResult","inputs":[{"name":"roomId","type":"bytes32","internalType":"bytes32"},{"name":"_matched","type":"bool","internalType":"bool"},{"name":"_agreedPrice","type":"uint64","internalType":"uint64"}],"outputs":[],"stateMutability":"nonpayable"},{"type":"function","name":"publishedPrice","inputs":[{"name":"","type":"bytes32","internalType":"bytes32"}],"outputs":[{"name":"","type":"uint64","internalType":"uint64"}],"stateMutability":"view"},{"type":"function","name":"resultPublished","inputs":[{"name":"","type":"bytes32","internalType":"bytes32"}],"outputs":[{"name":"","type":"bool","internalType":"bool"}],"stateMutability":"view"},{"type":"function","name":"roomExists","inputs":[{"name":"","type":"bytes32","internalType":"bytes32"}],"outputs":[{"name":"","type":"bool","internalType":"bool"}],"stateMutability":"view"},{"type":"function","name":"roomIds","inputs":[{"name":"","type":"uint256","internalType":"uint256"}],"outputs":[{"name":"","type":"bytes32","internalType":"bytes32"}],"stateMutability":"view"},{"type":"function","name":"sendInvite","inputs":[{"name":"roomId","type":"bytes32","internalType":"bytes32"},{"name":"recipient","type":"address","internalType":"address"}],"outputs":[],"stateMutability":"nonpayable"},{"type":"event","name":"InviteSent","inputs":[{"name":"roomId","type":"bytes32","indexed":true,"internalType":"bytes32"},{"name":"sender","type":"address","indexed":true,"internalType":"address"},{"name":"recipient","type":"address","indexed":true,"internalType":"address"},{"name":"timestamp","type":"uint256","indexed":false,"internalType":"uint256"}],"anonymous":false},{"type":"event","name":"MatchComputed","inputs":[{"name":"roomId","type":"bytes32","indexed":true,"internalType":"bytes32"},{"name":"timestamp","type":"uint256","indexed":false,"internalType":"uint256"}],"anonymous":false},{"type":"event","name":"ResultPublished","inputs":[{"name":"roomId","type":"bytes32","indexed":true,"internalType":"bytes32"},{"name":"matched","type":"bool","indexed":false,"internalType":"bool"},{"name":"agreedPrice","type":"uint64","indexed":false,"internalType":"uint64"},{"name":"timestamp","type":"uint256","indexed":false,"internalType":"uint256"}],"anonymous":false},{"type":"event","name":"RoomCreated","inputs":[{"name":"roomId","type":"bytes32","indexed":true,"internalType":"bytes32"},{"name":"partyA","type":"address","indexed":true,"internalType":"address"},{"name":"nType","type":"uint8","indexed":false,"internalType":"uint8"},{"name":"deadline","type":"uint256","indexed":false,"internalType":"uint256"},{"name":"timestamp","type":"uint256","indexed":false,"internalType":"uint256"}],"anonymous":false},{"type":"event","name":"RoomJoined","inputs":[{"name":"roomId","type":"bytes32","indexed":true,"internalType":"bytes32"},{"name":"partyB","type":"address","indexed":true,"internalType":"address"},{"name":"timestamp","type":"uint256","indexed":false,"internalType":"uint256"}],"anonymous":false},{"type":"error","name":"InvalidEncryptedInput","inputs":[{"name":"got","type":"uint8","internalType":"uint8"},{"name":"expected","type":"uint8","internalType":"uint8"}]},{"type":"error","name":"SecurityZoneOutOfBounds","inputs":[{"name":"value","type":"int32","internalType":"int32"}]}],"bytecode":{"object":"0x60808060405234601557611ac9908161001a8239f35b5f80fdfe6080806040526004361015610012575f80fd5b5f3560e01c90816302acc400146113ed5750806308aede141461131f5780631053a3ab146112685780632f0fc53d14611232578063377e89e2146111965780633c55358614610fa0578063490d98e614610f685780635226ea9914610f3057806390045a6a14610d005780639f51b33914610c9c578063a7be8e2014610484578063ad7708cf1461044c578063d22932bb14610418578063da2dd7891461028c578063db5aabc5146101d1578063e3b5e0ff1461016c578063e88724fd1461013d578063eadddb3c146101205763f3db82aa146100ed575f80fd5b3461011c57602036600319011261011c576004355f526004602052602060ff60405f2054166040519015158152f35b5f80fd5b3461011c575f36600319011261011c576020600154604051908152f35b3461011c57602036600319011261011c576004355f526002602052602060ff60405f2054166040519015158152f35b3461011c57602036600319011261011c576060600435805f52600360205260ff60405f20541690805f52600460205260ff60405f205416905f52600560205267ffffffffffffffff60405f205416906040519215158352151560208301526040820152f35b3461011c57602036600319011261011c576001600160a01b036101f2611425565b165f52600660205260405f2080546102098161151b565b9161021760405193846114f9565b81835260208301905f5260205f205f915b838310610241576040518061023d878261143b565b0390f35b60046020600192604051610254816114dd565b85548152848060a01b038587015416838201526002860154604082015260ff6003870154166060820152815201920192019190610228565b3461011c57606036600319011261011c5760043560243580151580910361011c5760443567ffffffffffffffff811680910361011c57825f525f60205260018060a01b0360405f205416331480156103f6575b6102e890611533565b825f525f60205260ff600660405f2001541660058110156103e257600361030f911461156d565b825f52600360205260ff60405f2054166103a9577f4e60cc513e2f54d161d3b39c428223c2426084d90a99d0fb838463da61e32e7891606091845f52600360205260405f20600160ff19825416179055845f52600460205260405f2060ff1981541660ff8416179055845f52600560205260405f208167ffffffffffffffff198254161790556040519182526020820152426040820152a2005b60405162461bcd60e51b8152602060048201526011602482015270105b1c9958591e481c1d589b1a5cda1959607a1b6044820152606490fd5b634e487b7160e01b5f52602160045260245ffd5b505f838152602081905260409020600101546001600160a01b031633146102df565b3461011c57602036600319011261011c576004355f526005602052602067ffffffffffffffff60405f205416604051908152f35b3461011c57602036600319011261011c5760043560015481101561011c576104756020916114b1565b90549060031b1c604051908152f35b3461011c57604036600319011261011c5760243560043567ffffffffffffffff821161011c576080600319833603011261011c57805f525f60205260405f20600681019060ff82541660058110156103e257600103610c575760088101544211610c1f5780546001600160a01b03163314610bda576001810180546001600160a01b031916331781559361052590610520903690600401611629565b6116d8565b93610536600383019580875561180f565b6105408554611880565b600260ff19845416178355845491600281018054968415610bca575b8715610bba575b6040519761057260608a6114f9565b60028952604095863660208c01376105898a6119a9565b52610593896119b6565b526105cf60208099604051906105a983836114f9565b5f82525f368137604051631888debd60e01b815293849283926012600560048601611979565b03815f73ea30c4b8b44078bbf8a6ef5b9f1ec1626c7848d95af19182156109bb5789915f93610b87575b50829361067393505490548115610b77575b8015610b69575b604051916106216060846114f9565b60028352883685850137610634836119a9565b5261063e826119b6565b526040519061064d83836114f9565b5f82525f368137604051631888debd60e01b815293849283926008600560048601611979565b03815f73ea30c4b8b44078bbf8a6ef5b9f1ec1626c7848d95af19081156109bb575f91610b3c575b506040516106a989826114f9565b5f81525f3681376107146080968a6040516106c48a826114f9565b60038152601f198a019485368484013760026106df836119a9565b5260056106eb836119b6565b525f6106f6836119c6565b52604051631888debd60e01b81529485928392600560048501611941565b03815f73ea30c4b8b44078bbf8a6ef5b9f1ec1626c7848d95af180156109bb578b925f91610b09575b506107b094818115610af9575b15610ae9575b6040519261075f6060856114f9565b600284523685850137610771836119a9565b5261077b826119b6565b526040519061078a83836114f9565b5f82525f368137604051631888debd60e01b81529485928392600d600560048601611979565b03815f73ea30c4b8b44078bbf8a6ef5b9f1ec1626c7848d95af19586156109bb5789925f97610ab8575b506107e36119d6565b878586156109e6575b61087899156109d6575b82156109c6575b6040519461080b85876114f9565b60038652368787013761081d856119a9565b52610827846119b6565b52610831836119c6565b5261088a60405161084285826114f9565b5f81525f3681376040519889948594631888debd60e01b865260056004870152600460248701526044860152608485019061190e565b8381036003190160648501529061190e565b03815f73ea30c4b8b44078bbf8a6ef5b9f1ec1626c7848d95af19384156109bb575f94610988575b50916109138261090061092696956108e560046108fa9701918083556005850198895560018060a01b03855416906118c2565b6108fa815460018060a01b03875416906118c2565b54611880565b845490546001600160a01b0316906118c2565b825490546001600160a01b0316906118c2565b600360ff19825416179055807f2217f4f84668660fcda807d2e4735f11a3e25faae11b6dbc5fa478eba177478f83604051428152a27f7fb92d9ef81fb1a14948efd516a9cd1343209038f191b7901ad2625166085a7c604051924284523393a3005b9350918684813d83116109b4575b6109a081836114f9565b8101031261011c57925192916109136108b2565b503d610996565b6040513d5f823e3d90fd5b91506109d06119d6565b916107fd565b90506109e06119d6565b906107f6565b50610a5694508b6040516109fa82826114f9565b5f81525f36813760405190610a0f86836114f9565b600382528636848401375f610a23836119a9565b525f610a2e836119b6565b525f610a39836119c6565b52604051631888debd60e01b815297889283925f60048501611941565b03815f73ea30c4b8b44078bbf8a6ef5b9f1ec1626c7848d95af180156109bb578c955f91610a85575b506107ec565b86819792503d8311610ab1575b610a9c81836114f9565b8101031261011c5793518b9490610878610a7f565b503d610a92565b8381949298503d8311610ae2575b610ad081836114f9565b8101031261011c57889151958a6107da565b503d610ac6565b9050610af36119d6565b90610750565b9050610b036119d6565b9061074a565b83819492503d8311610b35575b610b2081836114f9565b8101031261011c5790518a91906107b061073d565b503d610b16565b90508781813d8311610b62575b610b5381836114f9565b8101031261011c57518861069b565b503d610b49565b50610b726119d6565b610612565b9050610b816119d6565b9061060b565b8281939294503d8311610bb3575b610b9f81836114f9565b8101031261011c57519088906106736105f9565b503d610b95565b9650610bc46119d6565b96610563565b9350610bd46119d6565b9361055c565b60405162461bcd60e51b815260206004820152601960248201527f43616e6e6f74206a6f696e20796f7572206f776e20726f6f6d000000000000006044820152606490fd5b60405162461bcd60e51b815260206004820152601060248201526f149bdbdb481a185cc8195e1c1a5c995960821b6044820152606490fd5b60405162461bcd60e51b815260206004820152601860248201527f526f6f6d206e6f7420616363657074696e67206a6f696e7300000000000000006044820152606490fd5b3461011c57602036600319011261011c57600435600154811015610cc5576104756020916114b1565b60405162461bcd60e51b8152602060048201526013602482015272496e646578206f7574206f6620626f756e647360681b6044820152606490fd5b3461011c57608036600319011261011c5760243560043567ffffffffffffffff821161011c576080600319833603011261011c576044359160ff831680930361011c5760643590825f52600260205260ff60405f205416610ef55742821115610eb05760038411610e6b57600990835f525f602052610dae610d8d61052060405f20933690600401611629565b6002830181815583546001600160a01b03191633178455906108fa9061180f565b60068101600160ff19825416179055426007820155826008820155018360ff19825416179055600154600160401b811015610e5757806001610df392016001556114b1565b81549060031b9084821b915f19901b1916179055815f52600260205260405f20600160ff1982541617905560405192835260208301524260408301527f73b455edf7ada135cc3fb97b1de1ccee09399cb89c4bc91dfdd0ea61d26229c060603393a3005b634e487b7160e01b5f52604160045260245ffd5b60405162461bcd60e51b815260206004820152601860248201527f496e76616c6964206e65676f74696174696f6e207479706500000000000000006044820152606490fd5b60405162461bcd60e51b815260206004820152601e60248201527f446561646c696e65206d75737420626520696e207468652066757475726500006044820152606490fd5b60405162461bcd60e51b8152602060048201526013602482015272526f6f6d20616c72656164792065786973747360681b6044820152606490fd5b3461011c57602036600319011261011c576001600160a01b03610f51611425565b165f526007602052602060405f2054604051908152f35b3461011c57602036600319011261011c576001600160a01b03610f89611425565b165f526006602052602060405f2054604051908152f35b3461011c57604036600319011261011c576024356001600160a01b038116906004359082900361011c57805f52600260205260ff60405f2054161561115b575f818152602081905260409020546001600160a01b0316330361110b573382146110cd57811561109457805f525f60205261106560ff600960405f200154166040519061102b826114dd565b8382523360208301524260408301526060820152835f5260066020526110548160405f206115a7565b335f52600760205260405f206115a7565b604051904282527f2884407fcdc275a371cea04d9f60a046e5a783e64ee7861ecd5eeb2513bc848a60203393a4005b60405162461bcd60e51b8152602060048201526011602482015270125b9d985b1a59081c9958da5c1a595b9d607a1b6044820152606490fd5b60405162461bcd60e51b815260206004820152601660248201527521b0b73737ba1034b73b34ba32903cb7bab939b2b63360511b6044820152606490fd5b60405162461bcd60e51b815260206004820152602260248201527f4f6e6c7920726f6f6d2063726561746f722063616e2073656e6420696e766974604482015261657360f01b6064820152608490fd5b60405162461bcd60e51b8152602060048201526013602482015272149bdbdb48191bd95cc81b9bdd08195e1a5cdd606a1b6044820152606490fd5b3461011c57602036600319011261011c57600435805f525f60205260018060a01b0360405f20541633148015611210575b6111d090611533565b5f525f60205260405f2060ff6006820154169060058210156103e2576111fa60036040931461156d565b6004600582015491015482519182526020820152f35b505f818152602081905260409020600101546001600160a01b031633146111c7565b3461011c57602036600319011261011c576004355f525f602052602060ff600660405f200154166112666040518092611418565bf35b3461011c57602036600319011261011c576001600160a01b03611289611425565b165f52600760205260405f2080546112a08161151b565b916112ae60405193846114f9565b81835260208301905f5260205f205f915b8383106112d4576040518061023d878261143b565b600460206001926040516112e7816114dd565b85548152848060a01b038587015416838201526002860154604082015260ff60038701541660608201528152019201920191906112bf565b3461011c57602036600319011261011c57610120600435805f525f60205260405f2060018060a01b038154169160018060a01b036001830154169160ff6006820154169060078101549060ff600960088301549201541691845f5260036020526113c860ff60405f20541694865f52600460205260ff60405f205416965f52600560205267ffffffffffffffff60405f20541697604051998a5260208a01526040890190611418565b6060870152608086015260a0850152151560c0840152151560e0830152610100820152f35b3461011c57602036600319011261011c576020906004355f526003825260ff60405f20541615158152f35b9060058210156103e25752565b600435906001600160a01b038216820361011c57565b60206040818301928281528451809452019201905f5b81811061145e5750505090565b8251805185526020818101516001600160a01b0316818701526040808301519087015260609182015160ff169186019190915260809094019390920191600101611451565b359060ff8216820361011c57565b6001548110156114c95760015f5260205f2001905f90565b634e487b7160e01b5f52603260045260245ffd5b6080810190811067ffffffffffffffff821117610e5757604052565b90601f8019910116810190811067ffffffffffffffff821117610e5757604052565b67ffffffffffffffff8111610e575760051b60200190565b1561153a57565b60405162461bcd60e51b815260206004820152600b60248201526a4e6f74206120706172747960a81b6044820152606490fd5b1561157457565b60405162461bcd60e51b815260206004820152600b60248201526a139bdd081cd95d1d1b195960aa1b6044820152606490fd5b805490600160401b821015610e5757600182018082558210156114c95760ff606081936003935f5260205f209060021b01948051865560018060a01b03602082015116600187019060018060a01b03166bffffffffffffffffffffffff60a01b825416179055604081015160028701550151169201911660ff19825416179055565b919060808382031261011c57604051611641816114dd565b809380358252611653602082016114a3565b6020830152611664604082016114a3565b604083015260608101359067ffffffffffffffff821161011c57019082601f8301121561011c57813567ffffffffffffffff8111610e5757604051936116b4601f8301601f1916602001866114f9565b8185526020828501011161011c576020815f92826060960183880137850101520152565b60ff604082015116600581036117f85750602060ff916060806040516116fd816114dd565b5f81525f858201525f6040820152015260e481518360608682860151169401516040519261172a846114dd565b83528183019485528660408401600581526060850192835260405198899788966313fce3b160e11b885260406004890152516044880152511660648601525116608484015251608060a484015280519182918260c4860152018484015e5f838284010152336024830152601f801991011681010301815f73ea30c4b8b44078bbf8a6ef5b9f1ec1626c7848d95af19081156109bb575f916117c9575090565b90506020813d6020116117f0575b816117e4602093836114f9565b8101031261011c575190565b3d91506117d7565b6367cf307160e01b5f52600452600560245260445ffd5b73ea30c4b8b44078bbf8a6ef5b9f1ec1626c7848d93b1561011c57604051631974142760e21b815260048101919091523360248201525f8180604481015b03818373ea30c4b8b44078bbf8a6ef5b9f1ec1626c7848d95af180156109bb576118745750565b5f61187e916114f9565b565b73ea30c4b8b44078bbf8a6ef5b9f1ec1626c7848d93b1561011c57604051631974142760e21b815260048101919091523060248201525f81806044810161184d565b73ea30c4b8b44078bbf8a6ef5b9f1ec1626c7848d93b1561011c57604051631974142760e21b815260048101919091526001600160a01b0390911660248201525f81806044810161184d565b90602080835192838152019201905f5b81811061192b5750505090565b825184526020938401939092019160010161191e565b916119689060ff6119769593168452601a602085015260806040850152608084019061190e565b91606081840391015261190e565b90565b9293919060ff16835260208110156103e2576119769361196891602085015260806040850152608084019061190e565b8051156114c95760200190565b8051600110156114c95760400190565b8051600210156114c95760600190565b6020611a49816040516119e982826114f9565b5f81525f368137604051906119ff6080836114f9565b60038252606036848401375f611a14836119a9565b526005611a20836119b6565b525f611a2b836119c6565b52604051631888debd60e01b81529384928392600560048501611941565b03815f73ea30c4b8b44078bbf8a6ef5b9f1ec1626c7848d95af19182156109bb575f92611a7557505090565b90809250813d8311611a8c575b6117e481836114f9565b503d611a8256fea2646970667358221220719ce3e194087b8b92811159128b3a4c87f918efbbc444121485c9e18ad09c5564736f6c634300081a0033","linkReferences":{}},"methodIdentifiers":{"createRoom(bytes32,(uint256,uint8,uint8,bytes),uint8,uint256)":"90045a6a","getEncryptedResult(bytes32)":"377e89e2","getPublishedResult(bytes32)":"e3b5e0ff","getReceivedInviteCount(address)":"490d98e6","getReceivedInvites(address)":"db5aabc5","getRoomCount()":"eadddb3c","getRoomIdAt(uint256)":"9f51b339","getRoomInfo(bytes32)":"08aede14","getRoomStatus(bytes32)":"2f0fc53d","getSentInviteCount(address)":"5226ea99","getSentInvites(address)":"1053a3ab","joinAndCompute(bytes32,(uint256,uint8,uint8,bytes))":"a7be8e20","matchResult(bytes32)":"f3db82aa","publishResult(bytes32,bool,uint64)":"da2dd789","publishedPrice(bytes32)":"d22932bb","resultPublished(bytes32)":"02acc400","roomExists(bytes32)":"e88724fd","roomIds(uint256)":"ad7708cf","sendInvite(bytes32,address)":"3c553586"},"id":30}