{"abi":[{"type":"function","name":"createRoom","inputs":[{"name":"roomId","type":"bytes32","internalType":"bytes32"},{"name":"encFloor","type":"tuple","internalType":"struct InEuint64","components":[{"name":"ctHash","type":"uint256","internalType":"uint256"},{"name":"securityZone","type":"uint8","internalType":"uint8"},{"name":"utype","type":"uint8","internalType":"uint8"},{"name":"signature","type":"bytes","internalType":"bytes"}]},{"name":"nType","type":"uint8","internalType":"uint8"},{"name":"deadline","type":"uint256","internalType":"uint256"},{"name":"metadata","type":"string","internalType":"string"}],"outputs":[],"stateMutability":"nonpayable"},{"type":"function","name":"getEncryptedResult","inputs":[{"name":"roomId","type":"bytes32","internalType":"bytes32"}],"outputs":[{"name":"encAgreedPrice","type":"bytes32","internalType":"euint64"},{"name":"encMatched","type":"bytes32","internalType":"ebool"}],"stateMutability":"view"},{"type":"function","name":"getPublishedResult","inputs":[{"name":"roomId","type":"bytes32","internalType":"bytes32"}],"outputs":[{"name":"isPublished","type":"bool","internalType":"bool"},{"name":"matched","type":"bool","internalType":"bool"},{"name":"agreedPrice","type":"uint64","internalType":"uint64"}],"stateMutability":"view"},{"type":"function","name":"getReceivedInviteCount","inputs":[{"name":"recipient","type":"address","internalType":"address"}],"outputs":[{"name":"","type":"uint256","internalType":"uint256"}],"stateMutability":"view"},{"type":"function","name":"getReceivedInvites","inputs":[{"name":"recipient","type":"address","internalType":"address"}],"outputs":[{"name":"","type":"tuple[]","internalType":"struct BlindNegotiation.Invite[]","components":[{"name":"roomId","type":"bytes32","internalType":"bytes32"},{"name":"sender","type":"address","internalType":"address"},{"name":"timestamp","type":"uint256","internalType":"uint256"},{"name":"negotiationType","type":"uint8","internalType":"uint8"}]}],"stateMutability":"view"},{"type":"function","name":"getRoomCount","inputs":[],"outputs":[{"name":"","type":"uint256","internalType":"uint256"}],"stateMutability":"view"},{"type":"function","name":"getRoomIdAt","inputs":[{"name":"index","type":"uint256","internalType":"uint256"}],"outputs":[{"name":"","type":"bytes32","internalType":"bytes32"}],"stateMutability":"view"},{"type":"function","name":"getRoomInfo","inputs":[{"name":"roomId","type":"bytes32","internalType":"bytes32"}],"outputs":[{"name":"partyA","type":"address","internalType":"address"},{"name":"partyB","type":"address","internalType":"address"},{"name":"status","type":"uint8","internalType":"enum BlindNegotiation.RoomStatus"},{"name":"createdAt","type":"uint256","internalType":"uint256"},{"name":"deadline","type":"uint256","internalType":"uint256"},{"name":"negotiationType","type":"uint8","internalType":"uint8"},{"name":"isResultPublished","type":"bool","internalType":"bool"},{"name":"matched","type":"bool","internalType":"bool"},{"name":"agreedPrice","type":"uint64","internalType":"uint64"}],"stateMutability":"view"},{"type":"function","name":"getRoomStatus","inputs":[{"name":"roomId","type":"bytes32","internalType":"bytes32"}],"outputs":[{"name":"","type":"uint8","internalType":"enum BlindNegotiation.RoomStatus"}],"stateMutability":"view"},{"type":"function","name":"getSentInviteCount","inputs":[{"name":"sender","type":"address","internalType":"address"}],"outputs":[{"name":"","type":"uint256","internalType":"uint256"}],"stateMutability":"view"},{"type":"function","name":"getSentInvites","inputs":[{"name":"sender","type":"address","internalType":"address"}],"outputs":[{"name":"","type":"tuple[]","internalType":"struct BlindNegotiation.Invite[]","components":[{"name":"roomId","type":"bytes32","internalType":"bytes32"},{"name":"sender","type":"address","internalType":"address"},{"name":"timestamp","type":"uint256","internalType":"uint256"},{"name":"negotiationType","type":"uint8","internalType":"uint8"}]}],"stateMutability":"view"},{"type":"function","name":"joinAndCompute","inputs":[{"name":"roomId","type":"bytes32","internalType":"bytes32"},{"name":"encCeiling","type":"tuple","internalType":"struct InEuint64","components":[{"name":"ctHash","type":"uint256","internalType":"uint256"},{"name":"securityZone","type":"uint8","internalType":"uint8"},{"name":"utype","type":"uint8","internalType":"uint8"},{"name":"signature","type":"bytes","internalType":"bytes"}]}],"outputs":[],"stateMutability":"nonpayable"},{"type":"function","name":"matchResult","inputs":[{"name":"","type":"bytes32","internalType":"bytes32"}],"outputs":[{"name":"","type":"bool","internalType":"bool"}],"stateMutability":"view"},{"type":"function","name":"publishResult","inputs":[{"name":"roomId","type":"bytes32","internalType":"bytes32"},{"name":"_matched","type":"bool","internalType":"bool"},{"name":"_agreedPrice","type":"uint64","internalType":"uint64"}],"outputs":[],"stateMutability":"nonpayable"},{"type":"function","name":"publishedPrice","inputs":[{"name":"","type":"bytes32","internalType":"bytes32"}],"outputs":[{"name":"","type":"uint64","internalType":"uint64"}],"stateMutability":"view"},{"type":"function","name":"resultPublished","inputs":[{"name":"","type":"bytes32","internalType":"bytes32"}],"outputs":[{"name":"","type":"bool","internalType":"bool"}],"stateMutability":"view"},{"type":"function","name":"roomExists","inputs":[{"name":"","type":"bytes32","internalType":"bytes32"}],"outputs":[{"name":"","type":"bool","internalType":"bool"}],"stateMutability":"view"},{"type":"function","name":"roomIds","inputs":[{"name":"","type":"uint256","internalType":"uint256"}],"outputs":[{"name":"","type":"bytes32","internalType":"bytes32"}],"stateMutability":"view"},{"type":"function","name":"roomMetadata","inputs":[{"name":"","type":"bytes32","internalType":"bytes32"}],"outputs":[{"name":"","type":"string","internalType":"string"}],"stateMutability":"view"},{"type":"function","name":"sendInvite","inputs":[{"name":"roomId","type":"bytes32","internalType":"bytes32"},{"name":"recipient","type":"address","internalType":"address"}],"outputs":[],"stateMutability":"nonpayable"},{"type":"event","name":"InviteSent","inputs":[{"name":"roomId","type":"bytes32","indexed":true,"internalType":"bytes32"},{"name":"sender","type":"address","indexed":true,"internalType":"address"},{"name":"recipient","type":"address","indexed":true,"internalType":"address"},{"name":"timestamp","type":"uint256","indexed":false,"internalType":"uint256"}],"anonymous":false},{"type":"event","name":"MatchComputed","inputs":[{"name":"roomId","type":"bytes32","indexed":true,"internalType":"bytes32"},{"name":"timestamp","type":"uint256","indexed":false,"internalType":"uint256"}],"anonymous":false},{"type":"event","name":"ResultPublished","inputs":[{"name":"roomId","type":"bytes32","indexed":true,"internalType":"bytes32"},{"name":"matched","type":"bool","indexed":false,"internalType":"bool"},{"name":"agreedPrice","type":"uint64","indexed":false,"internalType":"uint64"},{"name":"timestamp","type":"uint256","indexed":false,"internalType":"uint256"}],"anonymous":false},{"type":"event","name":"RoomCreated","inputs":[{"name":"roomId","type":"bytes32","indexed":true,"internalType":"bytes32"},{"name":"partyA","type":"address","indexed":true,"internalType":"address"},{"name":"nType","type":"uint8","indexed":false,"internalType":"uint8"},{"name":"deadline","type":"uint256","indexed":false,"internalType":"uint256"},{"name":"timestamp","type":"uint256","indexed":false,"internalType":"uint256"}],"anonymous":false},{"type":"event","name":"RoomJoined","inputs":[{"name":"roomId","type":"bytes32","indexed":true,"internalType":"bytes32"},{"name":"partyB","type":"address","indexed":true,"internalType":"address"},{"name":"timestamp","type":"uint256","indexed":false,"internalType":"uint256"}],"anonymous":false},{"type":"error","name":"InvalidEncryptedInput","inputs":[{"name":"got","type":"uint8","internalType":"uint8"},{"name":"expected","type":"uint8","internalType":"uint8"}]},{"type":"error","name":"SecurityZoneOutOfBounds","inputs":[{"name":"value","type":"int32","internalType":"int32"}]}],"bytecode":{"object":"0x60808060405234601557611d2d908161001a8239f35b5f80fdfe6080806040526004361015610012575f80fd5b5f3560e01c90816302acc4001461157a5750806308aede14146114ad5780631053a3ab146113f65780632f0fc53d146113c0578063377e89e2146113245780633c5535861461112e578063490d98e6146110f65780635226ea99146110be5780639f51b3391461105a578063a7be8e201461090b578063ad7708cf146108d3578063b3d19f12146107ff578063d22932bb146107cc578063da2dd78914610642578063db5aabc514610587578063de6aa4a8146101db578063e3b5e0ff14610177578063e88724fd14610148578063eadddb3c1461012b5763f3db82aa146100f8575f80fd5b34610127576020366003190112610127576004355f526005602052602060ff60405f2054166040519015158152f35b5f80fd5b34610127575f366003190112610127576020600354604051908152f35b34610127576020366003190112610127576004355f526001602052602060ff60405f2054166040519015158152f35b34610127576020366003190112610127576060600435805f52600460205260ff60405f20541690805f52600560205260ff60405f205416905f5260066020526001600160401b0360405f205416906040519215158352151560208301526040820152f35b346101275760a0366003190112610127576024356004356001600160401b0382116101275760806003198336030112610127576044359160ff83168093036101275760643590608435906001600160401b0382116101275736602383011215610127578160040135906001600160401b03821161012757366024838501011161012757845f52600160205260ff60405f20541661054c574284111561050757600386118015906104f0575b156104ab57600990855f525f6020526102d96102b26102ad60405f2093369060040161180f565b6118bc565b6002830181815583546001600160a01b03191633178455906102d3906119dc565b54611a4d565b60068101600160ff19825416179055426007820155846008820155018560ff19825416179055835f5260026020528060405f2092610317845461165c565b601f811161045b575b505f90601f83116001146103ee575f926103e0575b50508160011b915f199060031b1c19161790555b600354600160401b8110156103cc578060016103689201600355611630565b81549060031b9084821b915f19901b1916179055815f52600160205260405f20600160ff1982541617905560405192835260208301524260408301527f73b455edf7ada135cc3fb97b1de1ccee09399cb89c4bc91dfdd0ea61d26229c060603393a3005b634e487b7160e01b5f52604160045260245ffd5b602492500101358680610335565b909150601f19831691845f5260205f20925f5b8181106104405750908460019594939210610424575b505050811b019055610349565b01602401355f19600384901b60f8161c19169055868080610417565b91936020600181926024888801013581550195019201610401565b909150835f5260205f20601f840160051c810191602085106104a1575b90601f859493920160051c01905b8181106104935750610320565b5f8155849350600101610486565b9091508190610478565b60405162461bcd60e51b815260206004820152601860248201527f496e76616c6964206e65676f74696174696f6e207479706500000000000000006044820152606490fd5b50600a86101580156102865750600d861115610286565b60405162461bcd60e51b815260206004820152601e60248201527f446561646c696e65206d75737420626520696e207468652066757475726500006044820152606490fd5b60405162461bcd60e51b8152602060048201526013602482015272526f6f6d20616c72656164792065786973747360681b6044820152606490fd5b34610127576020366003190112610127576001600160a01b036105a86115b2565b165f52600760205260405f2080546105bf81611702565b916105cd60405193846116af565b81835260208301905f5260205f205f915b8383106105f757604051806105f387826115c8565b0390f35b6004602060019260405161060a81611694565b85548152848060a01b038587015416838201526002860154604082015260ff60038701541660608201528152019201920191906105de565b3461012757606036600319011261012757600435602435801515809103610127576044356001600160401b03811680910361012757825f525f60205260018060a01b0360405f205416331480156107aa575b61069d90611719565b825f525f60205260ff600660405f2001541660058110156107965760036106c49114611753565b825f52600460205260ff60405f20541661075d577f4e60cc513e2f54d161d3b39c428223c2426084d90a99d0fb838463da61e32e7891606091845f52600460205260405f20600160ff19825416179055845f52600560205260405f2060ff1981541660ff8416179055845f52600660205260405f20816001600160401b03198254161790556040519182526020820152426040820152a2005b60405162461bcd60e51b8152602060048201526011602482015270105b1c9958591e481c1d589b1a5cda1959607a1b6044820152606490fd5b634e487b7160e01b5f52602160045260245ffd5b505f838152602081905260409020600101546001600160a01b03163314610694565b34610127576020366003190112610127576004355f52600660205260206001600160401b0360405f205416604051908152f35b34610127576020366003190112610127576004355f52600260205260405f20604051905f908054906108308261165c565b80855291600181169081156108ac575060011461086c575b6105f384610858818603826116af565b6040519182916020835260208301906116d0565b5f90815260208120939250905b8082106108925750909150810160200161085882610848565b919260018160209254838588010152019101909291610879565b60ff191660208087019190915292151560051b850190920192506108589150839050610848565b3461012757602036600319011261012757600435600354811015610127576108fc602091611630565b90549060031b1c604051908152f35b34610127576040366003190112610127576024356004356001600160401b038211610127576080600319833603011261012757805f525f60205260405f2091600683019060ff8254166005811015610796576001036110155760088401544211610fdd5783546001600160a01b03163314610f98576001840180546001600160a01b03191633178155906109a7906102ad90369060040161180f565b906109b860038601928084556119dc565b6109c28254611a4d565b600260ff19845416178355600a60ff600987015416105f14610f82576109ee8254600287015490611a8f565b945b60028101549254958315610f72575b8615610f62575b60405196610a156060896116af565b60028852604094853660208b0137610a2c89611c57565b52610a3688611c64565b52610a726020809860405190610a4c83836116af565b5f82525f368137604051631888debd60e01b815293849283926008600560048601611c27565b03815f73ea30c4b8b44078bbf8a6ef5b9f1ec1626c7848d95af1908115610db4575f91610f35575b50604051610aa889826116af565b5f81525f368137610b136080968a604051610ac38a826116af565b60038152601f198a01948536848401376002610ade83611c57565b526005610aea83611c64565b525f610af583611c74565b52604051631888debd60e01b81529485928392600560048501611bef565b03815f73ea30c4b8b44078bbf8a6ef5b9f1ec1626c7848d95af18015610db4578b925f91610f02575b50610baf94818115610ef2575b15610ee2575b60405192610b5e6060856116af565b600284523685850137610b7083611c57565b52610b7a82611c64565b5260405190610b8983836116af565b5f82525f368137604051631888debd60e01b81529485928392600d600560048601611c27565b03815f73ea30c4b8b44078bbf8a6ef5b9f1ec1626c7848d95af1958615610db45789925f97610eb1575b50610be2611c84565b87858615610ddf575b610c779915610dcf575b8215610dbf575b60405194610c0a85876116af565b600386523687870137610c1c85611c57565b52610c2684611c64565b52610c3083611c74565b52610c89604051610c4185826116af565b5f81525f3681376040519889948594631888debd60e01b8652600560048701526004602487015260448601526084850190611bbc565b83810360031901606485015290611bbc565b03815f73ea30c4b8b44078bbf8a6ef5b9f1ec1626c7848d95af1938415610db4575f94610d81575b5091610d0c82610cf9610d1f9695610ce460046102d39701918083556005850198895560018060a01b0385541690611b70565b6102d3815460018060a01b0387541690611b70565b845490546001600160a01b031690611b70565b825490546001600160a01b031690611b70565b600360ff19825416179055807f2217f4f84668660fcda807d2e4735f11a3e25faae11b6dbc5fa478eba177478f83604051428152a27f7fb92d9ef81fb1a14948efd516a9cd1343209038f191b7901ad2625166085a7c604051924284523393a3005b9350918684813d8311610dad575b610d9981836116af565b810103126101275792519291610d0c610cb1565b503d610d8f565b6040513d5f823e3d90fd5b9150610dc9611c84565b91610bfc565b9050610dd9611c84565b90610bf5565b50610e4f94508b604051610df382826116af565b5f81525f36813760405190610e0886836116af565b600382528636848401375f610e1c83611c57565b525f610e2783611c64565b525f610e3283611c74565b52604051631888debd60e01b815297889283925f60048501611bef565b03815f73ea30c4b8b44078bbf8a6ef5b9f1ec1626c7848d95af18015610db4578c955f91610e7e575b50610beb565b86819792503d8311610eaa575b610e9581836116af565b810103126101275793518b9490610c77610e78565b503d610e8b565b8381949298503d8311610edb575b610ec981836116af565b8101031261012757889151958a610bd9565b503d610ebf565b9050610eec611c84565b90610b4f565b9050610efc611c84565b90610b49565b83819492503d8311610f2e575b610f1981836116af565b810103126101275790518a9190610baf610b3c565b503d610f0f565b90508781813d8311610f5b575b610f4c81836116af565b81010312610127575188610a9a565b503d610f42565b9550610f6c611c84565b95610a06565b9250610f7c611c84565b926109ff565b610f926002860154835490611a8f565b946109f0565b60405162461bcd60e51b815260206004820152601960248201527f43616e6e6f74206a6f696e20796f7572206f776e20726f6f6d000000000000006044820152606490fd5b60405162461bcd60e51b815260206004820152601060248201526f149bdbdb481a185cc8195e1c1a5c995960821b6044820152606490fd5b60405162461bcd60e51b815260206004820152601860248201527f526f6f6d206e6f7420616363657074696e67206a6f696e7300000000000000006044820152606490fd5b3461012757602036600319011261012757600435600354811015611083576108fc602091611630565b60405162461bcd60e51b8152602060048201526013602482015272496e646578206f7574206f6620626f756e647360681b6044820152606490fd5b34610127576020366003190112610127576001600160a01b036110df6115b2565b165f526008602052602060405f2054604051908152f35b34610127576020366003190112610127576001600160a01b036111176115b2565b165f526007602052602060405f2054604051908152f35b34610127576040366003190112610127576024356001600160a01b038116906004359082900361012757805f52600160205260ff60405f205416156112e9575f818152602081905260409020546001600160a01b031633036112995733821461125b57811561122257805f525f6020526111f360ff600960405f20015416604051906111b982611694565b8382523360208301524260408301526060820152835f5260076020526111e28160405f2061178d565b335f52600860205260405f2061178d565b604051904282527f2884407fcdc275a371cea04d9f60a046e5a783e64ee7861ecd5eeb2513bc848a60203393a4005b60405162461bcd60e51b8152602060048201526011602482015270125b9d985b1a59081c9958da5c1a595b9d607a1b6044820152606490fd5b60405162461bcd60e51b815260206004820152601660248201527521b0b73737ba1034b73b34ba32903cb7bab939b2b63360511b6044820152606490fd5b60405162461bcd60e51b815260206004820152602260248201527f4f6e6c7920726f6f6d2063726561746f722063616e2073656e6420696e766974604482015261657360f01b6064820152608490fd5b60405162461bcd60e51b8152602060048201526013602482015272149bdbdb48191bd95cc81b9bdd08195e1a5cdd606a1b6044820152606490fd5b3461012757602036600319011261012757600435805f525f60205260018060a01b0360405f2054163314801561139e575b61135e90611719565b5f525f60205260405f2060ff60068201541690600582101561079657611388600360409314611753565b6004600582015491015482519182526020820152f35b505f818152602081905260409020600101546001600160a01b03163314611355565b34610127576020366003190112610127576004355f525f602052602060ff600660405f200154166113f460405180926115a5565bf35b34610127576020366003190112610127576001600160a01b036114176115b2565b165f52600860205260405f20805461142e81611702565b9161143c60405193846116af565b81835260208301905f5260205f205f915b83831061146257604051806105f387826115c8565b6004602060019260405161147581611694565b85548152848060a01b038587015416838201526002860154604082015260ff600387015416606082015281520192019201919061144d565b3461012757602036600319011261012757610120600435805f525f60205260405f2060018060a01b038154169160018060a01b036001830154169160ff6006820154169060078101549060ff600960088301549201541691845f52600460205261155560ff60405f20541694865f52600560205260ff60405f205416965f5260066020526001600160401b0360405f20541697604051998a5260208a015260408901906115a5565b6060870152608086015260a0850152151560c0840152151560e0830152610100820152f35b34610127576020366003190112610127576020906004355f526004825260ff60405f20541615158152f35b9060058210156107965752565b600435906001600160a01b038216820361012757565b60206040818301928281528451809452019201905f5b8181106115eb5750505090565b8251805185526020818101516001600160a01b0316818701526040808301519087015260609182015160ff1691860191909152608090940193909201916001016115de565b6003548110156116485760035f5260205f2001905f90565b634e487b7160e01b5f52603260045260245ffd5b90600182811c9216801561168a575b602083101461167657565b634e487b7160e01b5f52602260045260245ffd5b91607f169161166b565b608081019081106001600160401b038211176103cc57604052565b90601f801991011681019081106001600160401b038211176103cc57604052565b805180835260209291819084018484015e5f828201840152601f01601f1916010190565b359060ff8216820361012757565b6001600160401b0381116103cc5760051b60200190565b1561172057565b60405162461bcd60e51b815260206004820152600b60248201526a4e6f74206120706172747960a81b6044820152606490fd5b1561175a57565b60405162461bcd60e51b815260206004820152600b60248201526a139bdd081cd95d1d1b195960aa1b6044820152606490fd5b805490600160401b8210156103cc57600182018082558210156116485760ff606081936003935f5260205f209060021b01948051865560018060a01b03602082015116600187019060018060a01b03166bffffffffffffffffffffffff60a01b825416179055604081015160028701550151169201911660ff19825416179055565b91906080838203126101275760405161182781611694565b809380358252611839602082016116f4565b602083015261184a604082016116f4565b60408301526060810135906001600160401b03821161012757019082601f830112156101275781356001600160401b0381116103cc5760405193611898601f8301601f1916602001866116af565b81855260208285010111610127576020815f92826060960183880137850101520152565b60ff604082015116600581036119c55750602060ff916060806040516118e181611694565b5f81525f858201525f60408201520152805161196560608585850151169301516040519261190e84611694565b83528483019384528560408401600581526060850192835260405197889687966313fce3b160e11b885260406004890152516044880152511660648601525116608484015251608060a484015260c48301906116d0565b33602483015203815f73ea30c4b8b44078bbf8a6ef5b9f1ec1626c7848d95af1908115610db4575f91611996575090565b90506020813d6020116119bd575b816119b1602093836116af565b81010312610127575190565b3d91506119a4565b6367cf307160e01b5f52600452600560245260445ffd5b73ea30c4b8b44078bbf8a6ef5b9f1ec1626c7848d93b1561012757604051631974142760e21b815260048101919091523360248201525f8180604481015b03818373ea30c4b8b44078bbf8a6ef5b9f1ec1626c7848d95af18015610db457611a415750565b5f611a4b916116af565b565b73ea30c4b8b44078bbf8a6ef5b9f1ec1626c7848d93b1561012757604051631974142760e21b815260048101919091523060248201525f818060448101611a1a565b908115611b60575b8015611b52575b60405191611aad6060846116af565b600283526040366020850137611ac283611c57565b52611acc82611c64565b52611b086020809260405190611ae283836116af565b5f82525f368137604051631888debd60e01b815293849283926012600560048601611c27565b03815f73ea30c4b8b44078bbf8a6ef5b9f1ec1626c7848d95af1918215610db4575f92611b3457505090565b90809250813d8311611b4b575b6119b181836116af565b503d611b41565b50611b5b611c84565b611a9e565b9050611b6a611c84565b90611a97565b73ea30c4b8b44078bbf8a6ef5b9f1ec1626c7848d93b1561012757604051631974142760e21b815260048101919091526001600160a01b0390911660248201525f818060448101611a1a565b90602080835192838152019201905f5b818110611bd95750505090565b8251845260209384019390920191600101611bcc565b91611c169060ff611c249593168452601a6020850152608060408501526080840190611bbc565b916060818403910152611bbc565b90565b9293919060ff168352602081101561079657611c2493611c16916020850152608060408501526080840190611bbc565b8051156116485760200190565b8051600110156116485760400190565b8051600210156116485760600190565b6020611b0881604051611c9782826116af565b5f81525f36813760405190611cad6080836116af565b60038252606036848401375f611cc283611c57565b526005611cce83611c64565b525f611cd983611c74565b52604051631888debd60e01b81529384928392600560048501611bef56fea264697066735822122028056f625414441f8d8e4ff395d96703615be0fa786f7d76fa219ac19c7bf90264736f6c634300081a0033","linkReferences":{}},"methodIdentifiers":{"createRoom(bytes32,(uint256,uint8,uint8,bytes),uint8,uint256,string)":"de6aa4a8","getEncryptedResult(bytes32)":"377e89e2","getPublishedResult(bytes32)":"e3b5e0ff","getReceivedInviteCount(address)":"490d98e6","getReceivedInvites(address)":"db5aabc5","getRoomCount()":"eadddb3c","getRoomIdAt(uint256)":"9f51b339","getRoomInfo(bytes32)":"08aede14","getRoomStatus(bytes32)":"2f0fc53d","getSentInviteCount(address)":"5226ea99","getSentInvites(address)":"1053a3ab","joinAndCompute(bytes32,(uint256,uint8,uint8,bytes))":"a7be8e20","matchResult(bytes32)":"f3db82aa","publishResult(bytes32,bool,uint64)":"da2dd789","publishedPrice(bytes32)":"d22932bb","resultPublished(bytes32)":"02acc400","roomExists(bytes32)":"e88724fd","roomIds(uint256)":"ad7708cf","roomMetadata(bytes32)":"b3d19f12","sendInvite(bytes32,address)":"3c553586"},"id":30}