{"abi":[{"type":"constructor","inputs":[{"name":"_usdc","type":"address","internalType":"address"},{"name":"_blindNegotiation","type":"address","internalType":"address"}],"stateMutability":"nonpayable"},{"type":"function","name":"blindNegotiation","inputs":[],"outputs":[{"name":"","type":"address","internalType":"contract IBlindNegotiation"}],"stateMutability":"view"},{"type":"function","name":"depositEscrow","inputs":[{"name":"roomId","type":"bytes32","internalType":"bytes32"},{"name":"amount","type":"uint256","internalType":"uint256"},{"name":"seller","type":"address","internalType":"address"}],"outputs":[],"stateMutability":"nonpayable"},{"type":"function","name":"emergencyRefund","inputs":[{"name":"roomId","type":"bytes32","internalType":"bytes32"}],"outputs":[],"stateMutability":"nonpayable"},{"type":"function","name":"getEscrow","inputs":[{"name":"roomId","type":"bytes32","internalType":"bytes32"}],"outputs":[{"name":"","type":"tuple","internalType":"struct ConfidentialEscrow.Escrow","components":[{"name":"buyer","type":"address","internalType":"address"},{"name":"seller","type":"address","internalType":"address"},{"name":"depositAmount","type":"uint256","internalType":"uint256"},{"name":"agreedAmount","type":"uint256","internalType":"uint256"},{"name":"status","type":"uint8","internalType":"enum ConfidentialEscrow.EscrowStatus"},{"name":"depositedAt","type":"uint256","internalType":"uint256"}]}],"stateMutability":"view"},{"type":"function","name":"hasActiveEscrow","inputs":[{"name":"roomId","type":"bytes32","internalType":"bytes32"}],"outputs":[{"name":"","type":"bool","internalType":"bool"}],"stateMutability":"view"},{"type":"function","name":"settleEscrow","inputs":[{"name":"roomId","type":"bytes32","internalType":"bytes32"}],"outputs":[],"stateMutability":"nonpayable"},{"type":"function","name":"usdc","inputs":[],"outputs":[{"name":"","type":"address","internalType":"contract IERC20"}],"stateMutability":"view"},{"type":"event","name":"EscrowDeposited","inputs":[{"name":"roomId","type":"bytes32","indexed":true,"internalType":"bytes32"},{"name":"buyer","type":"address","indexed":true,"internalType":"address"},{"name":"seller","type":"address","indexed":true,"internalType":"address"},{"name":"amount","type":"uint256","indexed":false,"internalType":"uint256"}],"anonymous":false},{"type":"event","name":"EscrowRefunded","inputs":[{"name":"roomId","type":"bytes32","indexed":true,"internalType":"bytes32"},{"name":"buyer","type":"address","indexed":true,"internalType":"address"},{"name":"amount","type":"uint256","indexed":false,"internalType":"uint256"}],"anonymous":false},{"type":"event","name":"EscrowSettled","inputs":[{"name":"roomId","type":"bytes32","indexed":true,"internalType":"bytes32"},{"name":"seller","type":"address","indexed":true,"internalType":"address"},{"name":"agreedAmount","type":"uint256","indexed":false,"internalType":"uint256"},{"name":"refundAmount","type":"uint256","indexed":false,"internalType":"uint256"}],"anonymous":false},{"type":"error","name":"AgreedPriceExceedsDeposit","inputs":[{"name":"agreedAmount","type":"uint256","internalType":"uint256"},{"name":"depositAmount","type":"uint256","internalType":"uint256"}]},{"type":"error","name":"EmergencyRefundTooEarly","inputs":[{"name":"availableAt","type":"uint256","internalType":"uint256"}]},{"type":"error","name":"EscrowAlreadyExists","inputs":[]},{"type":"error","name":"EscrowNotDeposited","inputs":[]},{"type":"error","name":"InvalidAmount","inputs":[]},{"type":"error","name":"InvalidSeller","inputs":[]},{"type":"error","name":"OnlyBuyerCanEmergencyRefund","inputs":[]},{"type":"error","name":"ResultNotPublished","inputs":[]},{"type":"error","name":"SafeERC20FailedOperation","inputs":[{"name":"token","type":"address","internalType":"address"}]}],"bytecode":{"object":"0x60c03460a157601f6109b838819003918201601f19168301916001600160401b0383118484101760a557808492604094855283398101031260a157604b602060458360b9565b920160b9565b6001600160a01b039182166080521660a0526040516108eb90816100cd8239608051818181610223015281816103b40152818161048a015281816105fc015261068e015260a0518181816102f5015261057c0152f35b5f80fd5b634e487b7160e01b5f52604160045260245ffd5b51906001600160a01b038216820360a15756fe6080806040526004361015610012575f80fd5b5f3560e01c90816323926af61461062b575080633e413bee146105e7578063405dc6c1146105ab5780636bdc5a72146105675780639c2243061461029f578063d92e0af21461017b5763f023b81114610069575f80fd5b34610177576020366003190112610177575f60a06040516100898161082b565b82815282602082015282604082015282606082015282608082015201526004355f525f60205260405f206040516100bf8161082b565b81546001600160a01b039081168252600183015416602082019081526002830154604083019081526003840154606084019081526004808601549395608086019492939260ff1691821015610163579084526005015460a085019081526040805195516001600160a01b03908116875296519096166020860152905194840194909452516060830152519160048310156101635760c09260808301525160a0820152f35b634e487b7160e01b5f52602160045260245ffd5b5f80fd5b3461017757602036600319011261017757600435805f525f60205260405f20906004820160ff8154166004811015610163576001036102905782546001600160a01b031633036102815760058301546202a300810180911161026d5780421061025b5750600360ff198254161790557ffc31a7ddbe933aa6e67f3c98c183fbc87addd2b602fcfb10238d2f85cf02661760206002840154936102478560018060a01b038354167f0000000000000000000000000000000000000000000000000000000000000000610854565b546040519485526001600160a01b031693a3005b63edc7102160e01b5f5260045260245ffd5b634e487b7160e01b5f52601160045260245ffd5b631740f9e360e31b5f5260045ffd5b63bf1383a960e01b5f5260045ffd5b3461017757602036600319011261017757600435805f525f60205260405f2090600482019160ff8354166004811015610163576001036102905760405163e3b5e0ff60e01b8152600481018390526060816024817f00000000000000000000000000000000000000000000000000000000000000006001600160a01b03165afa90811561055c575f80915f936104d0575b50156104c157806104ae575b156104445767ffffffffffffffff1692620f4240840293808504620f4240149015171561026d5760028201549384811161042d578085039480861161026d57836040938360037fc8892f35ea03b8126b3acc12e33b2a0a59827977f990e258079a64d49b2b9c2b970155600260ff19825416179055867f00000000000000000000000000000000000000000000000000000000000000008460018401946103ed8260018060a01b0388541685610854565b0361040e575b50505060018060a01b039054169482519182526020820152a3005b9154610425926001600160a01b0390911690610854565b8686816103f3565b849063c760b26b60e01b5f5260045260245260445ffd5b5091600360ff198254161790557ffc31a7ddbe933aa6e67f3c98c183fbc87addd2b602fcfb10238d2f85cf02661760206002840154936102478560018060a01b038354167f0000000000000000000000000000000000000000000000000000000000000000610854565b5067ffffffffffffffff8116151561033c565b63e0cf1b0360e01b5f5260045ffd5b9250505060603d606011610555575b601f8101601f1916820167ffffffffffffffff811183821017610541576060918391604052810103126101775761051581610847565b604061052360208401610847565b9201519067ffffffffffffffff821682036101775791909186610330565b634e487b7160e01b5f52604160045260245ffd5b503d6104df565b6040513d5f823e3d90fd5b34610177575f366003190112610177576040517f00000000000000000000000000000000000000000000000000000000000000006001600160a01b03168152602090f35b34610177576020366003190112610177576004355f525f60205260ff600460405f20015416600481101561016357602090600160405191148152f35b34610177575f366003190112610177576040517f00000000000000000000000000000000000000000000000000000000000000006001600160a01b03168152602090f35b34610177576060366003190112610177576044356001600160a01b0381169160243591600435919084900361017757815f525f60205260ff600460405f2001541660048110156101635761081c57821561080d5783158015610804575b6107f5577f00000000000000000000000000000000000000000000000000000000000000006323b872dd60e01b5f5233600452306024528360445260205f60648180855af160015f51148116156107d6575b826040525f606052156107b657506106f18161082b565b338152602080820185815260408084018681525f606086018181526001608088018181524260a08a019081528a85529784905294909220965187546001600160a01b03199081166001600160a01b03928316178955955192880180549096169216919091179093555160028501559051600384015551906004808401908310156101635760059260ff80198354169116179055519101556040519182527fcc40be07b95c3742b1185187814fe5ab97a9599e564db0423cdc3b8c4b9e87d160203393a4005b635274afe760e01b5f9081526001600160a01b0391909116600452602490fd5b60018115166107ec57813b15153d1516166106da565b823d5f823e3d90fd5b63bab7ca3560e01b5f5260045ffd5b50338414610688565b63162908e360e11b5f5260045ffd5b63ed77877960e01b5f5260045ffd5b60c0810190811067ffffffffffffffff82111761054157604052565b5190811515820361017757565b916040519163a9059cbb60e01b5f5260018060a01b031660045260245260205f60448180865af19060015f5114821615610894575b604052156107b65750565b9060018115166108ac57823b15153d15161690610889565b503d5f823e3d90fdfea26469706673582212208c8780e3e1253bf6f3963396de6eff7d1e2b1a1144ae33092f947f091f3a275764736f6c634300081a0033","linkReferences":{}},"methodIdentifiers":{"blindNegotiation()":"6bdc5a72","depositEscrow(bytes32,uint256,address)":"23926af6","emergencyRefund(bytes32)":"d92e0af2","getEscrow(bytes32)":"f023b811","hasActiveEscrow(bytes32)":"405dc6c1","settleEscrow(bytes32)":"9c224306","usdc()":"3e413bee"},"id":31}